:020000040800F2
:1000000000C00020FD1E0008211D0008271D00085B
:100010002D1D0008331D0008391D000800000000D8
:100020000000000000000000000000003F1D00086C
:100030004B1D000800000000571D0008631D00084C
:10004000451F0008451F0008451F0008451F000800
:10005000451F0008451F0008451F0008451F0008F0
:10006000451F0008451F0008451F0008451F0008E0
:10007000451F0008451F0008451F0008451F0008D0
:10008000451F0008451F0008451F0008451F0008C0
:10009000451F0008451F0008451F0008451F0008B0
:1000A000451F0008451F0008451F0008451F0008A0
:1000B000451F0008451F0008451F0008451F000890
:1000C000451F0008451F0008451F0008451F000880
:1000D000451F0008451F0008451F0008451F000870
:1000E000451F0008451F0008451F0008451F000860
:1000F000451F0008451F0008451F0008451F000850
:10010000451F0008451F0008451F0008451F00083F
:10011000451F0008451F0008451F0008451F00082F
:10012000451F0008451F0008451F0008451F00081F
:1001300000000000000000000000000000000000BF
:1001400000000000000000000000000000000000AF
:10015000000000000000000000000000000000009F
:10016000000000000000000000000000000000008F
:10017000000000000000000000000000000000007F
:10018000000000000000000000000000000000006F
:10019000000000000000000000000000000000005F
:1001A000000000000000000000000000000000004F
:1001B000000000000000000000000000000000003F
:1001C000000000000000000000000000000000002F
:1001D000000000000000000000000000000000001F
:0401E0005FF8E0F1F3
:1001E80010B5054C237833B9044B13B10448AFF369
:1001F80000800123237010BDD801002000000000FA
:10020800B471000808B5034B1BB103490348AFF3A9
:10021800008008BD00000000DC010020B471000867
:1002280081F0004102E000BF83F0004330B54FEA9F
:1002380041044FEA430594EA050F08BF90EA020F0C
:100248001FBF54EA000C55EA020C7FEA645C7FEA9F
:10025800655C00F0E2804FEA5454D4EB5555B8BFC2
:100268006D420CDD2C4480EA020281EA030382EA33
:10027800000083EA010180EA020281EA0303362DC5
:1002880088BF30BD11F0004F4FEA01314FF4801C98
:100298004CEA113102D0404261EB410113F0004FAA
:1002A8004FEA03334CEA133302D0524263EB430361
:1002B80094EA050F00F0A780A4F10104D5F1200EFF
:1002C8000DDB02FA0EFC22FA05F2801841F100015A
:1002D80003FA0EF2801843FA05F359410EE0A5F12E
:1002E80020050EF1200E012A03FA0EFC28BF4CF05F
:1002F800020C43FA05F3C01851EBE37101F0004515
:1003080007D54FF0000EDCF1000C7EEB00006EEB21
:100318000101B1F5801F1BD3B1F5001F0CD34908AB
:100328005FEA30004FEA3C0C04F101044FEA445202
:1003380012F5800F80F09A80BCF1004F08BF5FEA89
:10034800500C50F1000041EB045141EA050130BD69
:100358005FEA4C0C404141EB0101013C28BFB1F57B
:10036800801FE9D291F0000F04BF01460020B1FAC6
:1003780081F308BF2033A3F10B03B3F120020CDA99
:100388000C3208DD02F1140CC2F10C0201FA0CF077
:1003980021FA02F10CE002F11402D8BFC2F1200CDC
:1003A80001FA02F120FA0CFCDCBF41EA0C01904092
:1003B800E41AA2BF01EB0451294330BD6FEA0404DB
:1003C8001F3C1CDA0C340EDC04F11404C4F12002C6
:1003D80020FA04F001FA02F340EA030021FA04F3D8
:1003E80045EA030130BDC4F10C04C4F1200220FA2F
:1003F80002F001FA04F340EA0300294630BD21FA6D
:1004080004F0294630BD94F0000F83F4801306BF32
:1004180081F480110134013D4EE77FEA645C18BF26
:100428007FEA655C29D094EA050F08BF90EA020FBD
:1004380005D054EA000C04BF1946104630BD91EAB5
:10044800030F1EBF0021002030BD5FEA545C05D1B8
:100458004000494128BF41F0004130BD14F58004F7
:100468003CBF01F5801130BD01F0004545F0FE416B
:1004780041F470014FF0000030BD7FEA645C1ABFA0
:10048800194610467FEA655C1CBF0B46024650EAD7
:10049800013406BF52EA033591EA030F41F4002103
:1004A80030BD00BF90F0000F04BF0021704730B589
:1004B8004FF4806404F132044FF000054FF000015E
:1004C80050E700BF90F0000F04BF0021704730B51F
:1004D8004FF4806404F1320410F0004548BF4042F4
:1004E8004FF000013EE700BF42004FEAE2014FEA49
:1004F80031014FEA02701FBF12F07F4393F07F4F24
:1005080081F06051704732F07F4208BF704793F026
:100518007F4F04BF41F40021704730B54FF4607439
:1005280001F0004521F000411CE700BF50EA01023C
:1005380008BF704730B54FF000050AE050EA0102E5
:1005480008BF704730B511F0004502D5404261EB55
:1005580041014FF4806404F132045FEA915C3FF496
:10056800D8AE4FF003025FEADC0C18BF03325FEA33
:10057800DC0C18BF033202EBDC02C2F1200300FAE4
:1005880003FC20FA02F001FA03FE40EA0E0021FA09
:1005980002F11444BDE600BF4A0011D212F5001260
:1005A80011D20DD56FF47873B3EB62520ED44FEAC3
:1005B800C12343F0004343EA505323FA02F0704743
:1005C8004FF00000704750EA013002D14FF0FF3081
:1005D80070474FF000007047034613F8012B002ABC
:1005E800FBD1181A0138704770B54FF0FF0C4CF466
:1005F800E06C1CEA11541DBF1CEA135594EA0C0F59
:1006080095EA0C0F00F0DEF82C4481EA030621EA93
:100618004C5123EA4C5350EA013518BF52EA0335CE
:1006280041F4801143F4801338D0A0FB02CE4FF080
:100638000005E1FB02E506F00042E0FB03E54FF0B0
:100648000006E1FB03569CF0000F18BF4EF0010EA8
:10065800A4F1FF04B6F5007F64F5407404D25FEAA4
:100668004E0E6D4146EB060642EAC62141EA555157
:100678004FEAC52040EA5E504FEACE2EB4F1FD0C99
:1006880088BFBCF5E06F1ED8BEF1004F08BF5FEA17
:10069800500E50F1000041EB045170BD06F00046C9
:1006A80046EA010140EA020081EA0301B4EB5C0476
:1006B800C2BFD4EB0C0541EA045170BD41F480116E
:1006C8004FF0000E013C00F3AB8014F1360FDEBF93
:1006D800002001F0004170BDC4F10004203C35DA6F
:1006E8000C341BDC04F11404C4F1200500FA05F3F2
:1006F80020FA04F001FA05F240EA020001F0004293
:1007080021F0004110EBD37021FA04F642EB060108
:100718005EEA430E08BF20EAD37070BDC4F10C0432
:10072800C4F1200500FA04F320FA05F001FA04F2F6
:1007380040EA020001F0004110EBD37041F10001E2
:100748005EEA430E08BF20EAD37070BDC4F12005ED
:1007580000FA05F24EEA020E20FA04F301FA05F255
:1007680043EA020321FA04F001F0004121FA04F2FD
:1007780020EA020000EBD3705EEA430E08BF20EACD
:10078800D37070BD94F0000F0FD101F00046400007
:1007980041EB010111F4801F08BF013CF7D041EA89
:1007A800060195F0000F18BF704703F0004652008D
:1007B80043EB030313F4801F08BF013DF7D043EA5E
:1007C8000603704794EA0C0F0CEA135518BF95EA14
:1007D8000C0F0CD050EA410618BF52EA4306D1D19B
:1007E80081EA030101F000414FF0000070BD50EABA
:1007F800410606BF1046194652EA430619D094EA44
:100808000C0F02D150EA013613D195EA0C0F05D12D
:1008180052EA03361CBF104619460AD181EA030181
:1008280001F0004141F0FE4141F470014FF0000039
:1008380070BD41F0FE4141F4780170BD70B54FF0D4
:10084800FF0C4CF4E06C1CEA11541DBF1CEA135554
:1008580094EA0C0F95EA0C0F00F0A7F8A4EB050436
:1008680081EA030E52EA03354FEA013100F088802D
:100878004FEA03334FF0805545EA131343EA1263F6
:100888004FEA022245EA111545EA10654FEA0026AB
:100898000EF000419D4208BF964244F1FD0404F564
:1008A800407402D25B084FEA3202B61A65EB0305C0
:1008B8005B084FEA32024FF480104FF4002CB6EB7D
:1008C800020E75EB030E22BFB61A754640EA0C00FD
:1008D8005B084FEA3202B6EB020E75EB030E22BF3D
:1008E800B61A754640EA5C005B084FEA3202B6EB7E
:1008F800020E75EB030E22BFB61A754640EA9C003D
:100908005B084FEA3202B6EB020E75EB030E22BF0C
:10091800B61A754640EADC0055EA060E18D04FEACA
:10092800051545EA16754FEA06164FEAC30343EA6A
:1009380052734FEAC2025FEA1C1CC0D111F4801F37
:100948000BD141EA00014FF000004FF0004CB6E730
:1009580011F4801F04BF01430020B4F1FD0C88BFCF
:10096800BCF5E06F3FF6AFAEB5EB030C04BFB6EBDA
:10097800020C5FEA500C50F1000041EB045170BDCD
:100988000EF0004E4EEA113114EB5C04C2BFD4EBFA
:100998000C0541EA045170BD41F480114FF0000E7E
:1009A800013C90E645EA060E8DE60CEA135594EAFA
:1009B8000C0F08BF95EA0C0F3FF43BAF94EA0C0FFD
:1009C8000AD150EA01347FF434AF95EA0C0F7FF472
:1009D80025AF104619462CE795EA0C0F06D152EAC6
:1009E80003353FF4FDAE1046194622E750EA4106AA
:1009F80018BF52EA43067FF4C5AE50EA41047FF4BB
:100A08000DAF52EA43057FF4EBAE12E74FF0FF3C1F
:100A180006E000BF4FF0010C02E000BF4FF0010CF0
:100A28004DF804CD4FEA410C7FEA6C5C4FEA430C69
:100A380018BF7FEA6C5C1BD001B050EA410C0CBFB8
:100A480052EA430C91EA030F02BF90EA020F00201A
:100A5800704710F1000F91EA030F58BF994208BF81
:100A680090422CBFD8176FEAE37040F0010070473E
:100A78004FEA410C7FEA6C5C02D150EA013C07D195
:100A88004FEA430C7FEA6C5CD6D152EA033CD3D0E0
:100A98005DF8040B704700BF8446104662468C46DA
:100AA8001946634600E000BF01B5FFF7B7FF00280D
:100AB80048BF10F1000F01BD4DF808EDFFF7F4FF36
:100AC8000CBF012000205DF808FB00BF4DF808EDC1
:100AD800FFF7EAFF34BF012000205DF808FB00BFE4
:100AE8004DF808EDFFF7E0FF94BF012000205DF806
:100AF80008FB00BF4DF808EDFFF7CEFF94BF0120BB
:100B080000205DF808FB00BF4DF808EDFFF7C4FFB3
:100B180034BF012000205DF808FB00BF4FEA410CFC
:100B28007FEA6C5C02D150EA013C0AD14FEA430CDF
:100B38007FEA6C5C02D152EA033C02D14FF000001C
:100B480070474FF0010070474FEA4102B2F1E043AD
:100B580024BFB3F5001CDCF1FE5C0DD901F0004C9C
:100B68004FEAC0024CEA5070B2F1004F40EB8300EC
:100B780008BF20F00100704711F0804F21D113F118
:100B88003872BCBF01F00040704741F480114FEA51
:100B98005252C2F11802C2F1200C10FA0CF320FADA
:100BA80002F018BF40F001004FEAC1234FEAD323F7
:100BB80003FA0CFC40EA0C0023FA02F34FEA430361
:100BC800CCE77FEA625307D150EA01331EBF4FF0EA
:100BD800FE4040F44000704701F0004040F0FE4005
:100BE80040F40000704700BF38B505460C460022A7
:100BF800002328462146FFF769FF28B928462146E1
:100C0800BDE8384000F00AB8284604F1004100F079
:100C180005F8404261EB410138BD00BFD0B5002264
:100C28000B4B06460F46FFF7DFFCFFF7B5FC044603
:100C3800FFF738FC0022074BFFF7D6FC02460B46AD
:100C480030463946FFF7F0FAFFF7A6FC2146D0BD3B
:100C58000000F03D0000F04180B58CB002AF00F01C
:100C6800C7FC4FF6FF7000F05BFE4FF0FF33072222
:100C78002449254802F008FE00237B623AE0234815
:100C880001F048FA4FF0FF31204801F0F1FA1F480F
:100C980001F0F4FB034619461D4A7B6A42F823100B
:100CA8001B4A7B6A52F82330381D7A6A194903F0C7
:100CB800D3FA3B1D1846FFF78FFC03469AB2391D3D
:100CC8004FF0FF33104802F0DFFD7B6A9BB21A46F3
:100CD8001201D31A5B009BB2B43399B23B1D019346
:100CE800102300931023F022782000F00DFF7B6A78
:100CF80001337B627B6A022BC1DD4FF4FA7002F08C
:100D0800A5FFB9E7D071000824020020F4010020F3
:100D18006C020020D871000880B500AF02F034FFE3
:100D280000F009F800F0ECF800F062F800F0BEF806
:100D3800FFF792FFFEE780B596B000AF07F13003EA
:100D480028220021184603F0EAFA07F11C030022C2
:100D58001A605A609A60DA601A613B1D00221A60B4
:100D68005A609A60DA601A615A6101233B634FF452
:100D780080337B630023BB6301233B640223FB6452
:100D88004FF480333B654FF4E0137B6507F1300384
:100D9800184602F019F90346002B01D000F0D2F8EA
:100DA8000F23FB6102233B6200237B624FF48063C5
:100DB800BB620023FB6207F11C030221184602F004
:100DC80085FB0346002B01D000F0BCF802237B60B2
:100DD8004FF40043FB603B1D184601F067FF0346D4
:100DE800002B01D000F0AEF800BF5837BD4680BDDB
:100DF80080B584B000AF3B1D00221A605A609A602B
:100E0800284B294A1A60274B4FF480729A60254B69
:100E180000221A73234B01221A75224B01229A6170
:100E2800204B4FF46022DA611E4B00225A601D4BA2
:100E380003221A611B4801F083F80346002B01D0F6
:100E480000F080F802237B600123BB600023FB6075
:100E58003B1D1946134801F01DFB0346002B01D02A
:100E680000F070F803237B600223BB603B1D19462A
:100E78000C4801F00FFB0346002B01D000F062F88C
:100E880004237B600323BB603B1D1946054801F022
:100E980001FB0346002B01D000F054F800BF1037C7
:100EA800BD4680BDF40100200024014080B500AF9C
:100EB800114B124A1A60104B4FF4E1325A600E4B34
:100EC80000229A600C4B0022DA600B4B00221A6158
:100ED800094B0C225A61084B00229A61064B0022EA
:100EE800DA61054802F080FC0346002B01D000F0CF
:100EF80029F800BF80BD00BF24020020003801404F
:100F080080B483B000AF0E4B9B690D4A43F02003B9
:100F180093610B4B9B6903F020037B607B68084B54
:100F28009B69074A43F004039361054B9B6903F0EF
:100F380004033B603B6800BF0C37BD4680BC70476C
:100F48000010024080B400AF72B600BFFEE7000098
:100F580080B483B000AF0346FB800D4B4FF4807222
:100F68005A610B4B4FF400725A610A4AFB88D360EE
:100F7800074B80225A61064B80221A61044B4FF4BA
:100F880000721A6100BF0C37BD4680BC704700BFB5
:100F980000100140000C014080B483B000AF03464C
:100FA800FB800D4B4FF480721A610B4B4FF40072AB
:100FB8005A610A4AFB88D360074B80225A61064B64
:100FC80080221A61044B4FF400721A6100BF0C377B
:100FD800BD4680BC704700BF00100140000C0140B6
:100FE80080B483B000AF194B4FF088321A60174BAA
:100FF8004FF088325A60154B0022DA60144B4FF4D8
:1010080080721A61124B4FF400725A61104B4022E1
:101018005A610E4B9B68FB800D4B40221A610C4BAA
:101028004FF400721A61094B4FF033321A60074BC4
:101038004FF033325A60054B4FF6FF72DA60FB8887
:1010480018460C37BD4680BC704700BF000C0140F5
:101058000010014080B582B000AF03460A46FB800D
:101068001346BB80FB881846FFF772FF0C4B4FF402
:1010780080721A610A4B4FF400725A61094ABB88A0
:10108800D360074B80225A61054B80221A61044BBA
:101098004FF400721A6100BF0837BD4680BD00BF1B
:1010A80000100140000C014080B582B000AF03463B
:1010B800FB80FB881846FFF74BFFFFF791FF0346BD
:1010C80018460837BD4680BD80B500AF034B1B8965
:1010D8001846FFF73DFF00BF80BD00BF7C0200201F
:1010E80080B485B000AF0346FB80FB8803F01F0384
:1010F800FB81FB885B099BB203F03F03BB81FB8844
:10110800DB0A7B81FB89DB029AB2BB895B019BB25C
:1011180013449AB27B8913443B813B8918461437A0
:10112800BD4680BC7047000080B582B000AF034662
:101138000A46FB801346BB80334B5B891846FFF792
:1011480007FF324B4FF480721A61304B4FF4007234
:101158005A61FB881B0A9AB22D4BDA602B4B80220E
:101168005A612A4B80221A61284B4FF400721A6187
:10117800264B4FF480721A61244B4FF400725A6167
:10118800FB88234ADBB2D360204B80225A611F4B75
:1011980080221A611D4B4FF400721A611A4B9B8909
:1011A8001846FFF7D5FE194B4FF480721A61174B9A
:1011B8004FF400725A61BB881B0A9AB2144BDA606A
:1011C800124B80225A61114B80221A610F4B4FF447
:1011D80000721A610D4B4FF480721A610B4B4FF479
:1011E80000725A61BB880A4ADBB2D360074B80227F
:1011F8005A61064B80221A61044B4FF400721A613F
:1012080000BF0837BD4680BD7C02002000100140A9
:10121800000C014080B584B000AF0346FB71002389
:10122800FB810023BB81FB79072B36D801A252F83A
:1012380023F000BFA31200085D120008671200081F
:10124800711200087B120008851200088F1200082E
:1012580099120008FB8943F08003FB811DE0FB899C
:1012680043F04003FB8118E0FB8943F0C003FB8196
:1012780013E0FB8943F02003FB810EE0FB8943F078
:101288006003FB8109E0FB8943F0A003FB8104E0D4
:10129800FB8943F0E003FB8100BF3623BB81FA8959
:1012A800BB8911461846FFF7D5FE614B5B89184686
:1012B800FFF74EFE5F4B4FF480721A615D4B4FF49F
:1012C80000725A615C4B0022DA605A4B80225A61E4
:1012D800584B80221A61574B4FF400721A61554BD4
:1012E8004FF480721A61534B4FF400725A61524B9B
:1012F8000022DA604F4B80225A614E4B80221A61DD
:101308004C4B4FF400721A614A4B4FF480721A61C9
:10131800484B4FF400725A61454B1B88013B1A1227
:10132800454BDA60434B80225A61424B80221A6156
:10133800404B4FF400721A613E4B4FF480721A61B1
:101348003C4B4FF400725A61394B1B88013B3A4AB7
:10135800DBB2D360374B80225A61364B80221A6148
:10136800344B4FF400721A61314B9B891846FFF7D2
:10137800EFFD304B4FF480721A612E4B4FF4007220
:101388005A612D4B0022DA602A4B80225A61294B80
:1013980080221A61274B4FF400721A61254B4FF4D3
:1013A80080721A61234B4FF400725A61224B00225B
:1013B800DA60204B80225A611E4B80221A611D4B35
:1013C8004FF400721A611B4B4FF480721A61194B6B
:1013D8004FF400725A61164B5B88013B1A12164B88
:1013E800DA60144B80225A61124B80221A61114B29
:1013F8004FF400721A610F4B4FF480721A610D4B53
:101408004FF400725A610A4B5B88013B0A4ADBB20F
:10141800D360084B80225A61064B80221A61054B23
:101428004FF400721A6100BF1037BD4680BD00BF7F
:101438007C02002000100140000C014080B582B001
:1014480000AF0346FB800B46BB8013467B80494BAD
:101458005B891846FFF77CFD474B4FF480721A6191
:10146800454B4FF400725A61FB881B0A9AB2434BF2
:10147800DA60414B80225A613F4B80221A613E4B11
:101488004FF400721A613C4B4FF480721A613A4B68
:101498004FF400725A61FB88384ADBB2D360364B8E
:1014A80080225A61344B80221A61334B4FF4007208
:1014B8001A61304B9B891846FFF74AFD2E4B4FF4B3
:1014C80080721A612C4B4FF400725A61BB881B0A58
:1014D8009AB22A4BDA60284B80225A61264B802226
:1014E8001A61254B4FF400721A61234B4FF4807236
:1014F8001A61214B4FF400725A61BB881F4ADBB254
:10150800D3601D4B80225A611B4B80221A611A4BF3
:101518004FF400721A61184B4FF480725A61164BDF
:101528004FF400725A61134B1A89144BDA60124B4C
:1015380080225A61104B80221A610F4B4FF40072BF
:101548001A610D4B4FF480721A610B4B4FF4007205
:101558005A610A4A7B88D360074B80225A61064B3E
:1015680080221A61044B4FF400721A6100BF0837D9
:10157800BD4680BD7C02002000100140000C0140E7
:1015880080B582B000AF0346FB71FB79002B13D105
:10159800164B00229A71154BF0221A80134B4FF408
:1015A800A0725A80114B2C221A81104B2A225A8180
:1015B8000E4B2B229A8112E00C4B01229A710B4B95
:1015C8004FF4A0721A80094BF0225A80074B2C2244
:1015D8001A81064B2A225A81044B2B229A81002019
:1015E800FFF718FE00BF0837BD4680BD7C0200200B
:1015F80080B586B000AFC44B9B69C34A43F008036B
:101608009361C14B9B6903F008037B607B68BE4B09
:101618009B69BD4A43F010039361BB4B9B6903F080
:1016280010033B603B684FF4F863BB600123FB6029
:1016380001233B6103237B6107F108031946B34883
:1016480001F0A0F94FF6FF73BB6007F108031946D4
:10165800AF4801F097F9322002F0F8FA0121002092
:10166800FFF7F8FC322002F0F1FA0020FFF71CFD2A
:1016780003461A46A74B9A80D320FFF769FCFFF769
:10168800AFFCFFF7ADFCFFF7ABFC03461A46A14BD6
:101698009A80A04B9B881B029AB29E4B9A80FFF7B8
:1016A8009FFC03461A469B4B9B8813439AB2994B5F
:1016B8009A80CF20FFF74CFC0020FFF76DFCC1207B
:1016C800FFF76AFC3020FFF767FCED20FFF740FCCE
:1016D8006420FFF761FC0320FFF75EFC1220FFF790
:1016E8005BFC8120FFF758FCE820FFF731FC8520E0
:1016F800FFF752FC1020FFF74FFC7A20FFF74CFC55
:10170800CB20FFF725FC3920FFF746FC2C20FFF7FC
:1017180043FC0020FFF740FC3420FFF73DFC02208B
:10172800FFF73AFCF720FFF713FC2020FFF734FC03
:10173800EA20FFF70DFC0020FFF72EFC0020FFF742
:101748002BFCC020FFF704FC1B20FFF725FCC12061
:10175800FFF7FEFB0120FFF71FFCC520FFF7F8FB92
:101768003020FFF719FC3020FFF716FCC720FFF7E1
:10177800EFFBB720FFF710FC3620FFF7E9FB482006
:10178800FFF70AFC3A20FFF7E3FB5520FFF704FCBC
:10179800B120FFF7DDFB0020FFF7FEFB1A20FFF763
:1017A800FBFBB620FFF7D4FB0A20FFF7F5FBA220CE
:1017B800FFF7F2FBF220FFF7CBFB0020FFF7ECFB73
:1017C8002620FFF7C5FB0120FFF7E6FBE020FFF727
:1017D800BFFB0F20FFF7E0FB2A20FFF7DDFB2820E7
:1017E800FFF7DAFB0820FFF7D7FB0E20FFF7D4FB43
:1017F8000820FFF7D1FB5420FFF7CEFBA920FFF705
:10180800CBFB4320FFF7C8FB0A20FFF7C5FB0F20DF
:10181800FFF7C2FB0020FFF7BFFB0020FFF7BCFB70
:101828000020FFF7B9FB0020FFF7B6FBE120FFF728
:101838008FFB0020FFF7B0FB1520FFF7ADFB17204B
:10184800FFF7AAFB0720FFF7A7FB1120FFF7A4FB70
:101858000620FFF7A1FB2B20FFF79EFB5620FFF782
:101868009BFB3C20FFF798FB0520FFF795FB10201A
:10187800FFF792FB0F20FFF78FFB3F20FFF78CFB52
:101888003F20FFF789FB0F20FFF786FB2B20FFF790
:101898005FFB0020FFF780FB0020FFF77DFB0120A6
:1018A800FFF77AFB3F20FFF777FB2A20FFF750FB73
:1018B8000020FFF771FB0020FFF76EFB0020FFF709
:1018C8006BFBEF20FFF768FB1120FFF741FB782047
:1018D80002F0BCF92920FFF73BFB0020FFF750FE80
:1018E8000D4B01221A604FF6FF7000F019F8094BF2
:1018F8001B881946074B5B881A46084802F09AFC71
:1019080000BF1837BD4680BD0010024000100140DE
:10191800000C01407C020020A8012242E47100086A
:1019280080B584B000AF0346FB800023FB601A4BF0
:101938001B88BB60184B5B881A46BB6802FB03F325
:10194800BB6000210020FFF7EFFBFFF7BDFB002382
:10195800FB6017E0114B4FF480721A610F4B4FF484
:1019680000725A610E4AFB88D3600C4B80225A6180
:101978000A4B80221A61094B4FF400721A61FB6806
:101988000133FB60FA68BB689A42E3D300BF00BF2B
:101998001037BD4680BD00BF7C020020001001400A
:1019A800000C014090B585B000AF044608461146CA
:1019B8001A462346FB800346BB800B46FB70134642
:1019C800BB70BB887B81BB78DB08DBB21A46BB786F
:1019D80003F00703DBB2002B14BF01230023DBB2A3
:1019E8001344DBB2BA785208D2B202FB03F37B721B
:1019F800FB78203BFB7000237B736EE0BB780C2BDD
:101A08000BD1FA78797B3A4813465B0013449B0064
:101A180003440B441B78FB7319E0BB78102B08D1E7
:101A2800FA787B7B334912010A4413441B78FB7311
:101A38000DE0BB78182B55D1FA78797B2E481346E0
:101A4800DB0013449B0003440B441B78FB73002307
:101A5800BB733AE097F90F30002B0CDA274B1B8841
:101A68001846FFF73DFB03461A46B988FB88184617
:101A7800FFF7E4FC0AE097F82030002B06D1204B52
:101A88001A88B988FB881846FFF7D8FCFB7B5B00EF
:101A9800FB73BB880133BB801A4B5B88BA889A42B8
:101AA80022D2BA887B89D21ABB789A420AD17B891A
:101AB800BB80FB880133FB80124B1B88FA889A4253
:101AC80007D312E0BB7B0133BB73BB7B072BC1D9A8
:101AD80000E000BF7B7B01337B737A7B7B7A9A4281
:101AE8008CD302E000BF00E000BF1437BD4690BDB4
:101AF8000472000878760008687C000878020020E4
:101B0800000000207C02002090B587B002AF044698
:101B1800084611461A462346FB800346BB800B46FF
:101B28007B8013463B80FB88FB737A88FB881344D1
:101B38007B803A88BB8813443B8024E0FA887B8802
:101B48009A4207D3FB7BFB8097F820309AB2BB8878
:101B58001344BB80BA883B889A421DD27B6A1A78A4
:101B680097F82030B988F88800240094FFF71AFF06
:101B780097F820305B08DBB29AB2FB881344FB80ED
:101B88007B6A01337B627B6A1B787E2B05D87B6A74
:101B98001B781F2BD2D800E000BF00BF1437BD460A
:101BA80090BD000080B485B000AF154B9B69144A06
:101BB80043F001039361124B9B6903F00103BB607F
:101BC800BB680F4BDB690E4A43F08053D3610C4B63
:101BD800DB6903F080537B607B680A4B5B68FB60C2
:101BE800FB6823F0E063FB60FB6843F00073FB6075
:101BF800044AFB68536000BF1437BD4680BC704779
:101C0800001002400000014080B588B000AF786045
:101C180007F1100300221A605A609A60DA607B6844
:101C28001B68144A934221D1134B9B69124A43F40F
:101C380000739361104B9B6903F40073FB60FB68AE
:101C48000D4B9B690C4A43F0040393610A4B9B6953
:101C580003F00403BB60BB681C233B6103237B6167
:101C680007F110031946054800F08CFE00BF203725
:101C7800BD4680BD0024014000100240000801401C
:101C880080B588B000AF786007F1100300221A60B1
:101C98005A609A60DA607B681B681C4A934231D1AB
:101CA8001B4B9B691A4A43F480439361184B9B6909
:101CB80003F48043FB60FB68154B9B69144A43F0AF
:101CC80004039361124B9B6903F00403BB60BB6878
:101CD8004FF400733B6102237B610323FB6107F12F
:101CE800100319460B4800F04DFE4FF480633B612A
:101CF80000237B610023BB6107F1100319460548E7
:101D080000F040FE00BF2037BD4680BD00380140CE
:101D1800001002400008014080B400AFFEE780B424
:101D280000AFFEE780B400AFFEE780B400AFFEE787
:101D380080B400AFFEE780B400AF00BFBD4680BCF2
:101D4800704780B400AF00BFBD4680BC704780B408
:101D580000AF00BFBD4680BC704780B500AF01F042
:101D680059FF00BF80BD80B400AF01231846BD46AF
:101D780080BC704780B582B000AF7860396002F0EF
:101D88001DFB034616221A604FF0FF33184608372A
:101D9800BD4680BD80B582B000AF78604FF0FF319E
:101DA8007868FFF7E7FFFEE780B586B000AFF86018
:101DB800B9607A6000237B610AE0AFF300800146D6
:101DC800BB685A1CBA60CAB21A707B6901337B615E
:101DD8007A697B689A42F0DB7B6818461837BD46FB
:101DE80080BD80B586B000AFF860B9607A60002326
:101DF8007B6109E0BB685A1CBA601B781846AFF3D0
:101E080000807B6901337B617A697B689A42F1DBE8
:101E18007B6818461837BD4680BD80B483B000AFD4
:101E280078604FF0FF3318460C37BD4680BC7047CA
:101E380080B483B000AF786039603B684FF40052DB
:101E48005A60002318460C37BD4680BC704780B4E2
:101E580083B000AF7860012318460C37BD4680BCBC
:101E6800704780B485B000AFF860B9607A6000232D
:101E780018461437BD4680BC7047000080B586B050
:101E880000AF7860144A154BD31A7B617B693B61BC
:101E9800134B1B68002B02D1114B124A1A60104BCE
:101EA8001A687B6813443A699A4207D202F086FAA4
:101EB80003460C221A604FF0FF3309E0084B1B68F9
:101EC800FB60074B1A687B681344054A1360FB687C
:101ED80018461837BD4680BD00C000200004000029
:101EE8008C020020E003002080B400AF00BFBD4694
:101EF80080BC7047FFF7F8FF0B480C490C4A0023D9
:101F080002E0D458C4500433C4188C42F9D3094AA7
:101F1800094C002301E013600432A242FBD302F013
:101F280053FAFEF7F9FE704700000020D8010020A0
:101F3800C88D0008D8010020E0030020FEE700005B
:101F480080B586B000AF78600023FB7500233B6145
:101F58000023BB600023FB607B68002B01D10123B9
:101F6800CEE07B689B68002B7B689B6A002B09D1BD
:101F78007B680022DA627B68002283F82420786874
:101F8800FFF742FE786800F0D7FB0346FB757B68D5
:101F98009B6A03F01003002B40F0A980FB7D002B07
:101FA80040F0A5807B689B6A23F4885323F00203E2
:101FB80043F002027B689A627B685A687B681B68F8
:101FC80051498B420AD17B68DB69B3F5402F02D0B7
:101FD8007B68DB6904E04FF4002301E07B68DB6980
:101FE8001A437B681B7B5B001343BA681343BB60CF
:101FF8007B689B68B3F5807F03D07B689B68012B67
:1020080002D14FF4807300E000233A6913433B6127
:102018007B681B7D012B19D17B681B7B002B09D1A9
:102028007B689B69013B5A033B69134343F4006394
:102038003B610BE07B689B6A43F020027B689A62F5
:102048007B68DB6A43F001027B68DA627B681B68A5
:102058005B6823F469417B681B683A690A435A60E4
:102068007B681B689A68294B13407A681268B968BC
:102078000B4393607B689B68B3F5807F03D07B68D4
:102088009B68012B04D17B681B69013B1B05FB6026
:102098007B681B68DB6A23F470017B681B68FA683D
:1020A8000A43DA627B681B689A68194B1340BA685E
:1020B8009A420BD17B680022DA627B689B6A23F024
:1020C800030343F001027B689A6218E07B689B6A0D
:1020D80023F0120343F010027B689A627B68DB6A84
:1020E80043F001027B68DA620123FB7507E07B6835
:1020F8009B6A43F010027B689A620123FB75FB7DA3
:1021080018461837BD4680BD003C0140FDF7E1FF89
:10211800FE0E1FFF80B584B000AF78600023FB730C
:102128007B6893F82430012B01D1022398E07B6867
:10213800012283F82420786800F0A4FA0346FB7390
:10214800FB7B002B40F087807B689B6A23F44073FD
:1021580023F0010343F480727B689A627B681B68F2
:10216800414A934205D1414B5B6803F47023002B2D
:1021780015D17B689B6A23F480127B689A627B681E
:102188001B685B6803F48063002B26D07B689B6A1E
:1021980023F4405343F480527B689A621DE07B68C5
:1021A8009B6A43F480127B689A627B681B682F4A9B
:1021B800934204D07B681B682B4A93420DD12B4B6A
:1021C8005B6803F48063002B07D07B689B6A23F469
:1021D800405343F480527B689A627B689B6A03F49D
:1021E8008053002B06D07B68DB6A23F006027B68ED
:1021F800DA6202E07B680022DA627B68002283F8F8
:1022080024207B681B686FF002021A607B681B68D9
:102218009B6803F46023B3F5602F13D17B681B68B8
:10222800114A934205D1114B5B6803F47023002BCC
:1022380008D17B681B689A687B681B6842F4A00217
:102248009A600CE07B681B689A687B681B6842F49C
:1022580080129A6003E07B68002283F82420FB7BCD
:1022680018461037BD4680BD0028014000240140B3
:1022780090B587B000AF7860396000237B61002398
:10228800FB6000233B6101F0D7FC78617B681B6829
:102298009B6803F48073002B0BD07B689B6A43F028
:1022A80020027B689A627B68002283F8242001233D
:1022B800D3E07B681B685B6803F48073002B31D123
:1022C8007B681B68DB6A03F47003002B2AD121E0CA
:1022D8003B68B3F1FF3F1DD03B68002B07D001F0EE
:1022E800ABFC02467B69D31A3A689A4212D27B68E1
:1022F8001B681B6803F00203002B0BD17B689B6AE9
:1023080043F004027B689A627B68002283F82420E9
:102318000323A2E07B681B681B6803F00203002B01
:10232800D6D070E04F4B1C68022000F075FD0346C4
:10233800B4FBF3F27B681B6819694B4B0B40002B0D
:1023480018D17B681B68D968484B0B40002B11D10A
:102358007B681B681969464B0B40002B08D17B68CA
:102368001B68D968434B0B40002B01D1142320E094
:1023780029231EE07B681B6819693D4B0B40002B25
:1023880006D17B681B68D9683A4B0B40002B0DD0EF
:102398007B681B681969384B0B40002B08D17B6898
:1023A8001B68D968344B0B40002B01D1542300E043
:1023B800FC2302FB03F33B6121E03B68B3F1FF3FE1
:1023C8001AD03B68002B07D001F036FC02467B6927
:1023D800D31A3A689A420FD2FB683A699A420BD9E3
:1023E8007B689B6A43F004027B689A627B680022E0
:1023F80083F82420032330E0FB680133FB60FB688B
:102408003A699A42D9D87B681B686FF012021A6041
:102418007B689B6A43F400727B689A627B681B68DE
:102428009B6803F46023B3F5602F15D17B681B7B91
:10243800002B11D17B689B6A23F480727B689A62B7
:102448007B689B6A03F48053002B05D17B689B6AE9
:1024580043F001027B689A62002318461C37BD4688
:1024680090BD00BF04000020244992242449920012
:1024780092244912922449004992240080B483B0DE
:1024880000AF78607B681B68DB6C18460C37BD466C
:1024980080BC704780B485B000AF78603960002395
:1024A800FB730023BB607B6893F82430012B01D1B8
:1024B8000223DCE07B68012283F824203B685B6808
:1024C800062B1CD87B681B68596B3B685A681346F7
:1024D8009B001344053B1F2202FA03F3DB43194018
:1024E8003B6818683B685A6813469B001344053BD1
:1024F80000FA03F27B681B680A435A633CE03B68B6
:102508005B680C2B1CD87B681B68196B3B685A6886
:1025180013469B001344233B1F2202FA03F3DB43B9
:1025280019403B6818683B685A6813469B00134477
:10253800233B00FA03F27B681B680A431A631BE01B
:102548007B681B68D96A3B685A6813469B0013442A
:10255800413B1F2202FA03F3DB4319403B6818682A
:102568003B685A6813469B001344413B00FA03F248
:102578007B681B680A43DA623B681B68092B1CD915
:102588007B681B68D9683B681A6813465B0013446C
:102598001E3B072202FA03F3DB4319403B689868A5
:1025A8003B681A6813465B0013441E3B00FA03F2AB
:1025B8007B681B680A43DA6019E07B681B68196945
:1025C8003B681A6813465B001344072202FA03F3B8
:1025D800DB4319403B6898683B681A6813465B0000
:1025E800134400FA03F27B681B680A431A613B68CC
:1025F8001B68102B03D03B681B68112B32D17B68FA
:102608001B681D4A934225D17B681B689B6803F4AD
:102618000003002B26D17B681B689A687B681B68BF
:1026280042F400029A603B681B68102B1AD1134BC6
:102638001B68134AA2FB03239A0C13469B001344FE
:102648005B00BB6002E0BB68013BBB60BB68002B62
:10265800F9D107E07B689B6A43F020027B689A62A5
:102668000123FB737B68002283F82420FB7B184638
:102678001437BD4680BC7047002401400400002088
:1026880083DE1B4380B584B000AF78600023FB6015
:102698000023BB607B681B689B6803F00103012B68
:1026A80040D07B681B689A687B681B6842F001020F
:1026B8009A601F4B1B681F4AA2FB03239B0CBB603D
:1026C80002E0BB68013BBB60BB68002BF9D101F09D
:1026D800B3FAF8601FE001F0AFFA0246FB68D31ABC
:1026E800022B18D97B681B689B6803F00103012B38
:1026F80011D07B689B6A43F010027B689A627B6802
:10270800DB6A43F001027B68DA627B68002283F8A7
:102718002420012307E07B681B689B6803F0010302
:10272800012BD8D1002318461037BD4680BD00BF05
:102738000400002083DE1B4380B584B000AF7860BE
:102748000023FB607B681B689B6803F00103012B77
:102758002ED17B681B689A687B681B6822F001028F
:102768009A6001F069FAF8601BE001F065FA024628
:10277800FB68D31A022B14D97B681B689B6803F08B
:102788000103012B0DD17B689B6A43F010027B6823
:102798009A627B68DB6A43F001027B68DA62012394
:1027A80007E07B681B689B6803F00103012BDCD002
:1027B800002318461037BD4680BD000080B485B0A0
:1027C80000AF78607B6803F00703FB600C4BDB68A5
:1027D800BB60BA684FF6FF031340BB60FB681A0280
:1027E800BB68134343F0BF6343F40033BB60044A40
:1027F800BB68D36000BF1437BD4680BC704700BFBC
:1028080000ED00E080B400AF044BDB681B0A03F066
:1028180007031846BD4680BC704700BF00ED00E0C6
:1028280080B483B000AF03463960FB7197F9073075
:10283800002B0ADB3B68DAB20C4997F90730120122
:10284800D2B20B4483F800230AE03B68DAB20849A5
:10285800FB7903F00F03043B1201D2B20B441A7642
:1028680000BF0C37BD4680BC704700BF00E100E0E8
:1028780000ED00E080B489B000AFF860B9607A601C
:10288800FB6803F00703FB61FB69C3F10703042B33
:1028980028BF0423BB61FB690433062B02D9FB69FB
:1028A800033B00E000237B614FF0FF32BB6902FA73
:1028B80003F3DA43BB681A407B699A404FF0FF3153
:1028C8007B6901FA03F3D9437B680B40134318462D
:1028D8002437BD4680BC704780B582B000AF7860B1
:1028E8007B68013BB3F1807F01D301230FE00A4AE3
:1028F8007B68013B53600F214FF0FF30FFF790FFDB
:10290800054B00229A60044B07221A6000231846E0
:102918000837BD4680BD00BF10E000E080B582B03A
:1029280000AF78607868FFF749FF00BF0837BD46F9
:1029380080BD80B586B000AF0346B9607A60FB738E
:1029480000237B61FFF75EFF78617A68B968786970
:10295800FFF790FF024697F90F3011461846FFF728
:102968005FFF00BF1837BD4680BD80B582B000AF9D
:1029780078607868FFF7B0FF034618460837BD4609
:1029880080BD000080B48BB000AF78603960002350
:102998007B6200233B6279E101227B6A02FA03F33E
:1029A800FB613B681B68FA691340BB61BA69FB6944
:1029B8009A4240F068813B685B68964A93425ED0D1
:1029C800944A934275D8944A934258D0924A934273
:1029D8006FD8924A934252D0904A934269D8904A0B
:1029E80093424CD08E4A934263D88E4A934246D043
:1029F8008C4A93425DD8122B2AD8122B59D801A29F
:102A080052F823F0872A0008612A0008732A000870
:102A1800B52A0008BB2A0008BB2A0008BB2A000800
:102A2800BB2A0008BB2A0008BB2A0008BB2A0008EA
:102A3800BB2A0008BB2A0008BB2A0008BB2A0008DA
:102A4800BB2A0008BB2A0008692A00087D2A00085A
:102A5800754A934213D02CE03B68DB683B6229E05F
:102A68003B68DB6804333B6224E03B68DB6808337F
:102A78003B621FE03B68DB680C333B621AE03B6853
:102A88009B68002B02D104233B6213E03B689B68E0
:102A9800012B05D108233B627B68FA691A6109E0BA
:102AA80008233B627B68FA695A6103E000233B62B2
:102AB80000E000BFBB69FF2B01D87B6801E07B68A1
:102AC80004337B61BB69FF2B02D87B6A9B0002E061
:102AD8007B6A083B9B003B617B691A680F213B6955
:102AE80001FA03F3DB431A40396A3B6901FA03F33D
:102AF8001A437B691A603B685B6803F08053002BBC
:102B080000F0C180494B9B69484A43F00103936137
:102B1800464B9B6903F00103BB60BB68444A7B6A70
:102B28009B08023352F82330FB607B6A03F00303EF
:102B38009B000F2202FA03F3DB43FA681340FB60A1
:102B48007B683C4A93421FD07B683B4A934219D02A
:102B58007B683A4A934213D07B68394A93420DD036
:102B68007B68384A934207D07B68374A934201D141
:102B780005230AE0062308E0042306E0032304E013
:102B8800022302E0012300E000237A6A02F0030234
:102B980092009340FA681343FB6025497B6A9B08BF
:102BA8000233FA6841F823203B685B6803F480131A
:102BB800002B06D0254B9A682449BB6913438B60C8
:102BC80006E0224B9A68BB69DB43204913408B60BF
:102BD8003B685B6803F40013002B06D01B4BDA68D4
:102BE8001A49BB691343CB6006E0184BDA68BB6926
:102BF800DB4316491340CB603B685B6803F4003342
:102C0800002B25D0114B5A681049BB6913434B6000
:102C180025E000BF00003210000031100000221033
:102C280000002110000012100000111000100240D6
:102C38000000014000080140000C01400010014064
:102C48000014014000180140001C0140000401402C
:102C5800154B5A68BB69DB43134913404B603B680B
:102C68005B6803F48033002B06D00F4B1A680E49BB
:102C7800BB6913430B6006E00B4B1A68BB69DB4367
:102C8800094913400B607B6A01337B623B681A6811
:102C98007B6A22FA03F3002B7FF47EAE00BF00BFED
:102CA8002C37BD4680BC70470004014080B586B013
:102CB80000AF786000233B610023FB607B681B68E2
:102CC80003F00103002B7DD00023FB754F4BDB691C
:102CD80003F08053002B0DD14C4BDB694B4A43F07A
:102CE8008053D361494BDB6903F08053BB60BB68F9
:102CF8000123FB75464B1B6803F48073002B18D126
:102D0800434B1B68424A43F48073136000F094FFFE
:102D1800386108E000F090FF02463B69D31A642B43
:102D280001D903236DE03A4B1B6803F48073002B31
:102D3800F0D0364B1B6A03F44073FB60FB68002B32
:102D48002ED07B685B6803F44073FA689A4227D0F8
:102D58002E4B1B6A23F44073FB602E4B01221A6032
:102D68002C4B00221A60294AFB681362FB6803F0A7
:102D78000103002B14D000F05FFF38610AE000F077
:102D88005BFF02463B69D31A41F28832934201D96C
:102D9800032336E01D4B1B6A03F00203002BEED021
:102DA8001A4B1B6A23F440727B685B68174913430C
:102DB8000B62FB7D012B05D1144BDB69134A23F011
:102DC8008053D3617B681B6803F00203002B08D093
:102DD8000E4B5B6823F440427B689B680B491343A6
:102DE8004B607B681B6803F01003002B08D0074B6F
:102DF8005B6823F480027B685B69044913434B607A
:102E0800002318461837BD4680BD00BF0010024099
:102E1800007000404004424280B588B000AF78603E
:102E280000237B610023FB6100233B610023FB60DF
:102E38000023BB617B68013B0F2B00F2AF8001A22E
:102E480052F823F0232F0008892F0008A52F000827
:102E5800132F0008A52F0008A52F0008A52F00088C
:102E68001B2F0008A52F0008A52F0008A52F000874
:102E7800A52F0008A52F0008A52F0008A52F0008DA
:102E88008D2E00084A4B5B68FB60494B1B6803F0BA
:102E98008073002B00F08480FB689B0C03F00F0309
:102EA800444AD35C3B61FB6803F48033002B15D0A4
:102EB8003F4B5B685B0C03F001033F4AD35C7B61CB
:102EC800FB6803F48033002B0DD03C4A7B69B2FBCE
:102ED800F3F23B6902FB03F3FB6104E03B69384A08
:102EE80002FB03F3FB61324B5B6803F48003B3F529
:102EF800800F02D1FB69BB6152E0FB695B00314A7C
:102F0800A2FB03235B08BB614AE000F0C9FBB86180
:102F180049E000F0C5FBB86145E0254B1B6AFB6042
:102F2800FB6803F44073B3F5807F08D1FB6803F0B6
:102F38000203002B03D04FF40043BB611FE0FB6882
:102F480003F44073B3F5007F09D1194B5B6A03F0B2
:102F58000203002B03D049F64043BB610FE0FB6836
:102F680003F44073B3F5407F1CD1114B1B6803F485
:102F78000033002B16D04FF22443BB6112E011E05E
:102F880000F000FC02460A4B5B689B0B03F003034E
:102F980001335B00B2FBF3F3BB6104E000BF02E066
:102FA80000BF00E000BFBB6918462037BD4680BDA2
:102FB80000100240DC890008EC89000800127A0041
:102FC80000093D00ABAAAAAA80B586B000AF786018
:102FD8007B68002B01D1012372E27B681B6803F038
:102FE8000103002B00F08780924B5B6803F00C0311
:102FF800042B0CD08F4B5B6803F00C03082B12D109
:103008008C4B5B6803F48033B3F5803F0BD1894B5D
:103018001B6803F40033002B6CD07B685B68002BC3
:1030280068D101234CE27B685B68B3F5803F06D129
:10303800804B1B687F4A43F4803313602EE07B6823
:103048005B68002B0CD17B4B1B687A4A23F48033D6
:103058001360784B1B68774A23F4802313601DE0C4
:103068007B685B68B3F5A02F0CD1724B1B68714A63
:1030780043F4802313606F4B1B686E4A43F480331C
:1030880013600BE06B4B1B686A4A23F480331360B0
:10309800684B1B68674A23F4802313607B685B686E
:1030A800002B13D000F0C8FD386108E000F0C4FD23
:1030B80002463B69D31A642B01D9032300E25D4B16
:1030C8001B6803F40033002BF0D014E000F0B4FDCB
:1030D800386108E000F0B0FD02463B69D31A642B62
:1030E80001D90323ECE1534B1B6803F40033002B95
:1030F800F0D100E000BF7B681B6803F00203002BDF
:1031080063D04C4B5B6803F00C03002B0BD0494B8E
:103118005B6803F00C03082B1CD1464B5B6803F477
:103128008033002B16D1434B1B6803F00203002B9E
:1031380005D07B681B69012B01D00123C0E13D4B01
:103148001B6823F0F8027B685B69DB00394913438D
:103158000B603AE07B681B69002B20D0364B0122BC
:103168001A6000F069FD386108E000F065FD02466C
:103178003B69D31A022B01D90323A1E12D4B1B680C
:1031880003F00203002BF0D02A4B1B6823F0F8024F
:103198007B685B69DB00274913430B6015E0264B0E
:1031A80000221A6000F048FD386108E000F044FD94
:1031B80002463B69D31A022B01D9032380E11D4B38
:1031C8001B6803F00203002BF0D17B681B6803F037
:1031D8000803002B3AD07B689B69002B19D0174B4A
:1031E80001221A6000F028FD386108E000F024FD93
:1031F80002463B69D31A022B01D9032360E10D4B28
:103208005B6A03F00203002BF0D0012000F0CEFA35
:103218001CE00A4B00221A6000F00EFD38610FE036
:1032280000F00AFD02463B69D31A022B08D9032392
:1032380046E100BF001002400000424280044242C2
:10324800924B5B6A03F00203002BE9D17B681B6891
:1032580003F00403002B00F0A6800023FB758B4BC2
:10326800DB6903F08053002B0DD1884BDB69874A5B
:1032780043F08053D361854BDB6903F08053BB6017
:10328800BB680123FB75824B1B6803F48073002B1A
:1032980018D17F4B1B687E4A43F48073136000F09B
:1032A800CBFC386108E000F0C7FC02463B69D31A42
:1032B800642B01D9032303E1754B1B6803F4807366
:1032C800002BF0D07B68DB68012B06D16F4B1B6AA3
:1032D8006E4A43F0010313622DE07B68DB68002B24
:1032E8000CD16A4B1B6A694A23F001031362674BCE
:1032F8001B6A664A23F0040313621CE07B68DB68E0
:10330800052B0CD1614B1B6A604A43F0040313621E
:103318005E4B1B6A5D4A43F0010313620BE05B4B93
:103328001B6A5A4A23F001031362584B1B6A574A17
:1033380023F0040313627B68DB68002B15D000F0D0
:103348007BFC38610AE000F077FC02463B69D31A3F
:1033580041F28832934201D90323B1E04B4B1B6AF7
:1033680003F00203002BEED014E000F065FC386196
:103378000AE000F061FC02463B69D31A41F2883248
:10338800934201D903239BE0404B1B6A03F00203DD
:10339800002BEED1FB7D012B05D13C4BDB693B4A71
:1033A80023F08053D3617B68DB69002B00F08780B2
:1033B800364B5B6803F00C03082B61D07B68DB6934
:1033C800022B46D1334B00221A6000F035FC3861DD
:1033D80008E000F031FC02463B69D31A022B01D900
:1033E80003236DE0294B1B6803F00073002BF0D119
:1033F8007B681B6AB3F5803F08D1244B5B6823F4D4
:1034080000327B689B68214913434B601F4B5B6804
:1034180023F474127B68196A7B685B6A0B431B4947
:1034280013434B601B4B01221A6000F005FC386106
:1034380008E000F001FC02463B69D31A022B01D9CF
:1034480003233DE0114B1B6803F00073002BF0D001
:1034580035E0104B00221A6000F0EEFB386108E0FE
:1034680000F0EAFB02463B69D31A022B01D9032379
:1034780026E0064B1B6803F00073002BF0D11EE01A
:103488007B68DB69012B07D1012319E0001002409A
:1034980000700040600042420B4B5B68FB60FB68B9
:1034A80003F480327B681B6A9A4206D1FB6803F4F6
:1034B80070127B685B6A9A4201D0012300E0002306
:1034C80018461837BD4680BD0010024080B584B04C
:1034D80000AF786039607B68002B01D10123D0E010
:1034E8006A4B1B6803F007033A689A4210D9674B86
:1034F8001B6823F0070265493B6813430B60634B65
:103508001B6803F007033A689A4201D00123B8E028
:103518007B681B6803F00203002B20D07B681B68C4
:1035280003F00403002B05D0594B5B68584A43F459
:10353800E06353607B681B6803F00803002B05D029
:10354800534B5B68524A43F460535360504B5B687B
:1035580023F0F0027B689B684D4913434B607B68FE
:103568001B6803F00103002B40D07B685B68012BCC
:1035780007D1474B1B6803F40033002B15D10123F7
:103588007FE07B685B68022B07D1414B1B6803F027
:103598000073002B09D1012373E03D4B1B6803F036
:1035A8000203002B01D101236BE0394B5B6823F048
:1035B80003027B685B68364913434B6000F03CFBB1
:1035C800F8600AE000F038FB0246FB68D31A41F2C3
:1035D8008832934201D9032353E02D4B5B6803F0F3
:1035E8000C027B685B689B009A42EBD1274B1B68F7
:1035F80003F007033A689A4210D2244B1B6823F061
:10360800070222493B6813430B60204B1B6803F0F9
:1036180007033A689A4201D0012332E07B681B68AD
:1036280003F00403002B08D0194B5B6823F4E06215
:103638007B68DB68164913434B607B681B6803F0A3
:103648000803002B09D0124B5B6823F460527B6897
:103658001B69DB000E4913434B6000F021F802465A
:103668000B4B5B681B0903F00F030A49CB5C22FA7A
:1036780003F3094A1360094B1B68184600F09AFACD
:10368800002318461037BD4680BD00BF0020024009
:1036980000100240C489000804000020080000202F
:1036A80080B487B000AF0023FB600023BB60002319
:1036B8007B6100237B6000233B611E4B5B68FB60E2
:1036C800FB6803F00C03042B02D0082B03D027E07F
:1036D800194B3B6127E0FB689B0C03F00F03174A6B
:1036E800D35C7B60FB6803F48033002B10D0114B54
:1036F8005B685B0C03F00103114AD35CBB607B6819
:103708000D4A03FB02F2BB68B2FBF3F37B6104E0F2
:103718007B680C4A02FB03F37B617B693B6102E037
:10372800054B3B6100BF3B6918461C37BD4680BC52
:10373800704700BF0010024000127A00F0890008AC
:10374800008A000800093D0080B400AF024B1B68E6
:103758001846BD4680BC70470400002080B500AF05
:10376800FFF7F2FF0246054B5B681B0A03F00703ED
:103778000349CB5C22FA03F3184680BD00100240CF
:10378800D489000880B500AFFFF7DEFF0246054B7D
:103798005B68DB0A03F007030349CB5C22FA03F3F7
:1037A800184680BD00100240D489000880B485B056
:1037B80000AF78600A4B1B680A4AA2FB03235B0A26
:1037C8007A6802FB03F3FB6000BFFB685A1EFA60CD
:1037D800002BF9D100BF00BF1437BD4680BC70472D
:1037E80004000020D34D621080B582B000AF78602D
:1037F8007B68002B01D1012342E07B6893F84130BC
:10380800DBB2002B06D17B68002283F84020786861
:10381800FEF736FA7B68242283F841207B681B6810
:10382800DA687B681B6822F40052DA60786800F076
:103838001DF97B681B681A697B681B6822F4904233
:103848001A617B681B685A697B681B6822F02A0228
:103858005A617B681B68DA687B681B6842F400520F
:10386800DA607B6800225A647B68202283F8412052
:103878007B68202283F842207B6800225A63002359
:1038880018460837BD4680BD80B58AB002AFF860DB
:10389800B9603B601346FB8000237B61FB6893F8AB
:1038A8004130DBB2202B6DD1BB68002B02D0FB88E6
:1038B800002B01D1012366E0FB6800225A64FB68F3
:1038C800212283F8412000F0B7F97861FB68FA8873
:1038D8009A84FB68FA88DA84FB689B68B3F5805F92
:1038E80008D1FB681B69002B04D10023FB61BB686E
:1038F800BB6103E0BB68FB610023BB612AE03B6856
:1039080000937B6900228021F86800F040F80346A4
:10391800002B01D0032336E0FB69002B0BD1BB69D8
:103928001B881A46FB681B68C2F308025A60BB6909
:103938000233BB6107E0FB691A78FB681B685A60B1
:10394800FB690133FB61FB68DB8C9BB2013B9AB2DC
:10395800FB68DA84FB68DB8C9BB2002BCFD13B6819
:1039680000937B6900224021F86800F010F80346B4
:10397800002B01D0032306E0FB68202283F84120B6
:10398800002300E0022318462037BD4680BD80B5DD
:1039980090B000AFF860B9603B601346FB7150E02F
:1039A800BB6CB3F1FF3F4CD0BB6C002B07D000F0D1
:1039B80043F902463B68D31ABA6C9A4241D2FB6873
:1039C8001B680C33BB62BB6A53E8003F7B627B6AAF
:1039D80023F4D073FB63FB681B680C33FA6B7A63C0
:1039E8003B63396B7A6B41E80023FB62FB6A002B6F
:1039F800E5D1FB681B6814337B617B6953E8003FA2
:103A08003B613B6923F00103BB63FB681B6814330C
:103A1800BA6B3A62FB61F9693A6A41E80023BB6113
:103A2800BB69002BE5D1FB68202283F84120FB68A5
:103A3800202283F84220FB68002283F840200323D9
:103A48000FE0FB681B681A68BB681340BA689A42A3
:103A58000CBF01230023DBB21A46FB799A429FD0A0
:103A6800002318464037BD4680BD000080B584B0AD
:103A780000AF78607B681B681B6923F440517B6842
:103A8800DA687B681B680A431A617B689A687B68F6
:103A98001B691A437B685B691343BB607B681B68BF
:103AA800DB6823F4B05323F00C037A681268B96812
:103AB8000B43D3607B681B685B6923F440717B68A8
:103AC8009A697B681B680A435A617B681B682C4AA1
:103AD800934203D1FFF756FEF86002E0FFF73EFE7F
:103AE800F860FA6813469B0013449A001A447B68EE
:103AF8005B689B00B2FBF3F3224AA2FB03235B093A
:103B08001901FA6813469B0013449A001A447B680B
:103B18005B689B00B2FBF3F21A4BA3FB02035B0941
:103B2800642000FB03F3D31A1B013233154AA2FBAE
:103B380003235B0903F0F0031944FA6813469B005A
:103B480013449A001A447B685B689B00B2FBF3F24B
:103B58000C4BA3FB02035B09642000FB03F3D31A9D
:103B68001B013233074AA2FB03235B0903F00F0250
:103B78007B681B680A449A6000BF1037BD4680BD49
:103B8800003801401F85EB5180B500AF084B1B681A
:103B9800074A43F0100313600320FEF7BFFE0F200F
:103BA80000F008F8FDF7FEFF0023184680BD00BFAF
:103BB8000020024080B582B000AF7860124B1A68CE
:103BC800124B1B7819464FF47A73B3FBF1F3B2FB2F
:103BD800F3F31846FEF7C9FE0346002B01D0012374
:103BE8000EE07B680F2B0AD8002279684FF0FF306F
:103BF800FEF79FFE064A7B681360002300E001235E
:103C080018460837BD4680BD040000200C0000207F
:103C18000800002080B400AF054B1B781A46054BFE
:103C28001B681344034A136000BFBD4680BC70473D
:103C38000C0000209002002080B400AF024B1B68EB
:103C48001846BD4680BC70479002002080B584B0FD
:103C580000AF7860FFF7F0FFB8607B68FB60FB6837
:103C6800B3F1FF3F05D00A4B1B781A46FB68134493
:103C7800FB6000BFFFF7E0FF0246BB68D31AFA6893
:103C88009A42F7D800BF00BF1037BD4680BD00BFBD
:103C98000C0000202DE9F04F87B003938B6817467E
:103CA8005A1EB2F5AE7F85BF6FF4AE755B1900235F
:103CB800029388BF40F25D138B464FF000058CBF1E
:103CC8008B6002930B68804643F4F0634BF81C3B0F
:103CD8000C465E46AA46A946CDE904550195A26858
:103CE80052B13B681B784E2B64D8402B3CD8A3F1CB
:103CF8002B01C8B20E283AD9B9F1000F03D02368B6
:103D080023F4807323600AF1FF3ABAF1010F00F23D
:103D180013815E4500F205810125284607B0BDE8FC
:103D2800F08FA3F161020D2AE6D801A151F822F023
:103D3800773E0008013D0008013D0008013D0008EC
:103D4800D73E0008AF3E0008013D0008013D0008CD
:103D5800853E0008013D0008013D0008013D0008BE
:103D6800013D00083D3E0008A3F14102DBE70E29B2
:103D7800C2D801A050F821F02F3E0008013D0008EC
:103D88002F3E0008C33E0008013D0008DD3D000845
:103D9800193E0008193E0008193E0008193E00089F
:103DA800193E0008193E0008193E0008193E00088F
:103DB800193E00086E2B09D8602BB2D8542B77D047
:103DC800592B99D1072D97D1082529E0742B6FD04D
:103DD800792BF6E72168C8051AD5029B21F08001E6
:103DE800216009F101091BB1013B01320293A26074
:103DF800A368013BA3602369013323617B68013B0E
:103E0800002B7B6040F384803B6801333B6066E7AE
:103E18001AEB050F7FF470AF226822F4C07222609B
:103E280006F8013BE4E7226810067FF565AF22F04B
:103E38008002F4E7BAF1000F0ED1B9F1000F0ED1EC
:103E4800226802F4E061B1F5E06F08D122F4F06273
:103E58004FF0010A2260E3E7BAF1020F55D0012DB5
:103E680002D0042D7FF448AF0135EDB2D8E7BAF19E
:103E7800010F7FF441AF4FF0020AD1E77DB9B9F1E4
:103E8800000F7FF43CAF226802F4E061B1F5E06F07
:103E98007FF439AF22F4F06201252260C0E7032DD8
:103EA800E2D0052DDEE7022D7FF426AF0325B7E724
:103EB800062D7FF421AF0725B2E7226891057FF52B
:103EC8001BAF22F420722260CDF80490A8E7226884
:103ED80002F4A061B1F5806F06D050057FF50CAFF4
:103EE800B9F1000F3FF40FAF910558BF019922F4C3
:103EF800F06258BFA9EB010142F4C0724FF000090B
:103F080058BFCDE9041622608AE74FF0030A87E715
:103F180039464046D4F88031984700283FF4DFAE50
:103F2800EAE6D4F87C313A46404616F8011D98472F
:103F38002369013B2361ECE66B1E062B25D8022D75
:103F480036D85E457FF6E8AED4F87C313A4640462E
:103F580016F8011D98472369013B2361F1E7029890
:103F6800D4F87C3110F8011D3A4602904046984733
:103F78002369013B23610AF1FF3A5FFA8AFABAF131
:103F8800020FECD1033DEDB2761B2368DA052FD57D
:103F98005B0510D55E457FF6BFAED4F87C313A4656
:103FA800404616F8011D98472369013B2361F1E754
:103FB800AA460296DFE716F8011C2369652903F172
:103FC800FF3306F1FF3523610CD045290AD0D4F818
:103FD8007C313A4640469847236916F8021C013B53
:103FE800B51E23613A464046D4F87C3198472E46A0
:103FF800256815F0100555D13570236803F4C063A2
:10400800B3F5806F1DD1019B4B45A3EB090225D168
:1040180000225946404601F00FF9039BD4F800C02E
:104028001B681CF0020F06460F4603F1040220D05D
:1040380003990A601B68C3E90067E3680133E3601A
:104048006BE6049B002BE3D005990A232A464046D9
:10405800013101F075F9049B059EC21A04F26F1331
:104068009E4228BF04F5B77630460F4900F0F4F8B1
:10407800CEE71CF0040FDBD1DDF80CC0CCF8002033
:10408800D3F8008002460B46FCF748FD28B10748E4
:1040980000F0C2F9C8F80000CFE730463946FCF70F
:1040A80053FDF7E7002538E6028A0008BF8D0008AF
:1040B800002310B50446C0E90033C0E90433836027
:1040C80081814366C2818361194608225C3000F011
:1040D80026F90D4B246263620C4BA3620C4BE3621E
:1040E8000C4B23630C4B9C4206D003F168029442AC
:1040F80002D0D0339C4205D104F15800BDE81040ED
:1041080000F086B910BD00BFA1420008C3420008F4
:10411800FB4200081F43000894020020024A03499A
:10412800034800F069B800BF10000020AD5C00082B
:104138001C00002041680C4B10B59942044601D080
:1041480001F0B0FDA168094B994202D0204601F068
:10415800A9FDE168064B994204D02046BDE810400D
:1041680001F0A0BD10BD00BF94020020FC02002099
:104178006403002010B50B4B0B4C0C4A20461A6008
:1041880004210022FFF794FF04F1680001220921AD
:10419800FFF78EFF04F1D0000222BDE81040122183
:1041A800FFF786BFCC0300209402002025410008B9
:1041B800014800F02EB900BFD5030020014800F0E7
:1041C80029B900BFD503002010B50446FFF7F0FF5A
:1041D800236A1BB1BDE81040FFF7F0BF044B236210
:1041E800044B1B68002BF5D1FFF7C4FFF2E700BFB3
:1041F8003D410008CC0300202DE9F84307468846D6
:1042080014460026D4E90195B9F1010905D52468B9
:10421800002CF7D13046BDE8F883AB89012B07D9CC
:10422800B5F90E30013303D029463846C047064356
:104238006835E9E70FB407B5064904AB086853F8D1
:10424800042B8168019301F0FDF903B05DF804EBDC
:1042580004B07047680000200EB46FF0004100B54C
:104268009CB01DAB0290069007910491084809493B
:1042780053F8042B0591006802A9019301F0BCF8DA
:104288000022029B1A701CB05DF804EB03B0704763
:10429800680000200802FFFF10B50C46B1F90E10A7
:1042A80000F068F80028ABBF636DA3891B1823F4DE
:1042B8008053ACBF6365A38110BD2DE9F0411F4653
:1042C8008B890546DB050C46164605D502230022D8
:1042D800B1F90E1000F03CF8A389324623F480535C
:1042E800A38128463B46B4F90E10BDE8F04100F022
:1042F80053B810B50C46B1F90E1000F029F8431C5C
:10430800A38915BF606523F4805343F48053A381C8
:1043180018BFA38110BDB1F90E1000F009B803460B
:104328000244934200D1704703F8011BF9E70000EB
:1043380038B50023054D044608462B60FDF76DFD92
:10434800431C02D12B6803B1236038BDD003002081
:1043580038B50446084611460022054D2A601A461B
:10436800FDF77FFD431C02D12B6803B1236038BDE4
:10437800D003002038B50446084611460022054DF2
:104388002A601A46FDF710FD431C02D12B6803B1C1
:10439800236038BDD003002038B5044608461146CE
:1043A8000022054D2A601A46FDF71BFD431C02D169
:1043B8002B6803B1236038BDD0030020014B186877
:1043C800704700BF6800002070B500260C4D0D4CEA
:1043D800641BA410A64209D102F0E8FE00260A4D8B
:1043E8000A4C641BA410A64205D170BD55F8043BC5
:1043F80098470136EEE755F8043B98470136F2E74F
:10440800C08D0008C08D0008C08D0008C48D00084C
:104418007047704770470000004870470000C07F31
:1044280038B50546002940D051F8043C0C1F002B34
:10443800B8BFE41800F0DCF81C4A136833B96360AD
:1044480014602846BDE8384000F0D8B8A34208D91F
:10445800206821188B4201BF19685B680918216020
:10446800EDE71A465B680BB1A342FAD911685018F8
:10447800A0420BD120680144501883421160E0D15A
:1044880018685B68084410605360DAE702D90C23A7
:104498002B60D6E7206821188B4201BF19685B683A
:1044A8000918216063605460CBE738BDD803002049
:1044B80070B50E4E0C463168054611B901F0DCFCAA
:1044C80030602146284601F0D7FC431C0AD0C41CA2
:1044D80024F00304A04207D0211A284601F0CCFC9E
:1044E800013001D14FF0FF34204670BDDC030020BD
:1044F8002DE9F843CD1C25F0030508350C2D38BFF0
:104508000C25002D074601DBA94205D90C230026FE
:104518003B603046BDE8F883DFF8D08000F068F8EB
:10452800D8F800301C465CBB29463846FFF7C0FF68
:10453800431C044655D1D8F800402646002E45D1E4
:10454800002C48D023683146384604EB030901F0B3
:1045580093FC81453FD1216838466D1A2946FFF7FB
:10456800A7FF013037D023682B442360D8F80030E8
:10457800002B38D05A68A2422BD100225A600FE093
:104588002268521B1FD40B2A17D96119A342256030
:1045980018BF5960636808BFC8F8001062514B60C3
:1045A800384604F10B0600F029F826F00706231D0B
:1045B800F21AAED09B1BA350ABE7A3426268DDD1D1
:1045C800C8F80020ECE723466468ACE73446766810
:1045D800B4E71346CCE70C2338463B6000F00EF8EE
:1045E80097E72560DCE75B60FFDE00BFD8030020AB
:1045F8000148FFF70EBF00BFD40300200148FFF7B2
:1046080009BF00BFD40300202DE9F0410F469046B2
:1046180002F03CFB04460D46B8F1000F11D0C7F379
:104628000A53C3F16B03002B0BDD00241B0503F1B8
:104638007F5505F5401522462B46FBF7D5FF044666
:104648000D4620462946BDE8F08100000000000024
:104658002DE9F04F9FB01792002204461A920D469A
:104668004FF000084FF000090A46199211782B29DB
:104678004AD038D80D2932D8082932D800293BD059
:1046880000220E92199E3278302A40F0B280727859
:1046980002F0DF02582A6ED102930E9B2046019346
:1046A8001AAB00938C4A1BAB19A901F07FFC10F0E0
:1046B8000F07054605D0062F28D100230136199685
:1046C8000E93179B002B40F0A0850E9BCBB1424662
:1046D80009F10043104619461FB0BDE8F08F2029A4
:1046E800CED10132C1E72D29CAD101210E91511C29
:1046F80019915278002AC5D1179B1995002B40F0C3
:10470800828542464B46E5E70021EFE71A9A3AB11F
:1047180035211CA802F0A6FB20461A9901F08AFF51
:10472800013F1B9A042F06D8DFE807F014031D2069
:104738001400DDE91C89E90548BF49F0004929F062
:1047480000431B0D1B05002BBBD1FFF737FE2223AF
:104758000360B6E702F23342DDE91C8323F48013D9
:1047680043EA0259E7E7DFF87491E4E76FF000499C
:104778004FF0FF38DFE7199B5A1C19925B78302BF2
:10478800F9D0002B9DD001234FF0000A0A22D3460E
:104798000593199BCDF828A00B9319980678A6F1D4
:1047A8003003D9B2092926D901224D4901F052FB1B
:1047B800002830D00020324603465E460890652A1D
:1047C80001D0452A13D11EB9059A024394D0002678
:1047D800199D6A1C19926A782B2A74D02D2A78D0D0
:1047E8004FF0000CA2F1300109297FD91995002753
:1047F8009EE00023C8E7BBF1080FD8BF0A9900F173
:104808000100D6BF02FB013302FB0A3A0A930BF1FF
:10481800010B1990C1E7199B5A1C19925A78BBF1E0
:10482800000F37D05E460890A2F13003092B12D949
:104838000123C4E7199B01305A1C19925A78302A6F
:10484800F8D0A2F13103082B00F2E484089000208C
:104858000646199B0B93303A00F1010314D00899CE
:1048680000EB060C1944089133460A21634513D11D
:104878003318082B06F1010606441ADC0A230A99A4
:1048880003FB01230A930023199A1846511C199116
:104898005278C9E75846D2E7082B03F1010303DC35
:1048A8000A9F4F430A97E1E7102BD8BF01FB0AFA8A
:1048B800DCE7102EDCBF0A2303FB0A2AE3E7002308
:1048C8000893012380E74FF0000CAA1C1992AA78DC
:1048D80088E74FF0010CF8E7188A00080000F07F1D
:1048E800078A0008199A511C19915278302AF9D070
:1048F800A2F1310108293FF67AAF303A0992199AA4
:104908000C92199A571C19975278A2F1300EBEF1E1
:10491800090F38D90C997F1A082F44F61F6703DC52
:1049280009998F42A8BF0F46BCF1000F00D07F4203
:10493800002E4FD1059901437FF4C3AE002B7FF4BD
:10494800DBAE692A29D026DC492A26D04E2A7FF4F4
:10495800D3AE9A4919A801F06BFD00283FF4CCAEFC
:10496800199B1B78282B2FD195491CAA19A801F04F
:1049780073FD052828D11D9BDDF8708043F0FF49A1
:1049880049F4E0099DE60A21099F01FB0721A1F1ED
:1049980030020992B5E76E2AD9E78A4919A801F0C9
:1049A80047FD00283FF4A8AE199B8749013B19A889
:1049B800199301F03DFD10B9199B013319934FF07C
:1049C8000008DFF808927CE6814801F081FA804609
:1049D800894676E6089BBBF1000F08BFB346FB1A71
:1049E800102E0A9835460993A8BF1025FBF75AFDE3
:1049F800092E8046894613DD764B03EBC50353E940
:104A08001223FBF7F1FD804650468946FBF74AFD25
:104A180002460B4640464946FBF708FC8046894655
:104A28000F2E36DC099B002B3FF44BAE22DD162BF4
:104A380009DC6849424601EBC3014B46D1E9000154
:104A4800FBF7D2FDC3E7099AC6F12503934220DBA1
:104A5800604CC6F10F0604EBC6014246D1E90001DD
:104A68004B46FBF7C1FD099B9E1B04EBC604D4E92A
:104A78000023E5E7099B16330BDB089B4046DF1B49
:104A8800544B494603EBC707D7E90023FBF7D6FE8B
:104A98009DE7099B751B1D44002D70DD15F00F0364
:104AA8000AD04C49424601EBC301D1E900014B460B
:104AB800FBF79AFD8046894635F00F054DD0B5F5D0
:104AC8009A7F22DD0026B3460B96089622234FF0E4
:104AD8000008DFF8F89023600B9B002B3FF4F1AD42
:104AE80020461A9901F0A6FD2046089901F0A2FD7A
:104AF8005946204601F09EFD20460B9901F09AFD8B
:104B08003146204601F096FDDBE5334B40460593E0
:104B1800002349469A462D11012D21DC0BB1804610
:104B280089462D49A9F1547901EBCA014246D1E9D8
:104B380000014B46FBF758FD244B0A460B4027491A
:104B480080468B42BED8A1F580118B4286BF4FF0BC
:104B5800FF38DFF88C9002F15479002305937BE04D
:104B6800EA0705D5059BD3E90023FBF73DFD0123A3
:104B7800059A0AF1010A08326D100592CCE7ECD0CB
:104B88006D4215F00F020AD0124B404603EBC203E8
:104B98004946D3E90023FBF751FE804689462D118B
:104BA800DBD01F2D1EDD0026B3460B960896222368
:104BB8004FF000084FF0000923608DE7128A0008C3
:104BC8002C8A0008098A00080C8A00080000F07F77
:104BD800BF8D0008B08C0008888C00080000A07CFD
:104BE800FFFFEF7F15F0100318BF6A2340460593B7
:104BF80049460023DFF8C8A2EA0704D5DAE900230A
:104C0800FBF7F2FC01236D100AF1080AF4D10BB18D
:104C180080468946059BBBB1C9F30A52C2F16B03B2
:104C2800002B494610DD1F2B40F32881342BD8BFB9
:104C38004FF0FF334FF00008CFBF4FF05C79C2F15F
:104C48004B02934003EA01090022002340464946EB
:104C5800FBF732FF0028A6D10A9B5A46009320464C
:104C680033460B9901F04EFD0B9000283FF42AAF14
:104C78000026099A089B002AA3EB0703A8BF002374
:104C8800B346129322EAE27316930B9B20465968A7
:104C980001F090FC089000283FF418AF0B9B0C30F3
:104CA8001A6903F10C010232920001F003F91CABFE
:104CB80001931BAB009342464B462046CDF830800B
:104CC800CDF83C9002F04AF81A9000283FF4FEAE66
:104CD8000121204601F0AEFD834600283FF4F6AEE0
:104CE8001B9F1C9A002FABBF129B169B07EB030A56
:104CF800DD1B059BA8BF169DA7EB03071744714B47
:104D080007F1FF37B8BFDDF848A09F42C2F136026D
:104D180080F2C780DB1B1F2B4FF00101A2EB0302BF
:104D280000F3B38001FA03F31393002310930AEB03
:104D38000207059BBA4515441D445346A8BF3B4688
:104D4800AB42A8BF2B46002BC2BFFF1AED1AAAEB35
:104D5800030A129B002B17DD59461A46204601F01C
:104D680027FE834600283FF4B1AE01461A9A204632
:104D780001F076FD0A9000283FF4A8AE20461A9963
:104D880001F058FC0A9B1A93002F00F38F80099BAF
:104D9800002B08DD2046169A089901F009FE0890B4
:104DA80000283FF493AE002D08DD2A4620460899D6
:104DB80001F058FE089000283FF488AEBAF1000FC1
:104DC80008DD59465246204601F04CFE834600282D
:104DD8003FF47CAE2046089A1A9901F0CBFE0646AD
:104DE80000283FF473AE0025C3685946C5600A938E
:104DF80001F0A4FEA8426BDA0A9B53EA080340F0CC
:104E08008F80C9F31303002B40F08A8029F00043F8
:104E18001B0D1B05B3F1D66F40F28280736913B97D
:104E28003369012B7CDD31460122204601F01AFE50
:104E38005946064601F082FE002871DD05994B4669
:104E4800214A002900F08D8002EA0901B1F1D66FEC
:104E580000F38780B1F15C7F7FF7A9AE40464946F1
:104E68001A4B0022FBF7C0FB174B80460B408946C4
:104E7800002B7FF435AE2223236031E64FF0FF325A
:104E880002FA03F303EA0808DEE6C7F17F4707F5ED
:104E98007F0707F57B47E23701FA07F31093139171
:104EA80045E7002310930123139340E73A46204631
:104EB8001A9901F0D7FD1A9000287FF468AF05E62B
:104EC800408A000802FCFFFF0000F07F0000503914
:104ED800CA4665D10A9AC9F3130352B39E4A93424C
:104EE8002AD1059B4146FBB19C4B4FF0FF3209EAA2
:104EF8000303B3F1D46F1AD81B0DC3F16B0302FA85
:104F080003F3994218D1964B9A4502D101313FF4E7
:104F1800DDAD4FF00008914B0AEA030303F5801951
:104F2800059B002B9AD1DBE54FF0FF33E9E71346E9
:104F3800E7E753EA080381D0109BE3B113EA0A0FAD
:104F4800EED00A9B40464946059AC3B1FFF75CFB81
:104F580002460B460C980F99FBF768F9804689467C
:104F6800DEE71340A3F580136FEA13594FF0FF38BB
:104F78006FEA0959D4E7139B13EA080FE0E7FFF734
:104F880043FB02460B460C980F99FBF74DF900229C
:104F9800002380468946FBF78FFD0028C0D006E62F
:104FA8005946304601F030FF02460B46CDE9102342
:104FB80000224FF08043FBF793FD00286FD00A9B37
:104FC800002B7CD1B8F1000F59D1C9F31303002B82
:104FD8007BD1DDE910010022624BFBF777FD002849
:104FE8005AD1DDE9100100225F4BFBF7FDFA0546B7
:104FF8000F4607F1004306950793DDE90623CDE93F
:105008001023564B554A0AEA03031393574B0AEAEF
:1050180002029A4240F0B080AAF1547940464946CB
:1050280001F034FEDDE90623FBF7DEFA42464B4683
:10503800FBF7FCF8DFF824A14D4A01EA0A0A924579
:10504800804648D90F9A464B9A4203D10C9B0133AC
:105058003FF43CAD4FF0FF38DFF8049120461A9931
:1050680001F0E8FA2046089901F0E4FA594620468A
:1050780001F0E0FA3146204601F0DCFA05E6B8F125
:10508800010F03D1B9F1000F3FF491AD0022394B64
:105098000A9DCDE9062316E00A9D334FA9E7324B56
:1050A8000022DDE91001FBF79FFA0A9B05460F462F
:1050B800002B9ED002460B46CDE906239DE7002231
:1050C800284BCDE90623274F97E70022294B454671
:1050D800CDE90623F7E701F15479059BCA46002B71
:1050E800BCD129F00043139A1B0D1B059A42B5D178
:1050F80028463946FBF778FDFBF720FA02460B46AF
:1051080028463946FBF790F80B460246C9F3130ABE
:10511800CDE90C230A9B4AEA080A5AEA030A6CD02A
:1051280009A3D3E90023FBF7D1FC00287FF4D8AC0E
:1051380007A3D3E90023DDE90C01FBF7E5FC002810
:105148008CD0CDE4AFF300809535A094FFFFDF3F0E
:1051580035E5AF350000E03FFFFF0F000000F07FAE
:10516800FFFFEF7F0000F03F0000E03F0000E07F1E
:10517800FFFF9F7C0000F0BF059B33B3139BB3F187
:10518800D46F22D828A3D3E9002328463946FBF751
:10519800A7FCA0B139462846FBF7FEF9012838BF1D
:1051A8000120FBF77FF90A9B05460F4603BB01F177
:1051B800004314901593DDE91423CDE91023119BC6
:1051C800139A03F1D6639B1A11930C980F99DDE992
:1051D800108901F05BFD02460B4640464946FBF745
:1051E80003FA0C9A0F9BFBF721F88046894674E76F
:1051F80002460B46CDE91423DDE70DA3D3E90023CE
:10520800FBF764FC9BE700230E93199B179A136026
:10521800FFF75BBA652A3FF452AB452A3FF44FAB20
:105228000123FFF787BB00BF0000C0FFFFFFDF417E
:105238009535A094FFFFCF3F014BFFF709BA00BF98
:105248006C000020012B2DE9F0478646904601D0DE
:10525800242B06D9FFF7B2F8162303600020BDE817
:10526800F0870D4635482A4615F8014B065D16F0BD
:105278000806F8D12D2C2ED101262C78951C002B50
:1052880057D0102B09D1302C07D12A7802F0DF0231
:10529800582A49D110236C780235002206F1004CB7
:1052A8000CF1FF3CBCFBF3F9104603FB19CAA4F14F
:1052B8003007092F14D83C46A34220DD571C07D0DD
:1052C800814519D301D1A24516DB012200FB034019
:1052D80015F8014BEBE72B2C04BF2C78951CCEE777
:1052E800A4F14107192F01D8373CE5E7A4F161077C
:1052F800192F04D8573CDFE74FF0FF32E8E7531C7B
:1053080008D122236046CEF80030B8F1000FA6D0AD
:10531800691E06E006B14042B8F1000F9FD0002A8E
:10532800F6D1C8F800109AE73024002BB5D108232D
:10533800B3E7302CA9D00A23AFE700BF698A000879
:10534800FFF780BF2DE9F0471F468E688246BE42B0
:105358000C4690460B682CD88A8912F4906F26D098
:105368006569096905EB4505A3EB010905EBD575E9
:105378007B1C4B446D109D4238BF1D46530527D5F5
:105388002946FFF7B5F8064660B34A46216900F09A
:1053980091FDA38923F4906343F08003A3812661E0
:1053A8004E4426603E466561A5EB0905A560BE42F0
:1053B80000D93E4632464146206800F031FD0020C3
:1053C800A3689B1BA360236833442360BDE8F08770
:1053D8002A4601F08BFD06460028E0D15046216997
:1053E800FFF71EF80C23CAF80030A3894FF0FF30EE
:1053F80043F04003A381E9E72DE9F04F98468B89F4
:1054080007461B060D4614469DB00ED50B6963B9B9
:105418004021FFF76DF82860286120B90C233B6014
:105428004FF0FF30D0E040236B6100230993202325
:105438008DF8293030234FF00109CDF80C80DFF8C2
:10544800A0818DF82A3023469A4613F8012B0AB119
:10545800252AF9D1BAEB040B0BD05B462246294624
:105468003846FFF76FFF013000F0A980099A5A44C7
:1054780009929AF80030002B00F0A18000234FF029
:10548800FF32CDE905230AF1010A049307938DF849
:1054980053301A935446052214F8011B504800F063
:1054A800FBFC049AD8B9D00644BF20238DF85330AA
:1054B800110744BF2B238DF853309AF800302A2B5C
:1054C80015D0544600204FF00A0C079A214611F8CF
:1054D800013B303B092B4DD9B0B1079214E0A0EB4A
:1054E800080309FA03F31343A2460493D2E7039B84
:1054F800191D1B680391002BBBBF5B4242F00202DF
:1055080007930793B8BF049223782E2B0CD16378A6
:105518002A2B34D1039B02341A1D1B680392002BDB
:10552800B8BF4FF0FF330593DFF8B8A00322504609
:10553800217800F0B1FC38B14022049BA0EB0A00AE
:10554800824013430134049314F8011B06222648B1
:105558008DF8281000F0A0FC002838D0234B1BBB86
:10556800039B073323F0070308330393099B334452
:10557800099368E70C4601200CFB0232A6E70023DA
:105588004FF00A0C194601340593204610F8012BF8
:10559800303A092A03D9002BC6D00591C4E704463E
:1055A80001230CFB0121F0E703AB00932A463846A0
:1055B8000F4B04A9AFF30080421C0646D6D1AB8935
:1055C8005B063FF52DAF09981DB0BDE8F08F03AB22
:1055D80000932A463846064B04A900F0BFF9EBE7CA
:1055E800698B00086F8B0008738B000800000000AF
:1055F8004D530008936810B4013B002B936007DA01
:105608009469A34201DB0A2902D110BC00F072BBE5
:105618001368581C10601970084610BC7047F8B51C
:1056280006460F461446D518AC4201D1002007E0C3
:105638003A46304614F8011BFFF7DCFF431CF3D150
:10564800F8BD00002DE9F04F0D4614469846064671
:105658009DB018B1036A0BB9FEF7B6FD6B6ED9079A
:1056680005D4AB899A0502D4A86DFEF7D2FEAB89A2
:105678001B0701D52B699BB92946304600F078FBFA
:1056880070B16B6EDC0704D54FF0FF301DB0BDE87C
:10569800F08FAB899805F7D4A86DFEF7BBFEF3E74A
:1056A8000023099320238DF8293030234FF0010976
:1056B800CDF80C80DFF8AC818DF82A3023469A4665
:1056C80013F8012B0AB1252AF9D1BAEB040B0BD038
:1056D8005B46224629463046FFF7A1FF013000F01D
:1056E800A980099A5A4409929AF80030002B00F0D0
:1056F800A18000234FF0FF32CDE905230AF1010A0A
:10570800049307938DF853301A935446052214F8DE
:10571800011B544800F0C0FB049AD8B9D10644BF15
:1057280020238DF85330130744BF2B238DF85330B3
:105738009AF800302A2B15D0544600204FF00A0C56
:10574800079A214611F8013B303B092B4DD9B0B1DE
:10575800079214E0A0EB080309FA03F31343A246E7
:105768000493D2E7039B191D1B680391002BBBBF51
:105778005B4242F0020207930793B8BF0492237872
:105788002E2B0CD163782A2B34D1039B02341A1D9B
:105798001B680392002BB8BF4FF0FF330593DFF867
:1057A800C8A003225046217800F076FB38B1402289
:1057B800049BA0EB0A00824013430134049314F8BD
:1057C800011B062229488DF8281000F065FB0028E7
:1057D8003FD0274B1BBB039B073323F0070308333A
:1057E8000393099B3B44099368E70C4601200CFB93
:1057F8000232A6E700234FF00A0C1946013405933C
:10580800204610F8012B303A092A03D9002BC6D0BC
:105818000591C4E7044601230CFB0121F0E703AB23
:1058280000932A463046134B04A9AFF3008007467D
:10583800781CD6D16B6ED90705D4AB899A0502D4EA
:10584800A86DFEF7E7FDAB895B063FF51DAF09982C
:105858001CE703AB00932A463046064B04A900F028
:105868007DF8E4E7698B00086F8B0008738B0008EC
:1058780000000000275600082DE9F0471646994613
:105888008A680B6907469342B8BF1346336091F89C
:1058980043200C46DDF820800AB1013333602368C9
:1058A800990642BF336802333360256815F0060550
:1058B80006D104F1190AE36832689B1AAB422BDC63
:1058C80094F84320131E226818BF0123920630D48F
:1058D8004946384604F14302C047013023D02368C3
:1058E800226903F00603042B14BF002533684FF028
:1058F800000608BFE56804F11A0408BFED1A54F859
:10590800123C08BF25EAE5759342C4BF9B1AED18FF
:10591800B5421AD1002008E00123524649463846CC
:10592800C047013003D14FF0FF30BDE8F0870135A3
:10593800C1E73020E11881F843005A1C94F845105B
:105948002244023382F84310C2E701232246494623
:105958003846C0470130E6D00136D9E72DE9FF4780
:105968000F7E9146782F80460C469A460C9D01F191
:10597800430207D8622F0AD8002F00F0D580582F8D
:1059880000F0C18004F1420584F842703AE0A7F1C2
:105998006303152BF6D801A151F823F0FD5900082F
:1059A800115A00088D5900088D5900088D590008B2
:1059B8008D590008115A00088D5900088D590008A2
:1059C8008D5900088D590008175B00083D5A0008DA
:1059D800D15A00088D5900088D590008395B000814
:1059E8008D5900083D5A00088D5900088D59000846
:1059F800D95A00082B681A1D1B682A6004F1420551
:105A080084F842300123A0E020682B68070603F1E0
:105A18000401296001D51E6803E04606FBD5B3F9E9
:105A28000060002E03DA2D23764284F843300A23DF
:105A3800594812E02B682068191D2960050601D510
:105A48001E6802E04106FBD51E886F2F0CBF082395
:105A58000A235148002184F843106568002DA8BF27
:105A68002168A560A4BF21F0040121600EB9002DB2
:105A78004BD01546B6FBF3F103FB1167C75D05F87C
:105A8800017D3746BB420E46F4D9082B0BD123685B
:105A9800DE0708D5236961689942DEBF302305F81F
:105AA800013C05F1FF35521B22614B462146404619
:105AB800CDF800A003AAFFF7DFFE01304AD14FF06E
:105AC800FF3004B0BDE8F087236843F0200323606B
