:020000040800F2
:1000000000C0002065500008C14F0008C34F000821
:10001000C54F0008C74F0008C94F00080000000086
:10002000000000000000000000000000CB4F0008AE
:10003000CD4F000800000000CF4F0008D14F00084E
:10004000AD500008AD500008AD500008AD5000089C
:10005000AD500008AD500008AD500008AD5000088C
:10006000AD500008AD500008AD500008AD5000087C
:10007000AD500008AD500008D54F0008E14F000812
:10008000AD500008AD500008AD500008AD5000085C
:10009000AD500008AD500008AD500008AD5000084C
:1000A000AD500008AD500008AD500008AD5000083C
:1000B000AD500008AD500008AD500008AD5000082C
:1000C000AD500008AD500008AD500008AD5000081C
:1000D000AD500008ED4F0008AD500008AD500008CD
:1000E000AD500008AD500008AD500008AD500008FC
:1000F000AD500008AD500008AD500008AD500008EC
:10010000AD500008AD500008AD500008AD500008DB
:10011000AD500008AD500008AD500008AD500008CB
:10012000AD500008AD500008AD500008AD500008BB
:1001300000000000000000000000000000000000BF
:1001400000000000000000000000000000000000AF
:10015000000000000000000000000000000000009F
:10016000000000000000000000000000000000008F
:10017000000000000000000000000000000000007F
:10018000000000000000000000000000000000006F
:10019000000000000000000000000000000000005F
:1001A000000000000000000000000000000000004F
:1001B000000000000000000000000000000000003F
:1001C000000000000000000000000000000000002F
:1001D000000000000000000000000000000000001F
:0401E0005FF8E0F1F3
:1001E80010B5054C237833B9044B13B10448AFF369
:1001F80000800123237010BD1000002000000000C3
:100208001C66000808B5034B1BB103490348AFF34C
:10021800008008BD00000000140000201C660008D3
:1002280070B54FF0FF0C4CF4E06C1CEA11541DBF84
:100238001CEA135594EA0C0F95EA0C0F00F0DEF84F
:100248002C4481EA030621EA4C5123EA4C5350EA34
:10025800013518BF52EA033541F4801143F4801385
:1002680038D0A0FB02CE4FF00005E1FB02E506F016
:100278000042E0FB03E54FF00006E1FB03569CF06B
:10028800000F18BF4EF0010EA4F1FF04B6F5007F71
:1002980064F5407404D25FEA4E0E6D4146EB0606E3
:1002A80042EAC62141EA55514FEAC52040EA5E506C
:1002B8004FEACE2EB4F1FD0C88BFBCF5E06F1ED816
:1002C800BEF1004F08BF5FEA500E50F1000041EB4D
:1002D800045170BD06F0004646EA010140EA0200FA
:1002E80081EA0301B4EB5C04C2BFD4EB0C0541EA1C
:1002F800045170BD41F480114FF0000E013C00F331
:10030800AB8014F1360FDEBF002001F0004170BD54
:10031800C4F10004203C35DA0C341BDC04F114046D
:10032800C4F1200500FA05F320FA04F001FA05F2F9
:1003380040EA020001F0004221F0004110EBD370C6
:1003480021FA04F642EB06015EEA430E08BF20EAF2
:10035800D37070BDC4F10C04C4F1200500FA04F395
:1003680020FA05F001FA04F240EA020001F0004127
:1003780010EBD37041F100015EEA430E08BF20EA9A
:10038800D37070BDC4F1200500FA05F24EEA020EE2
:1003980020FA04F301FA05F243EA020321FA04F011
:1003A80001F0004121FA04F220EA020000EBD370C8
:1003B8005EEA430E08BF20EAD37070BD94F0000FC8
:1003C8000FD101F00046400041EB010111F4801FFC
:1003D80008BF013CF7D041EA060195F0000F18BFAD
:1003E800704703F00046520043EB030313F4801FE9
:1003F80008BF013DF7D043EA0603704794EA0C0FA3
:100408000CEA135518BF95EA0C0F0CD050EA4106B8
:1004180018BF52EA4306D1D181EA030101F0004135
:100428004FF0000070BD50EA410606BF104619465D
:1004380052EA430619D094EA0C0F02D150EA013669
:1004480013D195EA0C0F05D152EA03361CBF1046AA
:1004580019460AD181EA030101F0004141F0FE4149
:1004680041F470014FF0000070BD41F0FE4141F4CD
:10047800780170BD81F0004102E000BF83F00043C5
:1004880030B54FEA41044FEA430594EA050F08BF27
:1004980090EA020F1FBF54EA000C55EA020C7FEAEB
:1004A800645C7FEA655C00F0E2804FEA5454D4EB68
:1004B8005555B8BF6D420CDD2C4480EA020281EA32
:1004C800030382EA000083EA010180EA020281EA6A
:1004D8000303362D88BF30BD11F0004F4FEA0131BC
:1004E8004FF4801C4CEA113102D0404261EB4101CB
:1004F80013F0004F4FEA03334CEA133302D0524251
:1005080063EB430394EA050F00F0A780A4F101040C
:10051800D5F1200E0DDB02FA0EFC22FA05F2801846
:1005280041F1000103FA0EF2801843FA05F359412C
:100538000EE0A5F120050EF1200E012A03FA0EFCAB
:1005480028BF4CF0020C43FA05F3C01851EBE371D5
:1005580001F0004507D54FF0000EDCF1000C7EEBF2
:1005680000006EEB0101B1F5801F1BD3B1F5001F30
:100578000CD349085FEA30004FEA3C0C04F101044F
:100588004FEA445212F5800F80F09A80BCF1004F78
:1005980008BF5FEA500C50F1000041EB045141EAFA
:1005A800050130BD5FEA4C0C404141EB0101013CC3
:1005B80028BFB1F5801FE9D291F0000F04BF0146B2
:1005C8000020B1FA81F308BF2033A3F10B03B3F184
:1005D80020020CDA0C3208DD02F1140CC2F10C0214
:1005E80001FA0CF021FA02F10CE002F11402D8BF72
:1005F800C2F1200C01FA02F120FA0CFCDCBF41EA3E
:100608000C019040E41AA2BF01EB0451294330BD0C
:100618006FEA04041F3C1CDA0C340EDC04F11404E9
:10062800C4F1200220FA04F001FA02F340EA0300C0
:1006380021FA04F345EA030130BDC4F10C04C4F106
:10064800200220FA02F001FA04F340EA03002946E6
:1006580030BD21FA04F0294630BD94F0000F83F430
:10066800801306BF81F480110134013D4EE77FEA13
:10067800645C18BF7FEA655C29D094EA050F08BF5F
:1006880090EA020F05D054EA000C04BF1946104640
:1006980030BD91EA030F1EBF0021002030BD5FEA84
:1006A800545C05D14000494128BF41F0004130BDAC
:1006B80014F580043CBF01F5801130BD01F0004500
:1006C80045F0FE4141F470014FF0000030BD7FEA73
:1006D800645C1ABF194610467FEA655C1CBF0B466E
:1006E800024650EA013406BF52EA033591EA030F85
:1006F80041F4002130BD00BF90F0000F04BF00217D
:10070800704730B54FF4806404F132044FF00005AF
:100718004FF0000150E700BF90F0000F04BF002128
:10072800704730B54FF4806404F1320410F000458E
:1007380048BF40424FF000013EE700BF42004FEA89
:10074800E2014FEA31014FEA02701FBF12F07F4306
:1007580093F07F4F81F06051704732F07F4208BFBD
:10076800704793F07F4F04BF41F40021704730B5C4
:100778004FF4607401F0004521F000411CE700BF10
:1007880050EA010208BF704730B54FF000050AE093
:1007980050EA010208BF704730B511F0004502D594
:1007A800404261EB41014FF4806404F132045FEA96
:1007B800915C3FF4D8AE4FF003025FEADC0C18BF3F
:1007C80003325FEADC0C18BF033202EBDC02C2F131
:1007D800200300FA03FC20FA02F001FA03FE40EAC3
:1007E8000E0021FA02F11444BDE600BF4A0011D2FE
:1007F80012F5001211D20DD56FF47873B3EB625273
:100808000ED44FEAC12343F0004343EA505323FA7E
:1008180002F070474FF00000704750EA013002D1F3
:100828004FF0FF3070474FF0000070474FF4807270
:10083800054B06495A614FF400725A61C86080211D
:10084800596119611A61704700100140000C01409C
:1008580038B54FF08833134C134D23606360002381
:10086800E3604FF480732B614FF400736B61402396
:100878006B610E4B9A8848F689139A4202D101207F
:1008880005F08AFE4023A0682B614FF400732B61AA
:100898004FF03333236063604FF6FF7380B2E36039
:1008A80038BD00BF000C0140001001402E000020A0
:1008B80010B50C46FFF7BAFF4FF48072054B064996
:1008C8001A614FF400725A61CC6080215961196134
:1008D8001A6110BD00100140000C014008B5FFF777
:1008E800A5FFBDE80840FFF7B3BF0000014B18891A
:1008F800FFF79CBF2E0000204FF48072054B06497D
:100908001A614FF400725A61C860802159611961F7
:100918001A61704700100140000C014049F2413251
:100928002DE9F84FDFF83C920546B9F804300E4639
:100938009342B9F80A00B9F80C8003D045F2103296
:1009480093423AD14FF400774FF080094FF4807BFF
:10095800854CDFF818A2FFF769FF2B0AEDB2C4F83F
:1009680010B040466761CAF80C30C4F81490C4F857
:1009780010902761C4F810B06761CAF80C50C4F829
:100988001490C4F810902761FFF750FF330AC4F899
:1009980010B06761CAF80C30C4F81490C4F810900D
:1009A8002761F6B2C4F810B06761CAF80C60C4F8E1
:1009B8001490C4F81090276169E046F60402934247
:1009C8000AD199F80630012B01BFB9F8003003F1BC
:1009D800FF335B1B9DB2B5E741F66312934272D1B8
:1009E800B9F8007099F806A05F4C013FBAF1000F02
:1009F8004FD1FFF71BFF4FF4007380224FF4807034
:100A08005A497F1BBFB220613D0A6361C1F80CA03F
:100A180062612261236120616361C1F80CA0626197
:100A28002261236120616361FFB2CD60626122614E
:100A38002361206163614046CF6062612261236166
:100A4800FFF7F4FE4FF480754FF400734748320AFD
:100A580025616361C2608022B9F80210F6B20139DB
:100A680062612261236125616361C6600E12C9B2A9
:100A780062612261236125616361C66062612261EE
:100A8800236125616361C160626122612361BDE800
:100A9800F88FFFF7CBFE4FF400734FF480703349A3
:100AA8002A0A20616361CA608022EDB26261226114
:100AB800236120616361CD6062613D12226123611F
:100AC80020616361B0E745F21052934237D14FF489
:100AD80000774FF080094FF4807B234CDFF88CA01F
:100AE800FFF7A4FE2B0A0130C4F810B080B267618A
:100AF800CAF80C30C4F81490C4F810902761FFF7B6
:100B080095FE4046EDB2C4F810B06761CAF80C50C3
:100B1800C4F81490C4F810902761FFF787FE330AD1
:100B28000130C4F810B080B26761CAF80C30C4F85C
:100B38001490C4F810902761FFF778FE31E799F810
:100B48000630012B01BFB9F8003003F1FF335B1BFE
:100B58009DB22946FFF7ACFE31464046BDE8F84F46
:100B6800FFF7A6BE2E00002000100140000C014037
:100B78002DE9F74FA84D41F66313AA79AE88012AEB
:100B880025D146F60402964201D09E4222D1013870
:100B9800C0B2062896BFA14B00271F5C45F2105330
:100BA8009E4240F025814FF458503946FFF780FEA9
:100BB80041F663118E422B886A88994C00F0C080F8
:100BC800B9062ED593422ED22A806B802BE02AB903
:100BD8009E4203D107289CBF924B185C49F24133CF
:100BE8009E42D4D046F604039E42D0D045F210333C
:100BF8009E42CCD045F210539E42C8D041F66313B2
:100C08009E42C4D0072896BF874B0021195C032059
:100C180041F4805103B0BDE8F04FFFF749BE1F46CD
:100C2800F7E09342D0D845F210539E42B5F80090B1
:100C38006F88B5F80AA0B5F80C8040F0818009F1FA
:100C4800FF334FF480764FF080094FF0000B01938B
:100C58007B1E4FF40077754D50460093FFF7E6FD75
:100C68000AF10100266180B26761C5F80CB0C4F8CA
:100C78001490C4F810902761FFF7D8FD0AF102001C
:100C8800266180B26761C5F80CB0C4F81490C4F846
:100C980010902761FFF7CAFD019B0AF103001912A2
:100CA800266180B26761E960C4F81490C4F81090B6
:100CB8002761FFF7BBFD9DF8041026614046676178
:100CC800E960C4F81490C4F810902761FFF7AEFDEE
:100CD80008F10100266180B26761C5F80CB0C4F85C
:100CE8001490C4F810902761FFF7A0FD08F10200E6
:100CF800266180B26761C5F80CB0C4F81490C4F8D6
:100D080010902761FFF792FD009B08F1030019126C
:100D1800266180B26761E960C4F81490C4F8109045
:100D28002761FFF783FD9DF8003026616761EB605E
:100D3800C4F81490C4F81090276103B0BDE8F08F90
:100D48004FF4007680274FF480794FF0000A6889C5
:100D5800FFF76CFD2B88DFF8D480013B1A12DBB259
:100D6800C4F81090A8896661C8F80CA0676127616B
:100D78002661C4F810906661C8F80CA06761276105
:100D88002661C4F810906661C8F80C206761276175
:100D98002661C4F810906661C8F80C306761276155
:100DA8002661FFF743FD6B88C4F81090013B1A12C7
:100DB800DBB26661C8F80CA0676127612661C4F8D8
:100DC80010906661C8F80CA0676127612661C4F8B5
:100DD80010906661C8F80C20676127612661C4F825
:100DE80010906661C8F80C30676127612661A4E736
:100DF80045F210339E420CD041F663139E4208D050
:100E080046F60402964247F008037FF408AF47F01D
:100E18000A073620C9E600BF2E0000203C660008FD
:100E2800001001403466000843660008000C0140C9
:100E38002DE9F74F019249F24132DFF890820546D9
:100E4800B8F804300E469342B8F80A00B8F80CB067
:100E58009F4C03D045F21032934236D1FFF7E6FC9F
:100E68004FF400774FF0800A4FF48072DFF86492F5
:100E7800290AEDB2226158466761C9F80C10C4F816
:100E880014A0C4F810A0276122616761C9F80C504A
:100E9800C4F814A0C4F810A02761FFF7C7FC4FF4EA
:100EA8008072310AF6B222616761C9F80C10C4F881
:100EB80014A0C4F810A0276122616761C9F80C600A
:100EC800C4F814A0C4F810A0B1E045F2105293423F
:100ED80057D1FFF7ABFC4FF4007980274FF48073AC
:100EE800DFF8F0A12A0A0130236180B2C4F8149017
:100EF800CAF80C2067612761C4F81090FFF796FCC8
:100F08004FF480735846EDB22361C4F81490CAF8C0
:100F18000C504FF4807567612761C4F81090FFF793
:100F280085FC310A0130256180B2C4F81490F6B20C
:100F3800CAF80C1067612761C4F81090FFF776FCB7
:100F48002561C4F81490CAF80C6067612761C4F879
:100F580010904FF400734FF48070B8F808205D4982
:100F680060616361CA6080226261226123612061DD
:100F780001986361C86062612261236103B0BDE8C2
:100F8800F08F41F663118B4298F8062051D122B9AF
:100F9800B8F80030013B5B1B9DB2FFF747FC4FF4EC
:100FA800007780234FF48072DFF828A1290AEDB278
:100FB800226158466761CAF80C1063612361276192
:100FC80022616761CAF80C5063612361276122615D
:100FD8006761CAF80C106361236127612261676148
:100FE800CAF80C50636123612761FFF71FFC802357
:100FF8004FF48072310AF6B222616761CAF80C10A8
:1010080063612361276122616761CAF80C606361CB
:101018002361276122616761CAF80C10636123614B
:10102800276122616761CAF80C60636123612761E7
:101038008FE746F604018B4238D1012A08BFB8F879
:1010480000304FF4007704BF03F1FF335B1B4FF010
:10105800800A08BF9DB2FFF7E9FB4FF480721D4B71
:10106800290AEDB2226158466761D960C4F814A014
:10107800C4F810A0276122616761DD60C4F814A07C
:10108800C4F810A02761FFF7D1FB4FF48072114B11
:10109800310AF6B222616761D960C4F814A0C4F8B5
:1010A80010A0276122616761DE6009E7012A01BF9C
:1010B800B8F8003003F1FF335B1B9DB22946FFF7F8
:1010C800F7FB31465846FFF7F3FB42E72E000020B6
:1010D80000100140000C01402DE9F8438146BE2074
:1010E800FFF7A4FB4FF4007580264FF480780523A2
:1010F8001F4C204FC4F8108048466561FB6066614C
:1011080026612561C4F810806561FFF705FB16A309
:10111800D3E90023FFF784F8FFF768FB0123F860A1
:10112800666126612561C4F810806561FB60FF2354
:10113800666126612561C4F810806561FB60002343
:10114800666126612561C4F810806561FB6066618F
:1011580026612561C4F810806561FB6066612661BF
:101168002561BDE8F88300BF66666666666604406A
:1011780000100140000C01404E4B4FF4A0719A88BA
:1011880000284AD1598049F241319871F0208A42A9
:10119800188007D046F604018A4203D045F2103180
:1011A8008A4213D12C2119812A2159812B21998115
:1011B80046F604018A4203D045F210318A4229D109
:1011C8004FF4A0721A804FF4F07211E045F21051FA
:1011D8008A420FD14FF430521A814FF428525A8163
:1011E8004FF42C529A814FF4F0721A804FF44872DF
:1011F8005A800FE041F663118A4205D12C221A81E8
:101208002B225A812A22EDE722221A8120225A8192
:1012180021229A810020FFF7ABBC1980F021598068
:1012280049F2413101208A42987103D045F21031C8
:101238008A420FD12C2119812A2159812B21998188
:1012480046F604018A4230D14FF4F0721A804FF406
:10125800A072CDE746F604018A4206D12C221A81F3
:101268002B225A812A229A81EEE745F210518A42AE
:101278000BD14FF430521A814FF428525A814FF44F
:101288002C529A814FF448729CE741F663118A42C6
:1012980005D12C221A812A225A812B22F1E72222F7
:1012A8001A8121225A812022B3E745F210318A425D
:1012B800CAD0AFE72E0000202DE9F8431C4C0646A3
:1012C80023886588A2885D4346F604039A424FF056
:1012D800000121D194F80690B9F1010F1CD12A27F9
:1012E8004FF02B080846A1716781A4F80C80FFF71E
:1012F80015FB84F80690A4F80A80A781FFF7F6FA90
:101308004FF4807400224FF400718020094B0A4F7B
:10131800AA4205D1BDE8F8830846FFF7FFFAEDE7D2
:101328001C6101325961FE60586118611961EFE76B
:101338002E00002000100140000C01404F4B2DE909
:10134800F04F9A6987B042F008029A619A690124BD
:1013580002F008020092009A9A69494842F0100285
:101368009A619B6902A903F010030193019B4FF452
:10137800F863CDE9023403230494059304F07CF95F
:101388004FF6FF7302A93F48029304F075F9322023
:1013980005F002F921460020FFF78AFA322005F00D
:1013A800FBF80020FFF79AFAA0F1FF03364C9BB236
:1013B800B3F57F4FA08002D2B0F5134F7ED1D32072
:1013C800FFF734FAFFF744FAFFF742FAFFF740FA5B
:1013D8000002A080FFF73CFAA388184349F2413382
:1013E80080B29842A08069D0BF20FFF71FFAFFF7AC
:1013F8002FFAFFF72DFAFFF72BFAFFF729FA000269
:10140800A080FFF725FAA388184346F6040380B2A4
:101418009842A08052D0D420FFF708FAFFF718FAB4
:10142800FFF716FAFFF714FA0002A080FFF710FA88
:10143800A388184345F2103380B29842A0803DD06B
:101448004FF45A40FFF7F2F9FFF702FA4FF45B4006
:10145800FFF7ECF9FFF7FCF90002A0804FF45C40BD
:10146800FFF7E4F9FFF7F4F9A388184380B2B0F561
:10147800004F45F2105309D1A3801FE0001002402D
:1014880000100140000C01402E0000209842A0806E
:1014980014D0A120FFF7CAF9FFF7DAF9A080FFF707
:1014A800D7F90002A080FFF7D3F9A388184345F2C3
:1014B800617380B2984200F01381A08049F24132F2
:1014C800A388934240F00F81CF20FFF7AFF90020A7
:1014D800FFF712FAC120FFF70FFA3020FFF70CFAD6
:1014E800ED20FFF7A3F96420FFF706FA0320FFF7C2
:1014F80003FA1220FFF700FA8120FFF7FDF9E82030
:10150800FFF794F98520FFF7F7F91020FFF7F4F9B2
:101518007A20FFF7F1F9CB20FFF788F93920FFF798
:10152800EBF92C20FFF7E8F90020FFF7E5F9342064
:10153800FFF7E2F90220FFF7DFF9F720FFF776F966
:101548002020FFF7D9F9EA20FFF770F90020FFF70C
:10155800D3F9FFF7D1F9C020FFF768F91B20FFF78F
:10156800CBF9C120FFF762F90120FFF7C5F9C520C3
:10157800FFF75CF93020FFF7BFF9FFF7BDF9C72087
:10158800FFF754F9B720FFF7B7F93620FFF74EF900
:101598004820FFF7B1F93A20FFF748F95520FFF73F
:1015A800ABF9B120FFF742F90020FFF7A5F91A209F
:1015B800FFF7A2F9B620FFF739F90A20FFF79CF9DF
:1015C800A220FFF799F9F220FFF730F90020FFF782
:1015D80093F92620FFF72AF90120FFF78DF9E0207B
:1015E800FFF724F90F20FFF787F92A20FFF784F97E
:1015F8002820FFF781F90820FFF77EF90E20FFF772
:101608007BF90820FFF778F95420FFF775F9A9202E
:10161800FFF772F94320FFF76FF90A20FFF76CF91B
:101628000F20FFF769F90020FFF766F9FFF764F963
:10163800FFF762F9FFF760F9E120FFF7F7F80020FC
:10164800FFF75AF91520FFF757F91720FFF754F954
:101658000720FFF751F91120FFF74EF90620FFF791
:101668004BF92B20FFF748F95620FFF745F93C20A6
:10167800FFF742F90520FFF73FF91020FFF73CF983
:101688000F20FFF739F93F20FFF736F9FFF734F954
:101698000F20FFF731F92B20FFF7C8F80020FFF7DC
:1016A8002BF9FFF729F90120FFF726F93F20FFF76B
:1016B80023F92A20FFF7BAF80020FFF71DF9FFF7F2
:1016C8001BF9FFF719F9EF20FFF716F91120FFF7BB
:1016D800ADF8782004F060FF2920FFF7A7F81EE096
:1016E80041F66313C8E646F60402934201F0EB8024
:1016F80000F2588744F23552934202F09D871FD872
:1017080041F66312934203F0428044F2315293420D
:1017180002F0DD8641F20552934202F00684002071
:10172800FFF72AFD0122054B4FF6FF70C3F8A821E9
:10173800FFF7C2FD07B0BDE8F08F00BF00002242EE
:1017480045F20842934202F04D8345F2105293420B
:1017580001F05B8145F210329342E0D1ED20FFF7B2
:1017680065F80120FFF7C8F8FE20FFF7C5F8EE205E
:10177800FFF75CF8DE20FFF7BFF82120FFF7BCF881
:10178800F120FFF753F80120FFF7B6F8DF20FFF745
:101798004DF81020FFF7B0F8C420FFF747F88F2066
:1017A800FFF7AAF8C620FFF741F80020FFF7A4F8D2
:1017B800E220FFF7A1F8FFF79FF8FFF79DF8BF2099
:1017C800FFF734F8AA20FFF797F8B020FFF72EF8B4
:1017D8000D20FFF791F80020FFF78EF80D20FFF796
:1017E8008BF80020FFF788F81120FFF785F8002014
:1017F800FFF782F81920FFF77FF80020FFF77CF841
:101808002120FFF779F80020FFF776F82D20FFF761
:1018180073F80020FFF770F83D20FFF76DF80020FF
:10182800FFF76AF85D20FFF767F80020FFF764F814
:101838005D20FFF761F80020FFF75EF8B120FEF7A2
:10184800F5FF8020FFF758F80020FFF755F88B20A8
:10185800FFF752F80020FFF74FF89620FFF74CF8F3
:101868000020FFF749F8B220FEF7E0FF0020FFF75D
:1018780043F8FFF741F80220FFF73EF80020FFF792
:101888003BF80320FFF738F80020FFF735F8B320BE
:10189800FEF7CCFF0020FFF72FF8FFF72DF8FFF732
:1018A8002BF8FFF729F8FFF727F8FFF725F8FFF7D8
:1018B80023F8FFF721F8FFF71FF8FFF71DF8FFF7E8
:1018C8001BF8FFF719F8FFF717F8FFF715F8FFF7F8
:1018D80013F8FFF711F8FFF70FF8FFF70DF8FFF708
:1018E8000BF8FFF709F8FFF707F8FFF705F8FFF718
:1018F80003F8FFF701F8B420FEF798FF8B20FEF7F6
:10190800FBFF0020FEF7F8FF9620FEF7F5FF00200A
:10191800FEF7F2FFA120FEF7EFFF0020FEF7ECFF35
:10192800B520FEF783FF0220FEF7E6FF0020FEF752
:10193800E3FF0320FEF7E0FF0020FEF7DDFF0420B1
:10194800FEF7DAFF0020FEF7D7FFB620FEF76EFF9E
:101958000020FEF7D1FFFEF7CFFFB720FEF766FFA6
:101968000020FEF7C9FFFEF7C7FF3F20FEF7C4FFC0
:101978000020FEF7C1FF5E20FEF7BEFF0020FEF745
:10198800BBFF6420FEF7B8FF0020FEF7B5FF8C20F0
:10199800FEF7B2FF0020FEF7AFFFAC20FEF7ACFF6A
:1019A8000020FEF7A9FFDC20FEF7A6FF0020FEF7C7
:1019B800A3FF7020FEF7A0FF0020FEF79DFF9020F8
:1019C800FEF79AFF0020FEF797FFEB20FEF794FF43
:1019D8000020FEF791FFDC20FEF78EFF0020FEF7C7
:1019E8008BFFB820FEF722FF0020FEF785FFFEF7E9
:1019F80083FFFEF781FFFEF77FFFFEF77DFFFEF70F
:101A08007BFFFEF779FFFEF777FFBA20FEF70EFFA0
:101A18002420FEF771FF0020FEF76EFFFEF76CFF33
:101A2800FEF76AFFC120FEF701FF2020FEF764FFE2
:101A38000020FEF761FF5420FEF75EFF0020FEF74E
:101A48005BFFFF20FEF758FF0020FEF755FFC2207E
:101A5800FEF7ECFE0A20FEF74FFF0020FEF74CFFD2
:101A68000420FEF749FF0020FEF746FFC320FEF7DB
:101A7800DDFE3C20FEF740FF0020FEF73DFF3A2048
:101A8800FEF73AFF0020FEF737FF3920FEF734FF54
:101A98000020FEF731FF3720FEF72EFF0020FEF76B
:101AA8002BFF3C20FEF728FF0020FEF725FF3620FD
:101AB800FEF722FF0020FEF71FFF3220FEF71CFF73
:101AC8000020FEF719FF2F20FEF716FF0020FEF773
:101AD80013FF2C20FEF710FF0020FEF70DFF292032
:101AE800FEF70AFF0020FEF707FF2620FEF704FF97
:101AF8000020FEF701FF2420FEF7FEFE0020FEF77F
:101B0800FBFE2420FEF7F8FE0020FEF7F5FE23205A
:101B1800FEF7F2FE0020FEF7EFFE3C20FEF7ECFE9B
:101B28000020FEF7E9FE3620FEF7E6FE0020FEF76D
:101B3800E3FE3220FEF7E0FE0020FEF7DDFE2F2058
:101B4800FEF7DAFE0020FEF7D7FE2C20FEF7D4FEC3
:101B58000020FEF7D1FE2920FEF7CEFE0020FEF77A
:101B6800CBFE2620FEF7C8FE0020FEF7C5FE242087
:101B7800FEF7C2FE0020FEF7BFFE2420FEF7BCFEE3
:101B88000020FEF7B9FE2320FEF7B6FE0020FEF780
:101B9800B3FEC420FEF74AFE6220FEF7ADFE002029
:101BA800FEF7AAFE0520FEF7A7FE0020FEF7A4FE1A
:101BB8008420FEF7A1FE0020FEF79EFEF020FEF72F
:101BC8009BFE0020FEF798FE1820FEF795FE0020E9
:101BD800FEF792FEA420FEF78FFE0020FEF78CFE93
:101BE8001820FEF789FE0020FEF786FE5020FEF73B
:101BF80083FE0020FEF780FE0C20FEF77DFE00200D
:101C0800FEF77AFE1720FEF777FE0020FEF774FE37
:101C18009520FEF771FE0020FEF76EFEF320FEF71A
:101C28006BFE0020FEF768FEE620FEF765FE00204A
:101C3800FEF762FEC520FEF7F9FD3220FEF75CFED6
:101C48000020FEF759FE4420FEF756FE0020FEF75E
:101C580053FE6520FEF750FE0020FEF74DFE76206D
:101C6800FEF74AFE0020FEF747FE8820FEF744FEF6
:101C78000020FEF741FEC620FEF7D8FD2020FEF723
:101C88003BFE0020FEF738FE1720FEF735FE002049
:101C9800FEF732FE0120FEF72FFE0020FEF72CFE95
:101CA800C720FEF7C3FD0020FEF726FEFEF724FE40
:101CB800FEF722FEFEF720FEC820FEF7B7FD002043
:101CC800FEF71AFEFEF718FEFEF716FEFEF714FEE4
:101CD800C920FEF7ABFD0020FEF70EFEFEF70CFE56
:101CE800FEF70AFEFEF708FEFEF706FEFEF704FE04
:101CF800FEF702FEFEF700FEFEF7FEFDFEF7FCFD16
:101D0800FEF7FAFDFEF7F8FDFEF7F6FDFEF7F4FD27
:101D1800FEF7F2FDFEF7F0FDE020FEF787FD162046
:101D2800FEF7EAFD0020FEF7E7FD1C20FEF7E4FDC4
:101D38000020FEF7E1FD2120FEF7DEFD0020FEF782
:101D4800DBFD3620FEF7D8FD0020FEF7D5FD462046
:101D5800FEF7D2FD0020FEF7CFFD5220FEF7CCFDA6
:101D68000020FEF7C9FD6420FEF7C6FD0020FEF73F
:101D7800C3FD7A20FEF7C0FD0020FEF7BDFD8B20D5
:101D8800FEF7BAFD0020FEF7B7FD9920FEF7B4FD77
:101D98000020FEF7B1FDA820FEF7AEFD0020FEF7FB
:101DA800ABFDB920FEF7A8FD0020FEF7A5FDC42075
:101DB800FEF7A2FD0020FEF79FFDCA20FEF79CFD5E
:101DC8000020FEF799FDD220FEF796FD0020FEF7D1
:101DD80093FDD920FEF790FD0020FEF78DFDE02051
:101DE800FEF78AFD0020FEF787FDF320FEF784FD4D
:101DF8000020FEF781FDE120FEF718FD1620FEF712
:101E08007BFD0020FEF778FD1C20FEF775FD002005
:101E1800FEF772FD2220FEF76FFD0020FEF76CFD35
:101E28003620FEF769FD0020FEF766FD4520FEF727
:101E380063FD0020FEF760FD5220FEF75DFD0020E7
:101E4800FEF75AFD6420FEF757FD0020FEF754FD0B
:101E58007A20FEF751FD0020FEF74EFD8B20FEF79D
:101E68004BFD0020FEF748FD9920FEF745FD0020B8
:101E7800FEF742FDA820FEF73FFD0020FEF73CFDDF
:101E8800B920FEF739FD0020FEF736FDC420FEF725
:101E980033FD0020FEF730FDCA20FEF72DFD00209F
:101EA800FEF72AFDD220FEF727FD0020FEF724FDCD
:101EB800D820FEF721FD0020FEF71EFDE020FEF7EA
:101EC8001BFD0020FEF718FDF320FEF715FD00208E
:101ED800FEF712FDE220FEF7A9FC0520FEF70CFD37
:101EE8000020FEF709FD0B20FEF706FD0020FEF797
:101EF80003FD1B20FEF700FD0020FEF7FDFC34204B
:101F0800FEF7FAFC0020FEF7F7FC4420FEF7F4FC8D
:101F18000020FEF7F1FC4F20FEF7EEFC0020FEF754
:101F2800EBFC6120FEF7E8FC0020FEF7E5FC7920D9
:101F3800FEF7E2FC0020FEF7DFFC8820FEF7DCFC61
:101F48000020FEF7D9FC9720FEF7D6FC0020FEF70C
:101F5800D3FCA620FEF7D0FC0020FEF7CDFCB7206E
:101F6800FEF7CAFC0020FEF7C7FCC220FEF7C4FC3F
:101F78000020FEF7C1FCC720FEF7BEFC0020FEF7DC
:101F8800BBFCD120FEF7B8FC0020FEF7B5FCD6203C
:101F9800FEF7B2FC0020FEF7AFFCDD20FEF7ACFC3C
:101FA8000020FEF7A9FCF320FEF7A6FC0020FEF7B0
:101FB800A3FCE320FEF73AFC0520FEF79DFC002079
:101FC800FEF79AFC0A20FEF797FC0020FEF794FC27
:101FD8001C20FEF791FC0020FEF78EFC3320FEF754
:101FE8008BFC0020FEF788FC4420FEF785FC0020CF
:101FF800FEF782FC5020FEF77FFC0020FEF77CFCF9
:102008006220FEF779FC0020FEF776FC7820FEF7C8
:1020180073FC0020FEF770FC8820FEF76DFC0020A2
:10202800FEF76AFC9720FEF767FC0020FEF764FCC9
:10203800A620FEF761FC0020FEF75EFCB720FEF745
:102048005BFC0020FEF758FCC220FEF755FC002080
:10205800FEF752FCC720FEF74FFC0020FEF74CFCB1
:10206800D120FEF749FC0020FEF746FCD520FEF7FC
:1020780043FC0020FEF740FCDD20FEF73DFC00207D
:10208800FEF73AFCF320FEF737FC0020FEF734FC9D
:10209800E420FEF7CBFB0120FEF72EFC0020FEF724
:1020A8002BFC0120FEF728FC0020FEF725FC02206F
:1020B800FEF722FC0020FEF71FFC2A20FEF71CFC7E
:1020C8000020FEF719FC3C20FEF716FC0020FEF766
:1020D80013FC4B20FEF710FC0020FEF70DFC5D20E2
:1020E800FEF70AFC0020FEF707FC7420FEF704FC4C
:1020F8000020FEF701FC8420FEF7FEFB0020FEF71F
:10210800FBFB9320FEF7F8FB0020FEF7F5FBA2206F
:10211800FEF7F2FB0020FEF7EFFBB320FEF7ECFB27
:102128000020FEF7E9FBBE20FEF7E6FB0020FEF7E5
:10213800E3FBC420FEF7E0FB0020FEF7DDFBCD202B
:10214800FEF7DAFB0020FEF7D7FBD320FEF7D4FB1F
:102158000020FEF7D1FBDD20FEF7CEFB0020FEF7C6
:10216800CBFBF320FEF7C8FB0020FEF7C5FBE520FC
:10217800FEF75CFB0020FEF7BFFBFEF7BDFBFEF79A
:10218800BBFBFEF7B9FB0220FEF7B6FB0020FEF70B
:10219800B3FB2920FEF7B0FB0020FEF7ADFB3C2087
:1021A800FEF7AAFB0020FEF7A7FB4B20FEF7A4FBD7
:1021B8000020FEF7A1FB5D20FEF79EFB0020FEF746
:1021C8009BFB7420FEF798FB0020FEF795FB84200C
:1021D800FEF792FB0020FEF78FFB9320FEF78CFBA7
:1021E8000020FEF789FBA220FEF786FB0020FEF701
:1021F80083FBB320FEF780FB0020FEF77DFBBE20AB
:10220800FEF77AFB0020FEF777FBC420FEF774FB8D
:102218000020FEF771FBCD20FEF76EFB0020FEF7D5
:102228006BFBD320FEF768FB0020FEF765FBDC2084
:10223800FEF762FB0020FEF75FFBF320FEF75CFB76
:102248000020FEF759FBE620FEF7F0FA1120FEF712
:1022580053FB0020FEF750FB3420FEF74DFB002017
:10226800FEF74AFB5620FEF747FB0020FEF744FB2B
:102278007620FEF741FB0020FEF73EFB7720FEF7B5
:102288003BFB0020FEF738FB6620FEF735FB0020FD
:10229800FEF732FB8820FEF72FFB0020FEF72CFB11
:1022A8009920FEF729FB0020FEF726FBBB20FEF74E
:1022B80023FB0020FEF720FB9920FEF71DFB0020E2
:1022C800FEF71AFB6620FEF717FB0020FEF714FB4B
:1022D8005520FEF711FB0020FEF70EFB5520FEF7F8
:1022E8000BFB0020FEF708FB4520FEF705FB00204E
:1022F800FEF702FB4320FEF7FFFA0020FEF7FCFA88
:102308004420FEF7F9FA0020FEF7F6FAE720FEF778
:102318008DFA3220FEF7F0FA0020FEF7EDFA55208C
:10232800FEF7EAFA0020FEF7E7FA7620FEF7E4FA6D
:102338000020FEF7E1FA6620FEF7DEFA0020FEF73D
:10234800DBFA6720FEF7D8FA0020FEF7D5FA6720F7
:10235800FEF7D2FA0020FEF7CFFA8720FEF7CCFA74
:102368000020FEF7C9FA9920FEF7C6FA0020FEF70A
:10237800C3FABB20FEF7C0FA0020FEF7BDFA992089
:10238800FEF7BAFA0020FEF7B7FA7720FEF7B4FA9C
:102398000020FEF7B1FA4420FEF7AEFA0020FEF75F
:1023A800ABFA5620FEF7A8FA0020FEF7A5FA23207C
:1023B800FEF7A2FA0020FEF79FFA3320FEF79CFAF8
:1023C8000020FEF799FA4520FEF796FA0020FEF75E
:1023D80093FAE820FEF72AFA0020FEF78DFAFEF7B6
:1023E8008BFA9920FEF788FA0020FEF785FA8720F5
:1023F800FEF782FA0020FEF77FFA8820FEF77CFAC3
:102408000020FEF779FA7720FEF776FA0020FEF72B
:1024180073FA6620FEF770FA0020FEF76DFA88203E
:10242800FEF76AFA0020FEF767FAAA20FEF764FAB8
:102438000020FEF761FABB20FEF75EFA0020FEF7E7
:102448005BFA9920FEF758FA0020FEF755FA662045
:10245800FEF752FA0020FEF74FFA5520FEF74CFA25
:102468000020FEF749FA5520FEF746FA0020FEF74D
:1024780043FA4420FEF740FA0020FEF73DFA4420D4
:10248800FEF73AFA0020FEF737FA5520FEF734FA3D
:102498000020FEF731FAE920FEF7C8F9AA20FEF776
:1024A8002BFA0020FEF728FAFEF726FAFEF724FAA0
:1024B800FEF7BCF9AA20FEF71FFACF20FEF7B6F9FF
:1024C8000020FEF719FAFEF717FAFEF715FAFEF7DD
:1024D80013FAFEF711FAFEF70FFAFEF70DFAFEF7F8
:1024E8000BFAFEF709FAFEF707FAFEF705FAFEF708
:1024F80003FAFEF701FAFEF7FFF9FEF7FDF9FEF71A
:10250800FBF9FEF7F9F9F020FEF790F90020FEF745
:10251800F3F95020FEF7F0F90020FEF7EDF9FEF789
:10252800EBF9FEF7E9F9F320FEF780F90020FEF752
:10253800E3F9F920FEF77AF90620FEF7DDF9102015
:10254800FEF7DAF92920FEF7D7F90020FEF7D4F9CB
:102558003A20FEF76BF95520FEF7CEF91120FEF769
:1025680065F9642004F018F82920FEF75FF9352092
:10257800FEF75CF90020FEF7BFF95120FEF756F987
:10258800FF20FEF7B9F95320FEF750F92C20FEF78B
:10259800B3F95520FEF74AF98220FEF7ADF92C2051
:1025A800FFF79BB849F22832934201F07E8200F28D
:1025B800C98049F22032934201F0678349F22532FB
:1025C800934201F09E8148F6891293427FF4A7A8AE
:1025D80001210020FEF76CF94AF6A4010320FEF75A
:1025E80067F900210C20FEF763F940F60C010D2075
:1025F800FEF75EF94FF42C510E20FEF759F9B02181
:102608001E20FEF755F942F63F310120FEF750F93A
:102618004FF4C0610220FEF74BF900211020FEF7AD
:1026280047F946F278011120FEF742F9002105200A
:10263800FEF73EF900210620FEF73AF94EF61C7126
:102648001620FEF735F903211720FEF731F940F27D
:1026580033210720FEF72CF900210B20FEF728F97B
:1026680000210F20FEF724F900214120FEF720F970
:1026780000214220FEF71CF900214820FEF718F936
:1026880040F23F114920FEF713F900214A20FEF7D6
:102698000FF900214B20FEF70BF94FF46F4144204E
:1026A800FEF706F900214520FEF702F940F23F1136
:1026B8004620FEF7FDF840F207713020FEF7F8F8E3
:1026C8004FF401713120FEF7F3F84FF40171322015
:1026D800FEF7EEF840F202513320FEF7E9F840F237
:1026E80007513420FEF7E4F84FF401713520FEF766
:1026F800DFF84FF401713620FEF7DAF840F20251A4
:102708003720FEF7D5F840F202313A20FEF7D0F82C
:1027180040F202313B20FEF7CBF800212320FEF7E0
:10272800C7F800212420FEF7C3F84FF40041252004
:10273800FEF7BEF800214F20FEF7BAF800214E2020
:1027480001F04CBB4BF20552934201F0FF844CF26E
:102758000552934201F0F38549F2313293427EF4F7
:10276800DEAF41F21401E720FEF7A2F84FF48071C2
:102778000120FEF79DF84FF400710220FEF798F84B
:1027880041F238010320FEF793F840F202210820B5
:10279800FEF78EF800210920FEF78AF800210A20AA
:1027A800FEF786F800210C20FEF782F800210D20A4
:1027B800FEF77EF800210F20FEF77AF8002110209E
:1027C800FEF776F807211120FEF772F80021122093
:1027D800FEF76EF800211320FEF76AF8C82003F010
:1027E800DBFE41F290611020FEF762F840F22721EB
:1027F8001120FEF75DF8322003F0CEFE0C211220E6
:10280800FEF756F8322003F0C7FE4FF4006113209C
:10281800FEF74EF811212920FEF74AF80B212B204C
:10282800FEF746F8322003F0B7FE00212020FEF71D
:102838003FF840F23F112120FEF73AF800213020FE
:10284800FEF736F84FF483713120FEF731F8002196
:102858003220FEF72DF84FF401713520FEF728F8E5
:1028680041F20A613620FEF723F840F2077137205B
:10287800FEF71EF84FF483713820FEF719F840F27E
:1028880007713920FEF714F840F202413C20FEF7A8
:102898000FF840F60F413D20FEF70AF800215020BE
:1028A800FEF706F8EF215120FEF702F8002152202A
:1028B800FDF7FEFF40F23F115320FDF7F9FF4FF4FB
:1028C8001C5101F0B3B91120FDF7B0FF142003F03B
:1028D80063FED020FDF7AAFF0720FEF70DF842207F
:1028E800FEF70AF81D20FEF707F8D120FDF79EFF36
:1028F8000020FEF701F81A20FDF7FEFF0920FDF77A
:10290800FBFFD220FDF792FF0120FDF7F5FF222003
:10291800FDF7F2FFC020FDF789FF1020FDF7ECFF5F
:102928003B20FDF7E9FF0020FDF7E6FF0220FDF759
:10293800E3FF1120FDF7E0FFC520FDF777FF032037
:10294800FDF7DAFFC820FDF771FF0020FDF7D4FF7F
:102958002520FDF7D1FF2120FDF7CEFF0520FDF74B
:10296800CBFF0020FDF7C8FF0A20FDF7C5FF652053
:10297800FDF7C2FF2520FDF7BFFF7720FDF7BCFF5D
:102988005020FDF7B9FF0F20FDF7B6FF0020FDF737
:10299800B3FFF820FDF74AFF0120FDF7ADFFFE2049
:1029A800FDF744FF0020FDF7A7FF0220FDF7A4FF75
:1029B8002020FDF73BFF3620FDF738FF0820FDF704
:1029C8009BFF3A20FDF732FF5520FDF795FF2B209E
:1029D800FDF72CFF0020FDF78FFFFDF78DFF01208D
:1029E800FDF78AFF3F20FDF787FF2A20FDF71EFF2E
:1029F8000020FDF781FFFDF77FFF0120FDF77CFF39
:102A0800DF20FDF779FFFEF764BE55214FF47040D3
:102A1800FDF74EFFAA214FF20100FDF749FF5221B1
:102A28004FF20200FDF744FF08214FF20300FDF7C3
:102A38003FFF01214FF20400FDF73AFF0D214FF44B
:102A48003040FDF735FF0D214BF20100FDF730FF57
:102A58000D214BF20200FDF72BFF34214FF43640D5
:102A6800FDF726FF34214BF20160FDF721FF3421E9
:102A78004BF20260FDF71CFF0D214FF43140FDF7CA
:102A880017FF0D214BF20110FDF712FF0D214BF23C
:102A98000210FDF70DFF34214FF43740FDF708FF12
:102AA80034214BF20170FDF703FF34214BF2027021
:102AB800FDF7FEFE00214FF43240FDF7F9FE00213C
:102AC8004BF20120FDF7F4FE00214BF20220FDF746
:102AD800EFFE24214FF43840FDF7EAFE24214BF69F
:102AE8000100FDF7E5FE24214BF60200FDF7E0FEAC
:102AF80001214FF43F40FDF7DBFE0F214FF4334037
:102B0800FDF7D6FE0F214BF20130FDF7D1FE0F2164
:102B18004BF20230FDF7CCFE34214FF43940FDF77B
:102B2800C7FE34214BF60110FDF7C2FE34214BF6E7
:102B38000210FDF7BDFE08214FF43540FDF7B8FE41
:102B480008214BF20150FDF7B3FE08214BF2025069
:102B5800FDF7AEFE03214FF44240FDF7A9FE242104
:102B68004FF43A40FDF7A4FE24214BF60120FDF76F
:102B78009FFE24214BF60220FDF79AFE00214FF418
:102B88003C40FDF795FE78214BF60140FDF790FE9D
:102B980000214BF60240FDF78BFE00214FF43D402B
:102BA800FDF786FE78214BF60150FDF781FE0021E6
:102BB8004BF60250FDF77CFE00214FF43E40FDF736
:102BC80077FE64214BF60160FDF772FE00214FF499
:102BD8005140FDF76DFE33214DF20110FDF768FEFF
:102BE80000214DF20210FDF763FE34214DF203106F
:102BF800FDF75EFE00214DF20410FDF759FE3A2163
:102C08004DF20510FDF754FE00214DF20610FDF7B8
:102C18004FFE4A214DF20710FDF74AFE00214DF202
:102C28000810FDF745FE5C214DF20910FDF740FE46
:102C380000214DF20A10FDF73BFE81214DF20B10E9
:102C4800FDF736FE00214DF20C10FDF731FEA621EE
:102C58004DF20D10FDF72CFE00214DF20E10FDF780
:102C680027FEE5214DF20F10FDF722FE01214DF25E
:102C78001010FDF71DFE13214DF21110FDF718FE7F
:102C880001214DF21210FDF713FE54214DF21310DD
:102C9800FDF70EFE01214DF21410FDF709FE822109
:102CA8004DF21510FDF704FE01214DF21610FDF747
:102CB800FFFDCA214DF21710FDF7FAFD02214DF272
:102CC8001810FDF7F5FD00214DF21910FDF7F0FD84
:102CD80002214DF21A10FDF7EBFD01214DF21B10F8
:102CE800FDF7E6FD02214DF21C10FDF7E1FD342150
:102CF8004DF21D10FDF7DCFD02214DF21E10FDF70F
:102D0800D7FD67214DF21F10FDF7D2FD02214DF2CC
:102D18002010FDF7CDFD84214DF22110FDF7C8FDEF
:102D280002214DF22210FDF7C3FDA4214DF223101C
:102D3800FDF7BEFD02214DF22410FDF7B9FDB721C4
:102D48004DF22510FDF7B4FD02214DF22610FDF7D6
:102D5800AFFDCF214DF22710FDF7AAFD02214DF25C
:102D68002810FDF7A5FDDE214DF22910FDF7A0FD85
:102D780002214DF22A10FDF79BFDF2214DF22B1096
:102D8800FDF796FD02214DF22C10FDF791FDFE2175
:102D98004DF22D10FDF78CFD03214DF22E10FDF79D
:102DA80087FD10214DF22F10FDF782FD03214DF212
:102DB8003010FDF77DFD33214DF23110FDF778FD20
:102DC80003214DF23210FDF773FD6D214DF23310E2
:102DD800FDF76EFD00214FF45240FDF769FD3321E8
:102DE8004DF20120FDF764FD00214DF20220FDF7B0
:102DF8005FFD34214DF20320FDF75AFD00214DF20D
:102E08000420FDF755FD3A214DF20520FDF750FD50
:102E180000214DF20620FDF74BFD4A214DF2072017
:102E2800FDF746FD00214DF20820FDF741FD5C212C
:102E38004DF20920FDF73CFD00214DF20A20FDF777
:102E480037FD81214DF20B20FDF732FD00214DF2B7
:102E58000C20FDF72DFDA6214DF20D20FDF728FDD4
:102E680000214DF20E20FDF723FDE5214DF20F2044
:102E7800FDF71EFD01214DF21020FDF719FD13216C
:102E88004DF21120FDF714FD01214DF21220FDF73E
:102E98000FFD54214DF21320FDF70AFD01214DF2DB
:102EA8001420FDF705FD82214DF21520FDF700FDE8
:102EB80001214DF21620FDF7FBFCCA214DF2172027
:102EC800FDF7F6FC02214DF21820FDF7F1FC002178
:102ED8004DF21920FDF7ECFC02214DF21A20FDF706
:102EE800E7FC01214DF21B20FDF7E2FC02214DF227
:102EF8001C20FDF7DDFC34214DF21D20FDF7D8FC28
:102F080002214DF21E20FDF7D3FC67214DF21F2050
:102F1800FDF7CEFC02214DF22020FDF7C9FC8421EB
:102F28004DF22120FDF7C4FC02214DF22220FDF7CD
:102F3800BFFCA4214DF22320FDF7BAFC02214DF27B
:102F48002420FDF7B5FCB7214DF22520FDF7B0FC94
:102F580002214DF22620FDF7ABFCCF214DF22720B0
:102F6800FDF7A6FC02214DF22820FDF7A1FCDE2189
:102F78004DF22920FDF79CFC02214DF22A20FDF795
:102F880097FCF2214DF22B20FDF792FC02214DF225
:102F98002C20FDF78DFCFE214DF22D20FDF788FC3D
:102FA80003214DF22E20FDF783FC10214DF22F2036
:102FB800FDF77EFC03214DF23020FDF779FC33212B
:102FC8004DF23120FDF774FC03214DF23220FDF75C
:102FD8006FFC6D214DF23320FDF76AFC00214FF4A0
:102FE8005340FDF765FC33214DF20130FDF760FCDD
:102FF80000214DF20230FDF75BFC34214DF2033025
:10300800FDF756FC00214DF20430FDF751FC3A2142
:103018004DF20530FDF74CFC00214DF20630FDF76E
:1030280047FC4A214DF20730FDF742FC00214DF2E2
:103038000830FDF73DFC5C214DF20930FDF738FC06
:1030480000214DF20A30FDF733FC81214DF20B309F
:10305800FDF72EFC00214DF20C30FDF729FCA621CE
:103068004DF20D30FDF724FC00214DF20E30FDF736
:103078001FFCE5214DF20F30FDF71AFC01214DF23E
:103088001030FDF715FC13214DF21130FDF710FC3F
:1030980001214DF21230FDF70BFC54214DF2133093
:1030A800FDF706FC01214DF21430FDF701FC8221E9
:1030B8004DF21530FDF7FCFB01214DF21630FDF7FE
:1030C800F7FBCA214DF21730FDF7F2FB02214DF252
:1030D8001830FDF7EDFB00214DF21930FDF7E8FB44
:1030E80002214DF21A30FDF7E3FB01214DF21B30AE
:1030F800FDF7DEFB02214DF21C30FDF7D9FB342130
:103108004DF21D30FDF7D4FB02214DF21E30FDF7C4
:10311800CFFB67214DF21F30FDF7CAFB02214DF2AC
:103128002030FDF7C5FB84214DF22130FDF7C0FBAF
:1031380002214DF22230FDF7BBFBA4214DF22330D2
:10314800FDF7B6FB02214DF22430FDF7B1FBB721A4
:103158004DF22530FDF7ACFB02214DF22630FDF78C
:10316800A7FBCF214DF22730FDF7A2FB02214DF23C
:103178002830FDF79DFBDE214DF22930FDF798FB45
:1031880002214DF22A30FDF793FBF2214DF22B304C
:10319800FDF78EFB02214DF22C30FDF789FBFE2155
:1031A8004DF22D30FDF784FB03214DF22E30FDF753
:1031B8007FFB10214DF22F30FDF77AFB03214DF2F2
:1031C8003030FDF775FB33214DF23130FDF770FBE0
:1031D80003214DF23230FDF76BFB6D214DF2333098
:1031E800FDF766FB00214FF45440FDF761FB3321E6
:1031F8004DF20140FDF75CFB00214DF20240FDF766
:1032080057FB34214DF20340FDF752FB00214DF2EC
:103218000440FDF74DFB3A214DF20540FDF748FB10
:1032280000214DF20640FDF743FB4A214DF20740CD
:10323800FDF73EFB00214DF20840FDF739FB5C210C
:103248004DF20940FDF734FB00214DF20A40FDF72D
:103258002FFB81214DF20B40FDF72AFB00214DF297
:103268000C40FDF725FBA6214DF20D40FDF720FB94
:1032780000214DF20E40FDF71BFBE5214DF20F40FA
:10328800FDF716FB01214DF21040FDF711FB13214C
:103298004DF21140FDF70CFB01214DF21240FDF7F4
:1032A80007FB54214DF21340FDF702FB01214DF2BB
:1032B8001440FDF7FDFA82214DF21540FDF7F8FAAA
:1032C80001214DF21640FDF7F3FACA214DF21740DD
:1032D800FDF7EEFA02214DF21840FDF7E9FA002158
:1032E8004DF21940FDF7E4FA02214DF21A40FDF7BC
:1032F800DFFA01214DF21B40FDF7DAFA02214DF207
:103308001C40FDF7D5FA34214DF21D40FDF7D0FAE7
:1033180002214DF21E40FDF7CBFA67214DF21F4006
:10332800FDF7C6FA02214DF22040FDF7C1FA8421CB
:103338004DF22140FDF7BCFA02214DF22240FDF783
:10334800B7FAA4214DF22340FDF7B2FA02214DF25B
:103358002440FDF7ADFAB7214DF22540FDF7A8FA54
:1033680002214DF22640FDF7A3FACF214DF2274066
:10337800FDF79EFA02214DF22840FDF799FADE2169
:103388004DF22940FDF794FA02214DF22A40FDF74B
:103398008FFAF2214DF22B40FDF78AFA02214DF205
:1033A8002C40FDF785FAFE214DF22D40FDF780FAFD
:1033B80003214DF22E40FDF77BFA10214DF22F40EC
:1033C800FDF776FA03214DF23040FDF771FA33210B
:1033D8004DF23140FDF76CFA03214DF23240FDF712
:1033E80067FA6D214DF23340FDF762FA00214FF480
:1033F8005540FDF75DFA33214DF20150FDF758FABB
:1034080000214DF20250FDF753FA34214DF20350DA
:10341800FDF74EFA00214DF20450FDF749FA3A2122
:103428004DF20550FDF744FA00214DF20650FDF724
:103438003FFA4A214DF20750FDF73AFA00214DF2C2
:103448000850FDF735FA5C214DF20950FDF730FAC6
:1034580000214DF20A50FDF72BFA81214DF20B5055
:10346800FDF726FA00214DF20C50FDF721FAA621AE
:103478004DF20D50FDF71CFA00214DF20E50FDF7EC
:1034880017FAE5214DF20F50FDF712FA01214DF21E
:103498001050FDF70DFA13214DF21150FDF708FAFF
:1034A80001214DF21250FDF703FA54214DF2135049
:1034B800FDF7FEF901214DF21450FDF7F9F98221CB
:1034C8004DF21550FDF7F4F901214DF21650FDF7B4
:1034D800EFF9CA214DF21750FDF7EAF902214DF232
:1034E8001850FDF7E5F900214DF21950FDF7E0F904
:1034F80002214DF21A50FDF7DBF901214DF21B5064
:10350800FDF7D6F902214DF21C50FDF7D1F934210F
:103518004DF21D50FDF7CCF902214DF21E50FDF77A
:10352800C7F967214DF21F50FDF7C2F902214DF28C
:103538002050FDF7BDF984214DF22150FDF7B8F96F
:1035480002214DF22250FDF7B3F9A4214DF2235088
:10355800FDF7AEF902214DF22450FDF7A9F9B72184
:103568004DF22550FDF7A4F902214DF22650FDF742
:103578009FF9CF214DF22750FDF79AF902214DF21C
:103588002850FDF795F9DE214DF22950FDF790F905
:1035980002214DF22A50FDF78BF9F2214DF22B5002
:1035A800FDF786F902214DF22C50FDF781F9FE2135
:1035B8004DF22D50FDF77CF903214DF22E50FDF709
:1035C80077F910214DF22F50FDF772F903214DF2D2
:1035D8003050FDF76DF933214DF23150FDF768F9A0
:1035E80003214DF23250FDF763F96D214DF233504E
:1035F800FDF75EF900214FF45640FDF759F93321E4
:103608004DF20160FDF754F900214DF20260FDF71B
:103618004FF934214DF20360FDF74AF900214DF2CC
:103628000460FDF745F93A214DF20560FDF740F9D0
:1036380000214DF20660FDF73BF94A214DF2076083
:10364800FDF736F900214DF20860FDF731F95C21EC
:103658004DF20960FDF72CF900214DF20A60FDF7E3
:1036680027F981214DF20B60FDF722F900214DF277
:103678000C60FDF71DF9A6214DF20D60FDF718F954
:1036880000214DF20E60FDF713F9E5214DF20F60B0
:10369800FDF70EF901214DF21060FDF709F913212C
:1036A8004DF21160FDF704F901214DF21260FDF7AA
:1036B800FFF854214DF21360FDF7FAF801214DF29D
:1036C8001460FDF7F5F882214DF21560FDF7F0F86A
:1036D80001214DF21660FDF7EBF8CA214DF2176093
:1036E800FDF7E6F802214DF21860FDF7E1F8002138
:1036F8004DF21960FDF7DCF802214DF21A60FDF772
:10370800D7F801214DF21B60FDF7D2F802214DF2E6
:103718001C60FDF7CDF834214DF21D60FDF7C8F8A7
:1037280002214DF21E60FDF7C3F867214DF21F60BC
:10373800FDF7BEF802214DF22060FDF7B9F88421AB
:103748004DF22160FDF7B4F802214DF22260FDF739
:10375800AFF8A4214DF22360FDF7AAF802214DF23B
:103768002460FDF7A5F8B7214DF22560FDF7A0F814
:1037780002214DF22660FDF79BF8CF214DF227601C
:10378800FDF796F802214DF22860FDF791F8DE2149
:103798004DF22960FDF78CF802214DF22A60FDF701
:1037A80087F8F2214DF22B60FDF782F802214DF2E5
:1037B8002C60FDF77DF8FE214DF22D60FDF778F8BD
:1037C80003214DF22E60FDF773F810214DF22F60A2
:1037D800FDF76EF803214DF23060FDF769F83321EB
:1037E8004DF23160FDF764F803214DF23260FDF7C8
:1037F8005FF86D214DF23360FDF75AF855214FF40B
:103808007040FDF755F8AA214FF20100FDF750F876
:1038180052214FF20200FDF74BF808214FF2030046
:10382800FDF746F800214FF20400FDF741F8CC21DE
:103838004FF43140FDF73CF800214BF20110FDF741
:1038480037F805214FF43640FDF732F870214FF470
:103858003740FDF72DF870214BF20170FDF728F87D
:1038680001214FF43840FDF723F803214BF60100FE
:10387800FDF71EF803214BF60200FDF719F80321A6
:103888004BF60300FDF714F802214FF43C40FDF716
:103898000FF800214BF60140FDF70AF800214BF61E
:1038A8000240FDF705F8D0214FF44940FDF700F834
:1038B80002214CF60110FCF7FBFF50214CF60210D8
:1038C800FCF7F6FF50214CF60310FCF7F1FF5021EE
:1038D8004CF60410FCF7ECFF00214FF45450FCF7B1
:1038E800E7FF55214FF46850FCF7E2FF4FF488508A
:1038F800FCF79CFF012002F04FFE4FF42450FDF727
:10390800ECBE47F6F001E520FCF7D2FF4FF48071DA
:103918000120FCF7CDFF4FF4E0610220FCF7C8FF5F
:1039280041F230010320FCF7C3FF00210420FCF71B
:10393800BFFF40F202210820FCF7BAFF002109204E
:10394800FCF7B6FF00210A20FCF7B2FF00210C208B
:10395800FCF7AEFF00210D20FCF7AAFF00210F2085
:10396800FCF7A6FF00211020FCF7A2FF0721112079
:10397800FCF79EFF00211220FCF79AFF002113207C
:10398800FCF796FF00210720FCF792FF41F29061B7
:103998001020FCF78DFF40F227211120FCF788FF4B
:1039A8009D211220FCF784FF4FF4C8511320FCF727
:1039B8007FFF25212920FCF77BFF0D212B20FCF719
:1039C80077FF07213020FCF773FF40F203313120E5
:1039D800FCF76EFF03213220FCF76AFF40F2062154
:1039E8003520FCF765FF08213620FCF761FF40F21F
:1039F80006413720FCF75CFF4FF441713820FCF793
:103A080057FF07213920FCF753FF40F202613C20A1
:103A1800FCF74EFF08213D20FCF74AFF002150200B
:103A2800FCF746FFEF215120FCF742FF002152200E
:103A3800FCF73EFF40F23F115320FCF739FF4FF4EB
:103A480027416020FCF734FF01216120FCF730FF9B
:103A580000216A20FCF72CFF00218020FCF728FFBA
:103A680000218120FCF724FF00218220FCF720FFA1
:103A780000218320FCF71CFF00218420FCF718FF9D
:103A880000218520FCF714FF10219020FCF710FF7F
:103A98004FF4C0619220FCF70BFF40F2331107206E
:103AA800FCF706FF2221002098E141F28F01EC206B
:103AB800FCF7FEFE41F23421EF20FCF7F9FE4FF44B
:103AC80080710120FCF7F4FE4FF4E0610220FCF75E
:103AD800EFFE41F230010320FCF7EAFE002104204A
:103AE800FCF7E6FE40F202210820FCF7E1FE002187
:103AF8000920FCF7DDFE00210A20FCF7D9FE012190
:103B08000C20FCF7D5FE00210D20FCF7D1FE00218A
:103B18000F20FCF7CDFE00211020FCF7C9FE07217D
:103B28001120FCF7C5FE00211220FCF7C1FE002180
:103B38001320FCF7BDFE01210720FCF7B9FE322057
:103B480002F02AFD41F290411020FCF7B1FE40F24C
:103B580027211120FCF7ACFE322002F01DFD8A213E
:103B68001220FCF7A5FE322002F016FD4FF4D051CA
:103B78001320FCF79DFE06212920FCF799FE0D2154
:103B88002B20FCF795FE322002F006FD00212020B4
:103B9800FCF78EFE00212120FCF78AFE322002F07D
:103BA800FBFC00213020FCF783FE40F20461312049
:103BB800FCF77EFE40F205313220FCF779FE002149
:103BC8003520FCF775FE40F609413620FCF770FEFB
:103BD8004FF401713720FCF76BFE40F201313820B9
:103BE800FCF766FE40F207713920FCF761FE002100
:103BF8003C20FCF75DFE40F60A213D20FCF758FE0C
:103C0800322002F0C9FC00215020FCF751FEEF21C0
:103C18005120FCF74DFE00215220FCF749FE40F2EE
:103C28003F115320FCF744FE4FF427416020FCF776
:103C38003FFE01216120FCF73BFE00216A20FCF7D2
:103C480037FE00218020FCF733FE00218120FCF79D
:103C58002FFE00218220FCF72BFE00218320FCF799
:103C680027FE00218420FCF723FE00218520FCF795
:103C78001FFE10219020FCF71BFE4FF4C06192201C
:103C8800FCF716FE40F23311A7E000210846FCF7C6
:103C98000FFE4FF480710120FCF70AFE4FF4E0613B
:103CA8000220FCF705FE41F230010320FCF700FE7C
:103CB80000210420FCF7FCFD40F202210820FCF75B
:103CC800F7FD00210920FCF7F3FD00210A20FCF78D
:103CD800EFFD01210C20FCF7EBFD00210D20FCF786
:103CE800E7FD00210F20FCF7E3FD322002F054FC31
:103CF80040F201110720FCF7DBFD322002F04CFCFA
:103D08004FF486511020FCF7D3FD07211120FCF752
:103D1800CFFD4FF488711220FCF7CAFD4FF43061D3
:103D28001320FCF7C5FD00212920FCF7C1FD44F252
:103D380010012B20FCF7BCFD00215020FCF7B8FD3A
:103D4800EF215120FCF7B4FD00215220FCF7B0FD13
:103D580040F23F115320FCF7ABFD4FF41C5160209B
:103D6800FCF7A6FD01216120FCF7A2FD00216A20D5
:103D7800FCF79EFD00218020FCF79AFD00218120A0
:103D8800FCF796FD00218220FCF792FD002183209C
:103D9800FCF78EFD00218420FCF78AFD0021852098
:103DA800FCF786FD10219020FCF782FD002192206F
:103DB800FCF77EFD01219320FCF77AFD4FF4887112
:103DC8009520FCF775FD00219720FCF771FD002177
:103DD8009820FCF76DFD40F273110720FCF768FD91
:103DE800FDF79DBC4FF480710120FCF761FD4FF495
:103DF800E0610220FCF75CFD41F230010320FCF792
:103E080057FD00210420FCF753FD40F2072108204C
:103E1800FCF74EFD00210920FCF74AFD00210A208D
:103E2800FCF746FD00210C20FCF742FD00210D2087
:103E3800FCF73EFD00210F20FCF73AFD142002F0AC
:103E4800ABFB41F2B0611020FCF732FD01211120DB
:103E5800FCF72EFD01211720FCF72AFD4FF49C7179
:103E68001220FCF725FD4FF400611320FCF720FD1C
:103E780009212920FCF71CFD09212A20FCF718FD3F
:103E88000021A420FCF714FD00215020FCF710FDB0
:103E9800EF215120FCF70CFD00215220FCF708FD12
:103EA80040F23F115320FCF703FD4FF41C516020F2
:103EB800FCF7FEFC01216120FCF7FAFC00216A20D6
:103EC800FCF7F6FC00218020FCF7F2FC00218120A1
:103ED800FCF7EEFC00218220FCF7EAFC002183209D
:103EE800FCF7E6FC00218420FCF7E2FC0021852099
:103EF800FCF7DEFC13219020FCF7DAFC002192206D
:103F0800FCF7D6FC03219320FCF7D2FC4FF4887110
:103F18009520FCF7CDFC072040F27311FCF7C8FC94
:103F2800322002F039FBFDF7FABB00210720FCF72D
:103F3800BFFC322002F030FB4FF48E711220FCF7E8
:103F4800B7FC0121A420FCF7B3FC08200F21FCF7E3
:103F5800AFFC01460A20FCF7ABFC08210D20FCF75A
:103F6800A7FC40F207713020FCF7A2FC07213120A2
:103F7800FCF79EFC40F203613220FCF799FC4FF4F9
:103F8800E0613320FCF794FC40F202213420FCF776
:103F98008FFC02213520FCF78BFC41F60F7136208F
:103FA800FCF786FC40F207713720FCF781FC002102
:103FB8003820FCF77DFC00213920FCF779FC40F221
:103FC80007713A20FCF774FC00213B20FCF770FCD9
:103FD80007213C20FCF76CFC00213D20FCF768FC25
:103FE800322002F0D9FA01210720FCF761FC0121F7
:103FF8001720FCF75DFC322002F0CEFA4FF4BD51D9
:104008001020FCF755FC40F217211120FCF750FC5A
:104018004FF48F711220FCF74BFC4FF470611320A2
:10402800FCF746FC00212A20FCF742FC0A21292043
:10403800FCF73EFC4FF49F711220FCF739FC00217D
:104048005020FCF735FCEF215120FCF731FC002112
:104058005220FCF72DFC40F23F115320FCF728FCBE
:104068004FF41C516020FCF723FC01216120FCF770
:104078001FFC00216A20FCF71BFC00218020FCF7B4
:1040880017FC00218120FCF713FC00218220FCF79B
:104098000FFC00218320FCF70BFC00218420FCF797
:1040A80007FC00218520FCF703FC13219020FCF776
:1040B800FFFB4FF440719220FCF7FAFB0521932097
:1040C800FCF7F6FB00219520FCF7F2FB0021972076
:1040D800FCF7EEFB00219820FCF7EAFB4FF4807117
:1040E8000120FCF7E5FB4FF4E0610220FCF7E0FB60
:1040F80041F238010320FCF7DBFB00210420FCF728
:10410800D7FB00210C20FCF7D3FB00210F20FCF784
:10411800CFFB00212020FCF7CBFB21200021FCF75E
:10412800C7FB01460720FCF7C3FB142002F034FA52
:1041380061210720FCF7BCFB142002F02DFA0720B0
:1041480040F27311FCF7B4FB1420EAE6002108469C
:10415800FCF7AEFB0146FCF7ABFB0146FCF7A8FBFE
:104168000146FCF7A5FB0121A420FCF7A1FB1420C4
:1041780002F012FA4FF41C516020FCF799FB40F250
:1041880002210820FCF794FB4FF405713020FCF75E
:104198008FFB43F215713120FCF78AFB40F2046172
:1041A8003220FCF785FB40F616613320FCF780FBD4
:1041B80042F211213420FCF77BFB4FF4A851352043
:1041C800FCF776FB48F207513620FCF771FB41F209
:1041D80007413720FCF76CFB41F203413820FCF71C
:1041E80067FB20213920FCF763FB1A219020FCF79C
:1041F8005FFB00211020FCF75BFB07211120FCF777
:1042080057FB00211220FCF753FB00211320FCF779
:104218004FFB142002F0C0F94FF4E6611020FCF7C0
:1042280047FB40F237111120FCF742FB142002F043
:10423800B3F94FF4DC711220FCF73AFB142002F0BA
:10424800ABF94FF470611320FCF732FB80212A2070
:10425800FCF72EFB48212920FCF72AFB142002F04A
:104268009BF94FF480710120FCF722FB4FF4E061C9
:104278000220FCF71DFB41F238010320FCF718FB74
:1042880040F202210820FCF713FB00210A20FCF76A
:104298000FFB00210C20FCF70BFB00210D20FCF785
:1042A80007FB30210E20FCF703FB00215020FCF710
:1042B800FFFAEF215120FCF7FBFA00215220FCF70E
:1042C800F7FA40F23F115320FCF7F2FA4FF41C5171
:1042D8006020FCF7EDFA01216120FCF7E9FA0021E2
:1042E8006A20FCF7E5FA11219020FCF7E1FA4FF477
:1042F800C0619220FCF7DCFA40F202419320FCF7FF
:10430800D7FA02219420FCF7D3FA142002F044F9DA
:1043180001210720FCF7CCFA142002F03DF9072010
:104328006121FCF7C5FA40F27311FCF7C1FA0021CC
:104338002020FCF7BDFA00212120FFF7B1BB0021A6
:104348000846FCF7B5FA0146FCF7B2FA142002F069
:1043580023F900210846FCF7ABFA0146FCF7A8FA56
:104368000146FCF7A5FA0146FCF7A2FA0121A420B0
:10437800FCF79EFA142002F00FF94FF41C5160204C
:10438800FCF796FA40F606010820FCF791FA40F28D
:1043980003713020FCF78CFA01213120FCF788FAF0
:1043A80004213220FCF784FA4FF481713320FCF7A2
:1043B8007FFA4FF440713420FCF77AFA40F2031187
:1043C8003520FCF775FA1F213620FCF771FA40F208
:1043D80003713720FCF76CFA01213820FCF768FAE2
:1043E80004213920FCF764FA15219020FCF760FAC3
:1043F8004FF482611020FCF75BFA40F2472111204C
:10440800FCF756FA4FF4DE711220FCF751FA4FF41C
:1044180060611320FCF74CFA782002F0BDF84FF4E5
:1044280080710120FCF744FA4FF400710220FCF778
:104438003FFA41F230010320FCF73AFA08210A203A
:10444800FCF736FA00210C20FCF732FA20210E2066
:10445800FCF72EFA00210F20FCF72AFA0021202071
:10446800FCF726FA00212120FCF722FA3D212A2018
:10447800FCF71EFA142002F08FF82D212920FCF7F2
:1044880017FA00215020FCF713FA4DF2EF015120E2
:10449800FCF70EFA00215220FCF70AFA40F23F110D
:1044A8005320FCF705FA00216120FCF701FA0021EE
:1044B8006A20FCF7FDF94FF440719220FCF7F8F9F7
:1044C80005219320FCF7F4F94FF4807185E401216C
:1044D8000020FCF7EDF90A2002F05EF841F22861AD
:1044E8001020FCF7E5F90E211220FCF7E1F940F65F
:1044F80039211320FCF7DCF90A2002F04DF840219D
:104508001120FCF7D5F950211520FCF7D1F90A2024
:1045180002F042F81E211220FCF7CAF90A2002F024
:104528003BF84FF4B1511020FCF7C2F942F639219B
:104538001320FCF7BDF90A2002F02EF84FF4807121
:104548000120FCF7B5F94FF440710220FCF7B0F9EF
:1045580041F238010320FCF7ABF9082040F20221B0
:10456800FCF7A6F901460A20FCF7A2F90021302041
:10457800FCF79EF940F202413120FCF799F94FF41B
:1045880083713220FCF794F940F203513320FCF791
:104598008FF94FF482713420FCF78AF940F2013127
:1045A8003520FCF785F940F207713620FCF780F9D1
:1045B80040F205313720FCF77BF94FF402713820BF
:1045C800FCF776F940F60B713920FCF771F90221F6
:1045D8004120FCF76DF94FF41C516020FCF768F995
:1045E80001216120FCF764F94FF404719020FCF775
:1045F8005FF94FF485719220FCF75AF90421932052
:10460800FCF756F94FF48071A020FCF751F9072008
:104618000121FCF74DF92121FCF74AF92321FCF788
:1046280047F93321FCF744F940F23311FCF740F91C
:104638000021A020FFF7D2BB30211520FCF738F964
:1046480010219A20FCF734F920211120FCF730F9C9
:1046580043F228411020FCF72BF902211220FCF725
:1046680027F941F238011320FCF722F9282001F03C
:1046780093FF12210846FCF71BF9282001F08CFF54
:1046880043F220411020FCF713F943F238011320BC
:10469800FCF70EF9462001F07FFF00213020FCF7DF
:1046A80007F940F202413120FCF702F940F20731E4
:1046B8003220FCF7FDF84FF441713320FCF7F8F88D
:1046C80004213420FCF7F4F840F201413520FCF7CE
:1046D800EFF840F207713620FCF7EAF840F20531AE
:1046E8003720FCF7E5F84FF4C2613820FCF7E0F812
:1046F8004FF4C2613920FCF7DBF84FF480710120D8
:10470800FCF7D6F84FF440710220FCF7D1F841F2DB
:1047180030010320FCF7CCF8082040F60801FCF72C
:10472800C7F801460A20FCF7C3F84FF41C51602073
:10473800FCF7BEF801216120FCF7BAF84FF49F712D
:104748009020FCF7B5F84FF480719220FCF7B0F890
:104758004FF480719320FCF7ABF84FF44051A02040
:10476800FCF7A6F81021A320FCF7A2F807200121E6
:10477800FCF79EF82121FCF79BF82321FCF798F819
:104788003321FCF795F840F23311FFF727BBE220FD
:104798004FF400754FF48078FCF748F81D23AC4CB3
:1047A800AC4F8026C4F8108004226561FB600223A8
:1047B8004FF0010A4FF0030B666101202661256165
:1047C800C4F810806561FB60666126612561C4F8E4
:1047D80010806561FA6066612661256101F0DCFE82
:1047E800E020FCF723F8C4F810800A206561C7F8B8
:1047F8000CA066612661256101F0CEFEE020FCF781
:1048080015F8C4F810800C206561C7F80CB0666113
:104818002661256101F0C0FE5046FCF707F80A2022
:1048280001F0BAFEE620FCF701F82F21C4F8108049
:104838006561F960FF216661B02026612561C4F8D1
:1048480010806561F960666126612561C4F8108091
:104858006561F960666126612561FBF7E7FF202144
:10486800C4F810804FF000096561F96040F21F310B
:10487800666126612561C4F810806561C7F80C90EF
:10488800666126612561C4F810806561C7F80CB0BF
:10489800666126612561C4F810806561F96040F29F
:1048A800DF116661B42026612561C4F81080656156
:1048B800C7F80CA0666126612561C4F8108065619F
:1048C800F960666126612561C4F810806561C7F8E2
:1048D8000C90666126612561FBF7A8FF0422C4F8E5
:1048E80010806561FA6040F21F42666126612561A9
:1048F800C4F810806561FA602E226661B6202661D0
:104908002561C4F810806561C7F80C90666126615E
:104918002561C4F810806561FA60666126612561C9
:10492800C4F810806561C7F80C906661266125613E
:10493800C4F810806561C7F80C906661266125612E
:10494800C4F810806561C7F80C906661266125611E
:10495800C4F810806561C7F80C906661266125610E
:10496800FBF764FF0223C4F810806561FB604FF415
:104978000373666126612561C4F810806561FB6078
:104988001723666126612561C4F810806561C7F840
:104998000C90666126612561C4F810806561FB6032
:1049A80015236661F02026612561C4F810806561D1
:1049B800FB60666126612561C4F810806561C7F8EF
:1049C8000C90666126612561C4F810806561C7F89E
:1049D8000C90666126612561FBF728FFC4F81080FA
:1049E80029206561C7F80CB0666126612561FBF76F
:1049F8001DFFD020FBF71AFFC4F81080BE206561A8
:104A0800C7F80C90666126612561FBF70FFF052347
:104A1800C4F810806561FB60FE236661B8202661DA
:104A28002561C4F810806561FB60666126612561B7
:104A3800C4F810806561C7F80CA06661266125611D
:104A4800C4F810806561C7F80C906661266103E0C0
:104A580000100140000C01402561C4F81080656118
:104A6800C7F80C90666126612561C4F810806561FD
:104A7800C7F80C90666126612561FBF7D7FEC4F87C
:104A88001080BA206561C7F80CB06661266125619F
:104A9800C4F810806561C7F80CA0666126612561BD
:104AA800FBF7C4FEC4F8108064206561C7F80CA049
:104AB800666126612561FCF70FFBFCF730BE00BF7D
:104AC8002DE9F04F1C4687B09DF840300F460593FE
:104AD80014F0070318BF0123610803EBD4034B4309
:104AE8002421DBB20293203A294BD2B201FB0233D4
:104AF8000C218146BB4600260493264B03EB021388
:104B08000193254B01FB02330393029AF3B29A42B5
:104B180002D807B0BDE8F08F0C2C29D1039B9D5D0E
:104B2800DFF878800BF108031FFA83FA2B0627D5E4
:104B38001B4B594648461A88FCF77AF9B8F8022000
:104B48000BF101011FFA81FB6D005A45EDB2E0D966
:104B5800ABEB0702A24218D1B8F8003009F1010006
:104B68001FFA80F94B45D4D9BA46D3460136CCE76B
:104B7800102C01D1019BD2E7182CCAD1049BCEE797
:104B8800059B002BDAD1074BD3E7DA45CED1ECE70A
:104B9800AF700008BF6A00084B6600082E000020AE
:104BA8002C000020000000202DE9F04F1F4604468D
:104BB8000D464FF0000B85B002449DF8383096B290
:104BC8000F9A0F44BFB24FEA530902F1FF385FFA58
:104BD80080FA18F8012FA2F120015E2902D905B048
:104BE800BDE8F08FB44222BFED18ADB25446BD42C5
:104BF800F5D220462946CDF800B04C440393A4B220
:104C0800FFF75EFF039BE4E710B590B01422002184
:104C180008A801F0D3FC1422002101A801F0CEFC61
:104C280002244FF480330122CDE90D43CDE9062358
:104C38004FF4E01306A80A920F9300F00BFE08B198
:104C480072B6FEE70F23CDE901344FF48063039079
:104C5800CDE90430214601A800F0BEFF08B172B6C4
:104C6800FEE710B010BD00002DE9F04110268AB013
:104C7800724C01F06DFCFFF7C7FF3246002106A811
:104C880001F09CFCA369002243F02003A361A369FF
:104C98004FF4807103F020030393039BA3696848D2
:104CA8003343A361A369002533400493049BA3699C
:104CB800012743F00403A361A36903F004030593E8
:104CC800059B00F0C1FD20235E4806A9CDE9063505
:104CD800089700F0D1FC4FF48073CDE90637022322
:104CE800574806A90895099300F0C6FC63692A4647
:104CF8003B436361636939463B400E200693069B3C
:104D080000F0E4F90E2000F011FA2A4629460F2097
:104D180000F0DCF90F2000F009FA4FF4E1334A4CB7
:104D28004A4A2046C4E900230C23C4E90255C4E9D1
:104D380005352561E56101F073F8054608B172B6DD
:104D4800FEE723684249DA68204642F02002DA602A
:104D5800DA68404C42F01002DA604FF4806201F0E9
:104D6800C1FBFCF7EBFA4FF4784323803A4BC82297
:104D780032211E20CDE900633346FFF715FF374B7C
:104D8800C82246211E20CDE900633346FFF70CFFF9
:104D9800334BC8221E20CDE900635A213346FFF762
:104DA80003FF1F2341F2C372238028462B462D4C54
:104DB8002D4DB3F5BE5F39D900283CD00A21002318
:104DC800013A92B204F8011B002AF2D1DFF89C8064
:104DD8001F4F1D4E98F800300BB3002510244FF4D8
:104DE80080621B49304688F8005001F049F8204B92
:104DF800C8226E211E20019300942346FFF7D4FE9B
:104E08002346CDE900471B4CC82282211E20FFF70C
:104E1800CBFE294622680E4801F0D0FB25604FF4EE
:104E280080623946304601F05DFBD3E7E95C013327
:104E380000209BB2C4E70D210120C1E70010024009
:104E48000008014000100140881800200038014087
:104E5800D11800202C0000200B7E0008117E0008CD
:104E68001A7E00083C0000203C7E0008D018002074
:104E78002E7E0008D41C002072B6FEE7104B07B542
:104E88009A69052042F001029A619A6902F00102CA
:104E98000092009ADA6942F08052DA61DB6903F025
:104EA80080530193019B00F0FFF8064A536823F0F2
:104EB800E06343F00073536003B05DF804FB00BF88
:104EC8000010024000000140F0B51027054687B0E9
:104ED8003A46002102A801F071FB2A68304B9A4239
:104EE8005BD103F558439A692E4842F480429A618F
:104EF8009A69002602F480420092009A99692A4C25
:104F080041F0040199619B694FF4007103F00403B7
:104F18000193019B0223CDE90213032302A9059300
:104F280000F0AAFB4FF480631E4802A9CDE90236BF
:104F3800049600F0A1FB1D4B2046C4E900378023EE
:104F4800C4E903364FF48053C4E90566A660E361FB
:104F580000F00EF908B1FFF78FFF0023144AAC6385
:104F68006562144CC4E900238022C4E90533C4E90E
:104F78000323A3604FF480532046E36100F0F8F860
:104F880008B1FFF779FF252000220121EC63656253
:104F980000F09CF8252000F0C9F807B0F0BD00BF6C
:104FA8000038014000080140441800204400024035
:104FB8005800024000180020FEE7FEE7FEE7FEE783
:104FC800FEE770477047704701F0D4BA014800F017
:104FD80013BA00BF44180020014800F00DBA00BF02
:104FE8000018002013B5174C204601F0E5F8236897
:104FF8001A68D20613D5002201921A682046019237
:105008005B680193019B00F075FF0F4B0F4A1B680B
:105018005B68C3F58063136001220D4B1A70236827
:105028000C49DA68074842F02002DA60DA6842F090
:105038001002DA604FF4806202B0BDE8104001F05F
:1050480051BA00BF8818002000180020D41C002086
:10505800D0180020D118002070470000FFF7FCFF8F
:105068000B480C490C4A002302E0D458C4500433BE
:10507800C4188C42F9D3094A094C002301E0136093
:105088000432A242FBD301F0A1FAFFF7EDFD70470D
:1050980000000020100000203096000810000020BA
:1050A800DC1C0020FEE7000007490302CA6803F47D
:1050B800E06322F4E0621204120C134343F0BF636E
:1050C80043F40033CB60704700ED00E0154B30B57A
:1050D800DC68C4F30224C4F10703251D042B28BF90
:1050E8000423062D4FF0FF3594BF0024033C05FA36
:1050F80003F321EA0303A54022EA0502A34000289E
:1051080043EA0203ACBF00F16040074A4FEA0313C9
:10511800DBB2ABBF00F5614000F00F0080F8003350
:10512800135430BD00ED00E014ED00E0002807DB6B
:1051380001234109034A00F01F00834042F821304F
:10514800704700BF00E100E00138B0F1807F0BD26A
:105158004FF0E023F021054A586182F8231000201F
:10516800072298611A6170470120704700ED00E03E
:10517800034610B5002832D001681A4A142091421B
:1051880026D8194A0A44B2FBF0F218489200C3E93B
:105198000F02022283F82120D3E901242243DC688C
:1051A800086822431C6920F47F5022435C6920F080
:1051B800300022439C692243DC69224302430A608F
:1051C80000200122986383F8200083F8212010BD75
:1051D800074A0A44B2FBF0F206489200D7E70120DA
:1051E800F5E700BF07040240F8FFFDBF00000240DA
:1051F800F8FBFDBF00040240F0B5054690F820001A
:10520800012836D0012085F8200095F821000024D7
:105218000128C6B24FF0020028D185F82100AC63FE
:105228002C68206820F001002060D5E90F7006FA8C
:1052380000F0786063606B68102BEB6A0BBFA260AC
:10524800A160E160E2604BB1236843F00E030020E7
:105258002360236843F001032360F0BD236823F033
:1052680004032360236843F00A03F0E785F820402D
:10527800F3E70220F1E790F821200346022A06D03E
:10528800042282630120002283F8202070470268EC
:10529800C06B116821F00E011160116821F0010145
:1052A800116001211A6C01FA02F24260002083F8B1
:1052B8002110E8E710B590F82130022B03D0042321
:1052C8008363012010BD036845491A6822F00E0265
:1052D8001A601A6822F001021A60424A934244D9BD
:1052E8008B423BD014318B423AD014318B4239D0A7
:1052F80014318B4226D014318B4226D014318B4284
:1053080026D0934227D002F56272934226D01432F7
:10531800934225D01432934224D01432934214BFBE
:105328004FF480334FF480532F4A536001230024F5
:1053380080F82130436B80F82040002B4DD09847EF
:105348002046BFE74FF48053EEE74FF48033EBE796
:105358004FF48013E8E74FF08073E5E70123E3E7B4
:105368001023E1E74FF48073DEE78B422ED01F490C
:105378008B422DD014318B422CD014318B4219D052
:1053880014318B4219D014318B4219D093421AD060
:10539800174A93421AD01432934219D014329342C6
:1053A80018D01432934214BF4FF480334FF4805313
:1053B800104ABAE74FF48053FAE74FF48033F7E71F
:1053C8004FF48013F4E74FF08073F1E70123EFE720
:1053D8001023EDE74FF48073EAE7184672E700BF41
:1053E8000800024080000240000402401C00024005
:1053F800080402400000024070B40425C66B026C29
:105408003468036895402542196800F085804D0787
:1054180040F182801A68924996065EBF1A6822F0A7
:1054280004021A608F4A93423ED98B4235D0143118
:105438008B4234D014318B4233D014318B4220D07C
:1054480014318B4220D014318B4220D0934221D08A
:1054580002F56272934220D0143293421FD0143264
:1054680093421ED01432934214BF4FF480234FF45A
:1054780080437D4A5360C36A002B00F0EF8070BC04
:1054880018474FF48043F4E74FF48023F1E74FF4D3
:105498008003EEE74FF08063EBE70423E9E740235E
:1054A800E7E74FF48063E4E78B422ED06F498B42E5
:1054B8002DD014318B422CD014318B4219D0143199
:1054C8008B4219D014318B4219D093421AD0684AB2
:1054D80093421AD01432934219D01432934218D0FE
:1054E8001432934214BF4FF480234FF48043614A2F
:1054F800C0E74FF48043FAE74FF48023F7E74FF40F
:105508008003F4E74FF08063F1E70423EFE74023DB
:10551800EDE74FF48063EAE702259540254200F065
:1055280087808D0740F184801A68940606D41A682B
:1055380022F00A021A60012280F82120494A4849CB
:1055480093423DD98B4234D014318B4233D014313D
:105558008B4232D014318B421FD014318B421FD072
:1055680014318B421FD0934220D002F562729342CD
:105578001FD0143293421ED0143293421DD01432DD
:10558800934214BF4FF400334FF40053364A53602C
:10559800002380F82030836A6EE74FF40053F5E764
:1055A8004FF40033F2E74FF40013EFE74FF00073C6
:1055B800ECE70223EAE72023E8E74FF40073E5E786
:1055C8008B422ED029498B422DD014318B422CD0BE
:1055D80014318B4219D014318B4219D014318B42BB
:1055E80019D093421AD0224A93421AD014329342C5
:1055F80019D01432934218D01432934214BF4FF486
:1056080000334FF400531B4AC1E74FF40053FAE745
:105618004FF40033F7E74FF40013F4E74FF000734B
:10562800F1E70223EFE72023EDE74FF40073EAE701
:1056380008259540254211D009070FD5196821F092
:105648000E011960012303FA02F27260836380F885
:105658002130002380F82030036B0DE770BC7047C1
:105668000800024080000240000402401C00024082
:1056780008040240000002402DE9F74F00221646B8
:105688006A4F6B4BDFF8ACC1DFF8ACE10C6834FA59
:1056980006F502D103B0BDE8F08F4FF0010808FA13
:1056A80006F804EA080538EA040440F081804C68EA
:1056B800032C07D8013C022C00F28C80DFE804F0B0
:1056C8009DA2A800122C00F0A08073D8112C00F025
:1056D8009680FF2D98BF82464FF00F0988BF00F1D2
:1056E800040A4FEA8604DAF8008088BF203C09FAE9
:1056F80004FB28EA0B0802FA04F448EA0404CAF88E
:105708000040D1F804A01AF0805F51D0BC6926F09F
:10571800030844F00104BC61BC6908F1804804F046
:105728000104019408F5803806F0030B019C4FEA48
:105738008B0BD8F8084009FA0BF924EA09093F4C01
:10574800A04269D004F58064A04267D004F5806463
:10575800A04265D004F58064A04263D004F580645B
:10576800A04261D060450CBF0524062404FA0BF45E
:1057780044EA0904C8F808409C681AF4801F14BF5A
:105788002C43AC439C60DC681AF4001F14BF2C4304
:10579800AC43DC605C681AF4003F14BF2C43AC4394
:1057A8005C601C681AF4803F14BF2C43AC431C6037
:1057B80001366BE774450DD018D8DFF884904C4556
:1057C80008D009F570294C4504D0A9F580194C4535
:1057D8007FF47FAF8A68EAB1012A08BFC0F8108059
:1057E8004FF0080218BFC0F8148072E7DFF8549031
:1057F8004C45EFD009F58039E9E7CA6869E7CA6816
:10580800043266E7CA68083263E7CA680C3260E7A0
:1058180000225EE704225CE70024A7E70124A5E74D
:105828000224A3E70324A1E704249FE70010024011
:1058380000040140001C0140000022100008014043
:1058480000001210000031100AB10161704709040C
:10585800FBE700002DE9F341054638B30368DB0791
:1058680010D42B689F075ED42B68190700F1958028
:105878002B685A0700F1C180E869002840F02C81A4
:10588800002029E0904C636803F00C03042B07D038
:10589800636803F00C03082B0AD16368DE0307D59D
:1058A80023689C03DDD56B68002BDAD1012013E057
:1058B8006B68B3F5803F12D1236843F480332360CB
:1058C80000F064FE064623689803CAD400F05EFE22
:1058D800801B6428F7D9032002B0BDE8F0819BB98A
:1058E800236823F480332360236823F48023236010
:1058F80000F04CFE064623689903B2D500F046FE38
:10590800801B6428F7D9E6E7B3F5A02F236803D1F5
:1059180043F480232360CFE723F480332360236894
:1059280023F48023CBE7684C636813F00C0F07D08F
:10593800636803F00C03082B10D16368DA030DD4F5
:1059480023689B0702D52B69012BAFD123686A69AD
:1059580023F0F80343EAC203236085E72A695B4B17
:105968006AB101221A6000F011FE064623689F07FB
:10597800ECD400F00BFE801B0228F7D9ABE71A60C5
:1059880000F004FE0646236898077FF56DAF00F027
:10599800FDFD801B0228F6D99DE7AA694A4E4B4BAC
:1059A800E2B10122C3F8802400F0F0FD0446736AD6
:1059B8009B070DD54FF4FA52454B1B68B3FBF2F326
:1059C800019300BF019B5A1E0192002BF9D14FE7AA
:1059D80000F0DCFD001B0228E9D97CE7C3F880242D
:1059E80000F0D4FD0446736A9F077FF541AF00F0CD
:1059F800CDFD001B0228F6D96DE7334CE369D800CA
:105A080024D40127E36943F08053E361E36903F099
:105A180080530093009B2F4E3368D90518D5EB6847
:105A2800012B26D1236A43F00103236200F0AEFD67
:105A380041F288380646236A9B073FD5002F3FF47A
:105A48001BAFE36923F08053E36115E70027E2E722
:105A5800336843F48073336000F098FD8046336800
:105A6800DA05DCD400F092FDA0EB08006428F6D932
:105A780031E7ABB9236A41F2883823F00103236286
:105A8800236A23F00403236200F080FD0646236A9C
:105A98009807D3D500F07AFD801B4045F7D91AE75F
:105AA800052B236A03D143F004032362BAE723F0EA
:105AB80001032362236A23F00403B6E700F066FDBE
:105AC800801B4045B7D906E700100240000042425B
