:020000040800F2
:1000000000C0002051BE000819BB00081FBB00083B
:1000100025BB00082BBB000831BB00080000000016
:1000200000000000000000000000000037BB0008D6
:1000300043BB0008000000004FBB00085BBB00088A
:1000400099BE000899BE000899BE000899BE000834
:1000500099BE000899BE000867BB000899BE000859
:1000600099BE000899BE000899BE000899BE000814
:1000700099BE000899BE000875BB000889BB00083E
:1000800099BE000899BE000899BE000899BE0008F4
:1000900099BE000899BE000899BE00089DBB0008E3
:1000A00099BE000899BE000899BE000899BE0008D4
:1000B00099BE0008ADBB000899BE0008C1BB00088E
:1000C000D5BB000899BE000899BE000899BE00087B
:1000D00099BE0008E9BB000899BE000899BE000857
:1000E000FDBB000899BE000899BE000899BE000833
:1000F00099BE000899BE000899BE000899BE000884
:1001000099BE000899BE000899BE000899BE000873
:1001100099BE000899BE000899BE000899BE000863
:1001200099BE000899BE000899BE000899BE000853
:1001300000000000000000000000000000000000BF
:1001400000000000000000000000000000000000AF
:10015000000000000000000000000000000000009F
:10016000000000000000000000000000000000008F
:10017000000000000000000000000000000000007F
:10018000000000000000000000000000000000006F
:10019000000000000000000000000000000000005F
:1001A000000000000000000000000000000000004F
:1001B000000000000000000000000000000000003F
:1001C000000000000000000000000000000000002F
:1001D000000000000000000000000000000000001F
:0401E0005FF8E0F1F3
:1001E80010B5054C237833B9044B13B10448AFF369
:1001F80000800123237010BDBC0000200000000017
:10020800782B010808B5034B1BB103490348AFF32A
:10021800008008BD00000000C0000020782B010805
:1002280081F0004102E000BF83F0004330B54FEA9F
:1002380041044FEA430594EA050F08BF90EA020F0C
:100248001FBF54EA000C55EA020C7FEA645C7FEA9F
:10025800655C00F0E2804FEA5454D4EB5555B8BFC2
:100268006D420CDD2C4480EA020281EA030382EA33
:10027800000083EA010180EA020281EA0303362DC5
:1002880088BF30BD11F0004F4FEA01314FF4801C98
:100298004CEA113102D0404261EB410113F0004FAA
:1002A8004FEA03334CEA133302D0524263EB430361
:1002B80094EA050F00F0A780A4F10104D5F1200EFF
:1002C8000DDB02FA0EFC22FA05F2801841F100015A
:1002D80003FA0EF2801843FA05F359410EE0A5F12E
:1002E80020050EF1200E012A03FA0EFC28BF4CF05F
:1002F800020C43FA05F3C01851EBE37101F0004515
:1003080007D54FF0000EDCF1000C7EEB00006EEB21
:100318000101B1F5801F1BD3B1F5001F0CD34908AB
:100328005FEA30004FEA3C0C04F101044FEA445202
:1003380012F5800F80F09A80BCF1004F08BF5FEA89
:10034800500C50F1000041EB045141EA050130BD69
:100358005FEA4C0C404141EB0101013C28BFB1F57B
:10036800801FE9D291F0000F04BF01460020B1FAC6
:1003780081F308BF2033A3F10B03B3F120020CDA99
:100388000C3208DD02F1140CC2F10C0201FA0CF077
:1003980021FA02F10CE002F11402D8BFC2F1200CDC
:1003A80001FA02F120FA0CFCDCBF41EA0C01904092
:1003B800E41AA2BF01EB0451294330BD6FEA0404DB
:1003C8001F3C1CDA0C340EDC04F11404C4F12002C6
:1003D80020FA04F001FA02F340EA030021FA04F3D8
:1003E80045EA030130BDC4F10C04C4F1200220FA2F
:1003F80002F001FA04F340EA0300294630BD21FA6D
:1004080004F0294630BD94F0000F83F4801306BF32
:1004180081F480110134013D4EE77FEA645C18BF26
:100428007FEA655C29D094EA050F08BF90EA020FBD
:1004380005D054EA000C04BF1946104630BD91EAB5
:10044800030F1EBF0021002030BD5FEA545C05D1B8
:100458004000494128BF41F0004130BD14F58004F7
:100468003CBF01F5801130BD01F0004545F0FE416B
:1004780041F470014FF0000030BD7FEA645C1ABFA0
:10048800194610467FEA655C1CBF0B46024650EAD7
:10049800013406BF52EA033591EA030F41F4002103
:1004A80030BD00BF90F0000F04BF0021704730B589
:1004B8004FF4806404F132044FF000054FF000015E
:1004C80050E700BF90F0000F04BF0021704730B51F
:1004D8004FF4806404F1320410F0004548BF4042F4
:1004E8004FF000013EE700BF42004FEAE2014FEA49
:1004F80031014FEA02701FBF12F07F4393F07F4F24
:1005080081F06051704732F07F4208BF704793F026
:100518007F4F04BF41F40021704730B54FF4607439
:1005280001F0004521F000411CE700BF50EA01023C
:1005380008BF704730B54FF000050AE050EA0102E5
:1005480008BF704730B511F0004502D5404261EB55
:1005580041014FF4806404F132045FEA915C3FF496
:10056800D8AE4FF003025FEADC0C18BF03325FEA33
:10057800DC0C18BF033202EBDC02C2F1200300FAE4
:1005880003FC20FA02F001FA03FE40EA0E0021FA09
:1005980002F11444BDE600BF70B54FF0FF0C4CF4F7
:1005A800E06C1CEA11541DBF1CEA135594EA0C0FA9
:1005B80095EA0C0F00F0DEF82C4481EA030621EAE4
:1005C8004C5123EA4C5350EA013518BF52EA03351F
:1005D80041F4801143F4801338D0A0FB02CE4FF0D1
:1005E8000005E1FB02E506F00042E0FB03E54FF001
:1005F8000006E1FB03569CF0000F18BF4EF0010EF9
:10060800A4F1FF04B6F5007F64F5407404D25FEAF4
:100618004E0E6D4146EB060642EAC62141EA5551A7
:100628004FEAC52040EA5E504FEACE2EB4F1FD0CE9
:1006380088BFBCF5E06F1ED8BEF1004F08BF5FEA67
:10064800500E50F1000041EB045170BD06F0004619
:1006580046EA010140EA020081EA0301B4EB5C04C6
:10066800C2BFD4EB0C0541EA045170BD41F48011BE
:100678004FF0000E013C00F3AB8014F1360FDEBFE3
:10068800002001F0004170BDC4F10004203C35DABF
:100698000C341BDC04F11404C4F1200500FA05F342
:1006A80020FA04F001FA05F240EA020001F00042E3
:1006B80021F0004110EBD37021FA04F642EB060159
:1006C8005EEA430E08BF20EAD37070BDC4F10C0483
:1006D800C4F1200500FA04F320FA05F001FA04F247
:1006E80040EA020001F0004110EBD37041F1000133
:1006F8005EEA430E08BF20EAD37070BDC4F120053E
:1007080000FA05F24EEA020E20FA04F301FA05F2A5
:1007180043EA020321FA04F001F0004121FA04F24D
:1007280020EA020000EBD3705EEA430E08BF20EA1D
:10073800D37070BD94F0000F0FD101F00046400057
:1007480041EB010111F4801F08BF013CF7D041EAD9
:10075800060195F0000F18BF704703F000465200DD
:1007680043EB030313F4801F08BF013DF7D043EAAE
:100778000603704794EA0C0F0CEA135518BF95EA64
:100788000C0F0CD050EA410618BF52EA4306D1D1EB
:1007980081EA030101F000414FF0000070BD50EA0A
:1007A800410606BF1046194652EA430619D094EA94
:1007B8000C0F02D150EA013613D195EA0C0F05D17E
:1007C80052EA03361CBF104619460AD181EA0301D2
:1007D80001F0004141F0FE4141F470014FF000008A
:1007E80070BD41F0FE4141F4780170BD70B54FF025
:1007F800FF0C4CF4E06C1CEA11541DBF1CEA1355A5
:1008080094EA0C0F95EA0C0F00F0A7F8A4EB050486
:1008180081EA030E52EA03354FEA013100F088807D
:100828004FEA03334FF0805545EA131343EA126346
:100838004FEA022245EA111545EA10654FEA0026FB
:100848000EF000419D4208BF964244F1FD0404F5B4
:10085800407402D25B084FEA3202B61A65EB030510
:100868005B084FEA32024FF480104FF4002CB6EBCD
:10087800020E75EB030E22BFB61A754640EA0C004D
:100888005B084FEA3202B6EB020E75EB030E22BF8D
:10089800B61A754640EA5C005B084FEA3202B6EBCE
:1008A800020E75EB030E22BFB61A754640EA9C008D
:1008B8005B084FEA3202B6EB020E75EB030E22BF5D
:1008C800B61A754640EADC0055EA060E18D04FEA1B
:1008D800051545EA16754FEA06164FEAC30343EABB
:1008E80052734FEAC2025FEA1C1CC0D111F4801F88
:1008F8000BD141EA00014FF000004FF0004CB6E781
:1009080011F4801F04BF01430020B4F1FD0C88BF1F
:10091800BCF5E06F3FF6AFAEB5EB030C04BFB6EB2A
:10092800020C5FEA500C50F1000041EB045170BD1D
:100938000EF0004E4EEA113114EB5C04C2BFD4EB4A
:100948000C0541EA045170BD41F480114FF0000ECE
:10095800013C90E645EA060E8DE60CEA135594EA4A
:100968000C0F08BF95EA0C0F3FF43BAF94EA0C0F4D
:100978000AD150EA01347FF434AF95EA0C0F7FF4C2
:1009880025AF104619462CE795EA0C0F06D152EA16
:1009980003353FF4FDAE1046194622E750EA4106FA
:1009A80018BF52EA43067FF4C5AE50EA41047FF40B
:1009B8000DAF52EA43057FF4EBAE12E74FF0FF3C70
:1009C80006E000BF4FF0010C02E000BF4FF0010C41
:1009D8004DF804CD4FEA410C7FEA6C5C4FEA430CBA
:1009E80018BF7FEA6C5C1BD001B050EA410C0CBF09
:1009F80052EA430C91EA030F02BF90EA020F00206B
:100A0800704710F1000F91EA030F58BF994208BFD1
:100A180090422CBFD8176FEAE37040F0010070478E
:100A28004FEA410C7FEA6C5C02D150EA013C07D1E5
:100A38004FEA430C7FEA6C5CD6D152EA033CD3D030
:100A48005DF8040B704700BF8446104662468C462A
:100A58001946634600E000BF01B5FFF7B7FF00285D
:100A680048BF10F1000F01BD4DF808EDFFF7F4FF86
:100A78000CBF012000205DF808FB00BF4DF808ED11
:100A8800FFF7EAFF34BF012000205DF808FB00BF34
:100A98004DF808EDFFF7E0FF94BF012000205DF856
:100AA80008FB00BF4DF808EDFFF7CEFF94BF01200B
:100AB80000205DF808FB00BF4DF808EDFFF7C4FF04
:100AC80034BF012000205DF808FB00BF4FEA410C4D
:100AD8007FEA6C5C02D150EA013C0AD14FEA430C30
:100AE8007FEA6C5C02D152EA033C02D14FF000006D
:100AF80070474FF0010070474A0011D212F50012FA
:100B080011D20DD56FF47873B3EB62520ED44FEA5D
:100B1800C12343F0004343EA505323FA02F07047DD
:100B28004FF00000704750EA013002D14FF0FF301B
:100B380070474FF0000070474FEA4102B2F1E043BE
:100B480024BFB3F5001CDCF1FE5C0DD901F0004CAC
:100B58004FEAC0024CEA5070B2F1004F40EB8300FC
:100B680008BF20F00100704711F0804F21D113F128
:100B78003872BCBF01F00040704741F480114FEA61
:100B88005252C2F11802C2F1200C10FA0CF320FAEA
:100B980002F018BF40F001004FEAC1234FEAD32307
:100BA80003FA0CFC40EA0C0023FA02F34FEA430371
:100BB800CCE77FEA625307D150EA01331EBF4FF0FA
:100BC800FE4040F44000704701F0004040F0FE4015
:100BD80040F40000704700BF80F0004002E000BF12
:100BE80081F0004142001FBF5FEA410392EA030F10
:100BF8007FEA226C7FEA236C6AD04FEA1262D2EB5A
:100C08001363C1BFD218414048404140B8BF5B425E
:100C1800192B88BF704710F0004F40F4000020F0F7
:100C28007F4018BF404211F0004F41F4000121F00D
:100C38007F4118BF494292EA030F3FD0A2F1010257
:100C480041FA03FC10EB0C00C3F1200301FA03F195
:100C580000F0004302D5494260EB4000B0F5000FB8
:100C680013D3B0F1807F06D340084FEA310102F177
:100C78000102FE2A51D2B1F1004F40EBC25008BF29
:100C880020F0010040EA03007047490040EB0000F3
:100C9800013A28BFB0F5000FEDD2B0FA80FCACF1F4
:100CA800080CB2EB0C0200FA0CF0AABF00EBC25021
:100CB80052421843BCBFD0401843704792F0000F0F
:100CC80081F4000106BF80F400000132013BB5E762
:100CD8004FEA41037FEA226C18BF7FEA236C21D0D8
:100CE80092EA030F04D092F0000F08BF084670473D
:100CF80090EA010F1CBF0020704712F07F4F04D10B
:100D0800400028BF40F00040704712F100723CBF1D
:100D180000F50000704700F0004343F0FE4040F447
:100D2800000070477FEA226216BF08467FEA236305
:100D38000146420206BF5FEA412390EA010F40F4F0
:100D4800800070474FF0000304E000BF10F000433C
:100D580048BF40425FEA000C08BF704743F0964323
:100D680001464FF000001CE050EA010208BF70473E
:100D78004FF000030AE000BF50EA010208BF7047C5
:100D880011F0004302D5404261EB41015FEA010CDA
:100D980002BF84460146002043F0B64308BFA3F1D2
:100DA8008053A3F50003BCFA8CF2083AA3EBC253B4
:100DB80010DB01FA02FC634400FA02FCC2F12002D3
:100DC800BCF1004F20FA02F243EB020008BF20F00A
:100DD8000100704702F1200201FA02FCC2F1200270
:100DE80050EA4C0021FA02F243EB020008BF20EA65
:100DF800DC7070474FF0FF0C1CEAD0521EBF1CEA93
:100E0800D15392EA0C0F93EA0C0F6FD01A4480EA80
:100E1800010C400218BF5FEA41211ED04FF0006369
:100E280043EA501043EA5111A0FB01310CF0004095
:100E3800B1F5000F3EBF490041EAD3715B0040EABB
:100E4800010062F17F02FD2A1DD8B3F1004F40EB8B
:100E5800C25008BF20F00100704790F0000F0CF05E
:100E6800004C08BF49024CEA502040EA51207F3A22
:100E7800C2BFD2F1FF0340EAC250704740F40000FD
:100E88004FF00003013A5DDC12F1190FDCBF00F0EE
:100E980000407047C2F10002410021FA02F1C2F19C
:100EA800200200FA02FC5FEA310040F1000053EA38
:100EB8004C0308BF20EADC70704792F0000F00F086
:100EC800004C02BF400010F4000F013AF9D040EA8C
:100ED8000C0093F0000F01F0004C02BF490011F420
:100EE800000F013BF9D041EA0C018FE70CEAD1531E
:100EF80092EA0C0F18BF93EA0C0F0AD030F0004C9E
:100F080018BF31F0004CD8D180EA010000F0004051
:100F1800704790F0000F17BF90F0004F084691F00F
:100F2800000F91F0004F14D092EA0C0F01D1420249
:100F38000FD193EA0C0F03D14B0218BF084608D112
:100F480080EA010000F0004040F0FE4040F400005C
:100F5800704740F0FE4040F4400070474FF0FF0CEF
:100F68001CEAD0521EBF1CEAD15392EA0C0F93EA36
:100F78000C0F69D0A2EB030280EA010C49024FEA88
:100F8800402037D04FF0805343EA111143EA101341
:100F98000CF000408B4238BF5B0042F17D024FF4F9
:100FA800000C8B4224BF5B1A40EA0C00B3EB510FD4
:100FB80024BFA3EB510340EA5C00B3EB910F24BFBD
:100FC800A3EB910340EA9C00B3EBD10F24BFA3EB42
:100FD800D10340EADC001B0118BF5FEA1C1CE0D10A
:100FE800FD2A3FF650AF8B4240EBC25008BF20F0BD
:100FF800010070470CF0004C4CEA50207F32C2BF11
:10100800D2F1FF0340EAC250704740F400004FF0AD
:101018000003013A37E792F0000F00F0004C02BFDE
:10102800400010F4000F013AF9D040EA0C0093F0A8
:10103800000F01F0004C02BF490011F4000F013B02
:10104800F9D041EA0C0195E70CEAD15392EA0C0F6A
:1010580008D142027FF47DAF93EA0C0F7FF470AFA2
:10106800084676E793EA0C0F04D14B023FF44CAFE5
:1010780008466EE730F0004C18BF31F0004CCAD17A
:1010880030F000427FF45CAF31F000437FF43CAFB6
:101098005FE700BF4FF0FF3C06E000BF4FF0010CD8
:1010A80002E000BF4FF0010C4DF804CD4FEA4002BA
:1010B8004FEA41037FEA226C18BF7FEA236C11D004
:1010C80001B052EA530C18BF90EA010F58BFB2EBB7
:1010D800030088BFC81738BF6FEAE17018BF40F037
:1010E800010070477FEA226C02D15FEA402C05D1EB
:1010F8007FEA236CE4D15FEA412CE1D05DF8040B70
:10110800704700BF844608466146FFE70FB5FFF702
:10111800C9FF002848BF10F1000F0FBD4DF808EDBA
:10112800FFF7F4FF0CBF012000205DF808FB00BFAB
:101138004DF808EDFFF7EAFF34BF012000205DF805
:1011480008FB00BF4DF808EDFFF7E0FF94BF012052
:1011580000205DF808FB00BF4DF808EDFFF7D2FF4F
:1011680094BF012000205DF808FB00BF4DF808ED92
:10117800FFF7C8FF34BF012000205DF808FB00BF5F
:101188004FEA4002B2F1FE4F0FD34FF09E03B3EB8C
:1011980012620DD94FEA002343F0004310F0004FCC
:1011A80023FA02F018BF404270474FF00000704722
:1011B80012F1610F01D1420205D110F0004008BFC1
:1011C8006FF0004070474FF00000704742000ED2A9
:1011D800B2F1FE4F0BD34FF09E03B3EB126209D46A
:1011E8004FEA002343F0004323FA02F070474FF020
:1011F8000000704712F1610F01D1420202D14FF095
:10120800FF3070474FF00000704700BF034613F8E7
:10121800012B002AFBD1181A0138704780B584B019
:1012280000AF78607B68FB600023002B04D07868EF
:1012380001F067FB034604E07868FFF7E7FF034621
:1012480000BF18461037BD4680BD80B582B000AFDC
:10125800786078680FF00EFB034618460837BD46DD
:1012680080BD80B582B000AF786078680FF03AFB37
:10127800034618460837BD4680BD00000000000040
:1012880082B090B58DB000AFF860381D80E80600D8
:101298007B647A687B6CD31A1846FFF757FD0346C0
:1012A800FB62BA68BB6CD31A1846FFF74FFD0346BA
:1012B800BB62F86CFFF706F937A3D3E90023FFF701
:1012C8006BF902460B46104619464FF00002344BA4
:1012D800FFF78CFA02460B4610461946FFF72CFC1E
:1012E80003467B62786AFFF7B0FF0346F96A18463F
:1012F800FFF780FD03461C46786AFFF7B2FF0346F6
:10130800B96A1846FFF776FD034619462046FFF7E7
:1013180067FC03463B62786AFFF7A3FF0346F96A56
:101328001846FFF767FD03461C46786AFFF78DFFEE
:101338000346B96A1846FFF75DFD0346194620467D
:10134800FFF750FC0346FB617B6C1846FFF7FEFC79
:101358000346396A1846FFF745FC03467B61BB6CB8
:101368001846FFF7F3FC0346F9691846FFF73AFCFD
:101378000346BB6107F1180207F114031946F86820
:1013880001F010FBF8683437BD46BDE8904002B064
:10139800704700BFAFF300804AD8124DFB210940C7
:1013A8000080664090B48CB000AF07F1080484E870
:1013B8000300394681E80C00BB68FB623B68BB62EE
:1013C800BB6B7B62FB683B627B68FB61FB6BBB6151
:1013D8007A6AFB6A9A4203DB7A6ABB6A9A4207DD39
:1013E8007A6AFB6A9A4205DC7A6ABB6A9A4201DB2E
:1013F800012300E00023FB75BA693B6A9A4203DBCC
:10140800BA69FB699A4207DDBA693B6A9A4205DC08
:10141800BA69FB699A4201DB012300E00023BB752E
:10142800FB7D002B04D0BB7D002B01D0012300E005
:10143800002318463037BD4690BC704782B080B54F
:1014480086B000AFF860381D80E806007B627A68D5
:101458007B6A13443B61BA68BB6A13447B6107F13A
:10146800140207F110031946F86800F0E2FCF86866
:101478001837BD46BDE8804002B0704790B484B0CC
:1014880000AF07F1080484E80300394681E80C003E
:10149800BA683B689A4205D1FA687B689A4201D1DA
:1014A800012300E0002318461037BD4690BC704762
:1014B80080B582B000AF78607868FFF703F802461D
:1014C8000B46104619460FF0B1F902460B46104676
:1014D80019460837BD4680BD90B585B000AF07F105
:1014E800080484E80300394681E80C00BA683B68C0
:1014F800D31AB9683A688A1A03FB02F2F9687B685A
:10150800CB1AF8687968411A01FB03F313441846AB
:10151800FFF7CEFF02460B4610461946FFF7ECFAD6
:10152800034618461437BD4690BD000082B080B50A
:1015380086B000AFF860381D80E806007B62184B63
:101548009B68184610F058F910F084F90246B968FB
:101558007B68CB1A92FBF3F101FB03F3D21A7B6889
:1015680013447B6110F076F90246B96A7B6ACB1A9C
:1015780092FBF3F101FB03F3D21A7B6A13443B613C
:1015880007F1100207F114031946F86801F02BFA65
:10159800F8681837BD46BDE8804002B0704700BF04
:1015A80010E000E080B58AB002AFF860B960394653
:1015B80081E80C003F4AFB681A60FB681033184644
:1015C80000F080FAFB681833184600F07BFAFB68D5
:1015D8002033184600F076FAFB68883318460FF077
:1015E800CFF8354B1B681A46FB685A60324B1B68AC
:1015F8000133314A1360FB680022DA603B461A1D4A
:10160800394607F11003184601F0EDF9FB6810336D
:1016180007F110021146184601F0FEF907F12C02F5
:1016280007F1180307F12801184601F0DCF9FB68F7
:10163800203307F118021146184601F0EDF9FB684E
:10164800012283F88420FB680022DA67FB682C33C8
:1016580050220021184610F08BFBFB68012283F80A
:101668002820FB688833B96818460FF096F8FB689D
:1016780000221A72FB6803F11002FB681833114646
:10168800184601F0E4F9FB68883318460FF08DF826
:10169800FB685A68FB681969FB685B6900930B462D
:1016A8000146064810F0E4F9FB6818462037BD46A5
:1016B80080BD00BFD8330108D8000020902B010856
:1016C80080B582B000AF78603960786800F012F8B1
:1016D8000346002B14BF01230023DBB2002B01D0EB
:1016E800002303E07B683A68DA600123184608376C
:1016F800BD4680BD80B483B000AF78607B68DB688E
:1017080018460C37BD4680BC7047000080B586B0CF
:1017180000AF786039603B68002B04D1204810F096
:101728000DFA002338E079683868FFF7C9FF0346E7
:1017380083F00103DBB2002B04D01A4810F0FEF945
:10174800002329E07B682C333B613B697B613B6963
:101758005033FB6010E07B691B68BB60BB685A684C
:101768003B685B689A4204D10F4810F0E7F9002300
:1017780012E07B6904337B617A69FB689A42EAD19B
:101788003A687B68DB6F581C7968C86779680A33E0
:101798009B000B445A60012318461837BD4680BD8C
:1017A800B42B0108BC2B0108C82B010890B58DB0DB
:1017B80002AF78600B46FB707B68FA7883F8842068
:1017C800FB78002B04D07B68012283F8282049E0AD
:1017D8007B689A697B681B6AD90F0B445B105B4274
:1017E8001344BB617B68DA697B685B6AD90F0B4479
:1017F8005B105B421344FB6107F11C0207F11801FF
:1018080007F11003184600F014FB7B689A697B689F
:101818001B6AD90F0B445B1013443B627B68DA697F
:101828007B685B6AD90F0B445B1013447B6207F13A
:10183800240207F1200107F10803184600F0F9FA1D
:101848003B6998B27B6999B2BB689AB2FB689BB254
:101858004FF6FF74009406F08DF97B68DB6801226F
:1018680083F8282000BF2C37BD4690BD80B483B0D4
:1018780000AF78607B6893F8843018460C37BD4613
:1018880080BC704790B599B002AFF860B96039462E
:1018980081E80C0007F11400FB685A6900921B6983
:1018A8003A4606CAFFF7CAFDFB68183307F1140267
:1018B8001146184601F0B0F8FB6893F82830002B61
:1018C80024D000237B6518E0FA687B6D0A339B00FF
:1018D80013445B68FB64F86CFFF7C8FF034683F0AA
:1018E8000103DBB2002B04D1FB6C012283F8282012
:1018F80000E000BF7B6D01337B65FB68DA6F7B6DB1
:101908009A42E1D8FB68002283F8282000233B652F
:10191800CCE0FA683B6D0A339B0013445B68BB64F8
:10192800B86CFFF7A3FF034683F00103DBB2002B7B
:1019380040F0B880BB6C1B7A0B2B00F2A98001A287
:1019480052F823F07D19000891190008A919000818
:10195800C1190008D9190008F1190008091A000866
:10196800211A0008391A0008511A0008691A0008D3
:10197800811A0008BB6C1B681C68B86CFB681833BC
:101988000CCBF968A0478EE0BB6CFB61FB691B6858
:101998001C68F869FB6818330CCBF968A04782E02B
:1019A800BB6C3B623B6A1B681C68386AFB6818336F
:1019B8000CCBF968A04776E0BB6C7B627B6A1B683E
:1019C8001C68786AFB6818330CCBF968A0476AE092
:1019D800BB6CBB62BB6A1B681C68B86AFB681833BF
:1019E8000CCBF968A0475EE0BB6CFB62FB6A1B6826
:1019F8001C68F86AFB6818330CCBF968A04752E0FA
:101A0800BB6C3B633B6B1B681C68386BFB6818330B
:101A18000CCBF968A04746E0BB6C7B637B6B1B680B
:101A28001C68786BFB6818330CCBF968A0473AE060
:101A3800BB6CBB63BB6B1B681C68B86BFB6818335B
:101A48000CCBF968A0472EE0BB6CFB63FB6B1B68F3
:101A58001C68F86BFB6818330CCBF968A04722E0C8
:101A6800BB6C3B643B6C1B681C68386CFB681833A8
:101A78000CCBF968A04716E0BB6C7B647B6C1B68D9
:101A88001C68786CFB6818330CCBF968A0470AE02F
:101A9800BB6C1B681C68B86CFB6818330CCBF96806
:101AA800A04700E000BF3B6D01333B65FB68DA6F80
:101AB8003B6D9A423FF62DAF00BF00BF5C37BD4675
:101AC80090BD00BF80B483B000AF78607B6800220F
:101AD8001A607B6800225A607B6818460C37BD463E
:101AE80080BC7047B0B58CB002AFF860B9603946B9
:101AF80081E80C00FC6807F11003B96818460EF07D
:101B08007DFE07F110056B4607F1380292E80300E5
:101B180083E803003B460CCB29462046FFF742FDED
:101B280007F1100318460EF032FE174AFB681A60D8
:101B3800FB68A43318460EF023FEFB68A433396C07
:101B480018460EF02AFEFB680022A3F8BE20FB68A8
:101B5800102283F8C020FB684FF6E072A3F8BC207F
:101B6800FB68002283F8A020FB6801221A72FB6838
:101B78000022C3F8C420FB68002283F8C120FB6858
:101B880018462837BD46B0BDCC3301082DE9F043CF
:101B980099B002AFF860B960394681E80C0007F1E6
:101BA8002400FB685A6900921B693A4606CAFFF787
:101BB80045FCFB68183307F124021146184600F06B
:101BC8002BFFFB689A69FB681B6AD90F0B445B10F3
:101BD8005B421344FB62FB68DA69FB685B6AD90FF6
:101BE8000B445B105B4213443B6307F1300207F17F
:101BF8002C0107F11C03184600F01BF9FB689A69D1
:101C0800FB681B6AD90F0B445B1013447B63FB68AA
:101C1800DA69FB685B6AD90F0B445B101344BB633A
:101C280007F1380207F1340107F11403184600F0F0
:101C380000F9FB6893F82830002B6AD0FB6893F80A
:101C48008430002B65D0684B00221A80FB6998B25B
:101C58003B6A99B27B699AB2BB699CB2FB68B3F8DC
:101C6800BC300093234605F085FFFB6893F8C0302D
:101C78005B08DBB21C46FB68A43318460EF093FDE4
:101C8800034604FB03F37B65FB6893F8C0303B65B0
:101C9800FB68B3F8BE20544B1A80FB68B3F8BC202D
:101CA800524B1A80FB689B699AB27B6DD90F0B4423
:101CB8005B105B429BB213449DB2FB68DB699AB22E
:101CC8003B6DD90F0B445B105B429BB213449EB231
:101CD8007B6D1FFA83F83B6D1FFA83F9FB6893F855
:101CE800C040FB68A43318460EF05FFD034601931D
:101CF80000944B4642463146284606F02BFBFB69CA
:101D080098B23B6A99B27B699AB2BB699BB206F0FA
:101D18000BF84FF6FF737B644FF6FF73BB6407F154
:101D2800480207F1440107F13C03184600F081F826
:101D38002F4907F13C030CCB03C9FFF79FFB034670
:101D480087F84F30FB68002283F8C120FB6893F8BE
:101D58008430002B26D0FB6893F8A030002B07D0E6
:101D680097F84F30002B03D0FB68012283F8C1207D
:101D78001F4A6B4692E8030083E8030007F1140347
:101D88000CCB07F11C0103C9FFF70CFB0346002B22
:101D980004D0FB68012283F8A02003E0FB6800223E
:101DA80083F8A020FB6893F8C130002B10D0FB68A3
:101DB800D3F8C4305A1CFB68C3F8C420FB688833C6
:101DC80018460EF0F2FC034619460A480FF050FE7A
:101DD800F8683B460CCBB968FFF754FD00BF5C3789
:101DE800BD46BDE8F08300BFF000002004000020DD
:101DF80070060020F82B010880B483B000AF78602B
:101E08007B6893F8C13018460C37BD4680BC7047D4
:101E180080B483B000AF78607B680022C3F8C42028
:101E28007B68002283F8C12000BF0C37BD4680BC08
:101E3800704780B584B000AFF860B9607A60B86860
:101E480000F010F803461A68FB681A60786800F01A
:101E580009F803461A68FB685A60FB681846103789
:101E6800BD4680BD80B483B000AF78607B681846FB
:101E78000C37BD4680BC7047B0B598B002AFF8606B
:101E8800B960394681E80C00FC6807F11803B968A5
:101E980018460EF0B3FC07F118056B4607F1680207
:101EA80092E8030083E803003B460CCB2946204612
:101EB800FFF778FB07F1180318460EF068FC644A30
:101EC800FB681A60FB68AC331846FFF7FBFDFB683C
:101ED80004221A72FB68012283F82820FB684FF657
:101EE800FF72A3F8A820FB68012283F8842001214F
:101EF800FF200FF0A9FB03461A46FB68C3F8A02091
:101F0800FB68D3F8A030396F184610F000F8FB686A
:101F18000022A3F8A620386FFFF778F903469AB293
:101F2800FB68A3F8A420FB6897F8742083F8AA201C
:101F3800FB681B6AFA6892F8AA205208D2B293FB8F
:101F4800F2F3DAB2FB6883F8B420FB685B6AFA68DC
:101F580092F8AA2093FBF2F3DAB2FB6883F8B52073
:101F6800FB6893F8B530FA6892F8B42002FB03F3E3
:101F7800DAB2FB6883F8B62097F874305B08DBB2F6
:101F88001946FB68B3F8A420FB6893F8B4309BB2F9
:101F98009A4203D9FB6893F8B43002E0FB68B3F8BF
:101FA800A43001FB03F33B6397F87430FA68B2F886
:101FB800A420013AF96891F8B41092FBF1F20132C9
:101FC80002FB03F37B6307F1340207F1300107F1E9
:101FD80010031846FFF72DFFFB68B3F8A430002B59
:101FE80014D100233B6400237B6407F1440207F10A
:101FF800400107F138031846FFF71BFF07F13802C5
:1020080007F110031146184600F006FD3B69DA0F88
:1020180013445B105B423B657B69DA0F13445B102A
:102028005B427B6507F1540207F1500107F1480351
:102038001846FFF7FEFEFB68AC3307F1480211466D
:10204800184600F0E9FCFB6818465837BD46B0BD95
:10205800C033010880B586B002AF78600023FB600A
:102068000BE07B680122009218330CCBF968786882
:1020780000F036F9FB680133FB607B68B3F8A430E5
:102088001A46FB689342ECDB00BF00BF1037BD4621
:1020980080BD80B590B000AFF860B96011461A46AF
:1020A8000B46FB711346BB80F868FFF7D3FFFB684C
:1020B800D3F8A030FF22002118460FF059FEFB6824
:1020C800D3F8A030B96818460FF021FFFB6800224A
:1020D800A3F8A620B868FFF799F803469AB2FB68F8
:1020E800A3F8A420FB68FA7983F8AA20FB681B6A86
:1020F800FA6892F8AA205208D2B293FBF2F3DAB245
:10210800FB6883F8B420FB685B6AFA6892F8AA2037
:1021180093FBF2F3DAB2FB6883F8B520FB6893F817
:10212800B530FA6892F8B42002FB03F3DAB2FB6820
:1021380083F8B620FB795B08DBB21946FB68B3F875
:10214800A420FB6893F8B4309BB29A4203D9FB6889
:1021580093F8B43002E0FB68B3F8A43001FB03F352
:10216800BB61FB79FA68B2F8A420013AF96891F8E2
:10217800B41092FBF1F2013202FB03F3FB6107F1A9
:102188001C0207F1180107F110031846FFF751FE6A
:10219800FB68B3F8A430002B14D10023BB620023E2
:1021A800FB6207F12C0207F1280107F1200318460A
:1021B800FFF73FFE07F1200207F11003114618460A
:1021C80000F02AFC3B69DA0F13445B105B42BB63E7
:1021D8007B69DA0F13445B105B42FB6307F13C0237
:1021E80007F1380107F130031846FFF722FEFB68B4
:1021F800AC3307F130021146184600F00DFCFB68BD
:10220800B7F84820A3F8A820FB68012283F8282003
:1022180000BF4037BD4680BD82B080B58EB002AFEA
:10222800F860B9607A60FB63FB681A4600231360A4
:102238005360BB6893F8B4301A467B6893FBF2F19D
:1022480001FB02F29B1ABA6892F8AA205208D2B28D
:1022580002FB03F3BB61BB6893F8B4301A467B6892
:1022680093FBF2F3BA6892F8AA2002FB03F3FB612E
:1022780007F11C0207F1180107F110031846FFF7D0
:10228800D8FD07F110031946F86800F0C5FB07F1FF
:102298002000BB68FA68D3F8B0100091D3F8AC30CE
:1022A80006CAFFF7CBF807F120031946F86800F0D3
:1022B800B3FB07F12800FA683B6C0093FB6B06CA76
:1022C800FFF7BCF807F128031946F86800F0A4FBEB
:1022D80000BFF8683037BD46BDE8804002B070479F
:1022E80090B58BB002AFF860B960394681E80C0050
:1022F800BB68002B59DBFB68B3F8A4301A46BB68EF
:10230800934252DA07F110007B6800933B68BA6881
:10231800F968FFF781FFFB6893F8AA305B08DBB226
:10232800FB61FB6893F8AA30BB61FB68B3F8A62091
:10233800204B1A80FB68B3F8A8201F4B1A8097F827
:102348003030002B07D1FB68D3F8A020BB681344BA
:102358001B78002B17D13B6998B27B6999B23B690E
:102368009AB2FB699BB213449CB27B699AB2BB696F
:102378009BB213449AB2104B1B8800931346224613
:1023880005F0F8FB12E03B6998B27B6999B2FB68EB
:10239800D3F8A020BB6813441A78FB6893F8AA30D6
:1023A8000124009405F088FD00E000BF2437BD46F5
:1023B80090BD00BFF00000200400002080B58AB066
:1023C80002AFF860B960394681E80C0007F11400E3
:1023D800FB685A6900921B693A4606CAFFF72EF84D
:1023E800FB68183307F114021146184600F014FB75
:1023F800FB6893F82830002B30D0FB6893F88430C2
:10240800002B2BD00023FB6114E0FB680122009213
:1024180018330CCBF969F868FFF762FFFB680022F4
:10242800009218330CCBF969F868FFF759FFFB697C
:102438000133FB61FB68B3F8A4301A46FB69934289
:10244800E3DBFB68883318460EF0AFF90146FB68FA
:10245800B3F8A4301A4606480FF00AFBF8683B4662
:102468000CCBB968FFF70EFA00BF2037BD4680BD18
:10247800B42C0108B0B58CB002AFF860B960394629
:1024880081E80C00FC6807F11003B96818460EF0E3
:10249800B5F907F110056B4607F1380292E8030019
:1024A80083E803003B460CCB29462046FFF77AF821
:1024B80007F1100318460EF06AF9154AFB681A600E
:1024C800FB68A43318460EF05BF9FB68A433796CFB
:1024D80018460EF062F9FB680022A3F8BE20FB68DC
:1024E800102283F8C020FB684FF6E072A3F8BC20E6
:1024F800FB68002283F8A020FB6801221A72FB689F
:102508000022C3F8C420FB6818462837BD46B0BD72
:10251800B43301082DE9F04399B002AFF860B9600F
:10252800394681E80C0007F12400FB685A690092DB
:102538001B693A4606CAFEF781FFFB68183307F1A4
:1025480024021146184600F067FAFB689A69FB688E
:102558001B6AD90F0B445B105B421344FB62FB6898
:10256800DA69FB685B6AD90F0B445B105B42134462
:102578003B6307F1300207F12C0107F11C031846F1
:10258800FFF757FCFB689A69FB681B6AD90F0B4475
:102598005B1013447B63FB68DA69FB685B6AD90FDD
:1025A8000B445B101344BB6307F1380207F1340195
:1025B80007F114031846FFF73CFCFB6893F8283032
:1025C800002B62D0FB6893F88430002B5DD0644BFD
:1025D80000221A80FB6998B23B6A99B2FB681B6AB1
:1025E8009AB2FB685B6A9CB2FB68D3F8C830009368
:1025F800234605F0FCFEFB6893F8C0305B08DBB2AD
:102608001C46FB68A43318460EF0CDF8034604FBBD
:1026180003F37B65FB6893F8C0303B65FB68B3F850
:10262800BE204F4B1A80FB68B3F8BC204D4B1A8074
:10263800FB689B699AB27B6DD90F0B445B105B42B8
:102648009BB213449DB2FB68DB699AB23B6DD90F0C
:102658000B445B105B429BB213449EB27B6D1FFA26
:1026680083F83B6D1FFA83F9FB6893F8C040FB6859
:10267800A43318460EF099F80346019300944B468C
:1026880042463146284605F065FE4FF6FF737B64E7
:102698004FF6FF73BB6407F1480207F1440107F1E5
:1026A8003C031846FFF7C5FB2F4907F13C030CCB49
:1026B80003C9FEF7E3FE034687F84F30FB680022A4
:1026C80083F8C120FB6893F88430002B26D0FB6880
:1026D80093F8A030002B07D097F84F30002B03D089
:1026E800FB68012283F8C1201F4A6B4692E8030069
:1026F80083E8030007F114030CCB07F11C0103C99D
:10270800FEF750FE0346002B04D0FB68012283F835
:10271800A02003E0FB68002283F8A020FB6893F860
:10272800C130002B10D0FB68D3F8C4305A1CFB68AA
:10273800C3F8C420FB68883318460EF036F8034601
:1027480019460A480FF094F9F8683B460CCBB9686B
:10275800FFF798F800BF5C37BD46BDE8F08300BFBF
:10276800F00000200400002070060020F82B01086B
:10277800B0B58CB002AFF860B960394681E80C009A
:10278800FC6807F11003B96818460EF037F807F12E
:1027980010056B4607F1380292E8030083E803004E
:1027A8003B460CCB29462046FEF7FCFE07F11003FA
:1027B80018460DF0ECFF064AFB681A60FB68B7F88C
:1027C8004020A3F8A020FB6818462837BD46B0BDB6
:1027D800A833010890B591B002AFF860B9603946E6
:1027E80081E80C0007F12000FB685A6900921B6918
:1027F8003A4606CAFEF722FEFB68183307F12002A4
:102808001146184600F008F9FB689A69FB681B6ACC
:10281800D90F0B445B105B421344BB62FB68DA6957
:10282800FB685B6AD90F0B445B105B421344FB6285
:1028380007F12C0207F1280107F118031846FFF7E2
:10284800F8FAFB689A69FB681B6AD90F0B445B109E
:1028580013443B63FB68DA69FB685B6AD90F0B4476
:102868005B1013447B6307F1340207F1300107F171
:1028780010031846FFF7DDFAFB6893F82830002BA1
:1028880020D0FB6893F88430002B1BD0124B002219
:102898001A80BB6998B2FB6999B23B699AB27B69A5
:1028A8009CB2FB68B3F8A0300093234605F062F9A8
:1028B800BB6998B2FB6999B23B699AB27B699BB2D2
:1028C80005F032FAF8683B460CCBB968FEF7DAFF38
:1028D80000BF3C37BD4690BDF000002080B483B0F7
:1028E80000AF786039607B681A783B681B789A4239
:1028F8000CBF01230023DBB218460C37BD4680BC51
:10290800704780B584B000AF78600023FB6002E0B8
:10291800FB680133FB607A68FB6813440022FA7293
:1029280007F10B0211461846FFF7D8FF034683F05C
:102938000103DBB2002BEBD1FB6818461037BD460C
:1029480080BDB0B586B000AFF860B9607A60FC6849
:10295800F8680DF0A7FE03467A68194620460DF080
:1029680026FFBB68002B06D0B868FEF757FC024666
:10297800BB68134400E001237B612B467A69B96880
:10298800F86800F08BF8FB6818461837BD46B0BDEC
:1029980080B483B000AF78607B6818460C37BD46BA
:1029A80080BC704780B584B000AFF860B9607A60C9
:1029B800B868FFF7EDFF03461B681846FEF7E0FB13
:1029C8000246FB681A607868FFF7E2FF03461B6857
:1029D8001846FEF7D5FB0246FB685A60FB681846A6
:1029E8001037BD4680BD80B584B000AFF860B960CF
:1029F8007A60B86800F09AF803461A68FB681A60AB
:102A0800786800F093F803461A68FB685A60FB6818
:102A180018461037BD4680BD80B582B000AF7860DB
:102A280039603B681846FFF71DFA03461A687B6849
:102A38001A603B6804331846FFF714FA03461A680D
:102A48007B685A607B6818460837BD4680BD80B4ED
:102A580083B000AF786039603B681A687B681A6099
:102A68003B685A687B685A607B6818460C37BD46D5
:102A780080BC7047B0B582B000AF786039607C68C0
:102A88003B1D184600F06BF82A463968204600F0CE
:102A98006FF8034618460837BD46B0BD80B586B006
:102AA80000AFF860B9607A603B70B86800F048F829
:102AB8000346002B05D0BA687B689A4201D00123EF
:102AC80000E00023002B02D017480DF0DDFD7968E7
:102AD800B868FFF7CFFF03467B617B690F2B10D9DE
:102AE80007F1140300221946F8680DF0E5FD0346C6
:102AF8001946F8680DF0D2FD7B691946F8680DF0A3
:102B0800D3FDF8680DF0CCFD03467A68B96818461D
:102B18000DF00BFE7B691946F8680DF0C7FD00BF84
:102B28001837BD4680BD00BFCC2C010880B483B0E7
:102B380000AF78607B6818460C37BD4680BC70478C
:102B480080B483B000AF78607B68002B0CBF012392
:102B58000023DBB218460C37BD4680BC704780B4F2
:102B680083B000AF786018460C37BD4680BC70470C
:102B780080B485B000AFF860B9603A71BA68FB6894
:102B8800D31A18461437BD4680BC7047B0B5BAB0E2
:102B980004AFF860B960394681E80C00FC6807F1B9
:102BA8001003B96818460DF029FE07F110056B46A9
:102BB80007F1E80292E8030083E803003B460CCBE8
:102BC80029462046FEF7EEFC07F1100318460DF0E3
:102BD800DEFD774AFB681A60FB6803F1A00407F181
:102BE800400318460DF048FD07F1400207F128039D
:102BF80070491846FFF7A5FE6FF03B03FB640023FE
:102C08003B6507F1500207F14C0107F144031846F0
:102C1800FFF70FF97823FB6528233B6607F160026D
:102C280007F15C0107F154031846FFF702F907F1B1
:102C38007C0318460DF020FD07F17C0207F16403C0
:102C48005D491846FFF77DFE07F1280507F1640383
:102C580002936A4607F1540393E8030082E80300ED
:102C680007F144030CCB29462046FEF73BFF07F14A
:102C7800640318460DF08BFD07F17C0318460DF030
:102C8800FCFC07F1280318460DF081FD07F140030D
:102C980018460DF0F2FCFB6803F5B47407F19803CD
:102CA80018460DF0E9FC07F1980207F18003434943
:102CB8001846FFF746FE3C23C7F8A4300023C7F8A0
:102CC800A83007F1A80207F1A40107F19C031846F0
:102CD800FFF7AFF87823C7F8B4302823C7F8B8301F
:102CE80007F1B80207F1B40107F1AC031846FFF782
:102CF800A0F807F1D40318460DF0BEFC07F1D40282
:102D080007F1BC032E491846FFF71BFE07F18005A3
:102D180007F1BC0302936A4607F1AC0393E803008A
:102D280082E8030007F19C030CCB29462046FEF7F6
:102D3800D9FE07F1BC0318460DF029FD07F1D403AD
:102D480018460DF09AFC07F1800318460DF01FFD98
:102D580007F1980318460DF090FCFB68062283F8EB
:102D68003022FB68182283F86021FB68182283F858
:102D78002822FA68FB68A03319461046FEF7C6FCFD
:102D8800FA68FB6803F5B47319461046FEF7BEFCF3
:102D9800FB6848F23042A3F85C21FB6848F23042F5
:102DA800A3F82422FB681846D837BD46B0BD00BF3B
:102DB800F0330108F82C0108002D0108082D01083E
:102DC800102D010880B584B000AFF860B9603946AD
:102DD80081E80C00FB68A0331846FFF70DF803469E
:102DE800002B02D00C4B01221A70FB6803F5B47358
:102DF8001846FFF701F80346002B02D0064B0122C4
:102E08005A70F8683B460CCBB968FEF73BFD00BF2B
:102E18001037BD4680BD00BFAC060020B0B5B4B0C9
:102E280004AFF860B960394681E80C00FC6807F126
:102E38001403B96818460DF0E1FC07F114056B4658
:102E480007F1D00292E8030083E803003B460CCB6D
:102E580029462046FEF7A6FB07F1140318460DF095
:102E680096FC614AFB681A60FB6803F1A00407F14D
:102E7800440318460DF000FC07F1440207F12C0347
:102E88005A491846FFF75DFD00233B656FF045037F
:102E98007B6507F1540207F1500107F14803184612
:102EA800FEF7C7FFE7233B663C237B6607F1640216
:102EB80007F1600107F158031846FEF7BAFF07F15A
:102EC8002C05182303934A4B02936A4607F15803CB
:102ED80093E8030082E8030007F148030CCB294676
:102EE8002046FEF7C9FF07F12C0318460DF04FFCEA
:102EF80007F1440318460DF0C0FBFB6803F5AC74FA
:102F080007F1800318460DF0B7FB07F1800207F1BF
:102F1800680338491846FFF714FD0023C7F88C30BA
:102F28006423C7F8903007F1900207F18C0107F18C
:102F380084031846FEF77DFF7823C7F89C302823C2
:102F4800C7F8A03007F1A00207F19C0107F194032C
:102F58001846FEF76EFF07F1BC0318460DF08CFB10
:102F680007F1BC0207F1A40323491846FFF7E9FC5F
:102F780007F1680507F1A40302936A4607F1940371
:102F880093E8030082E8030007F184030CCB294689
:102F98002046FEF7A7FD07F1A40318460DF0F7FB3E
:102FA80007F1BC0318460DF068FB07F168031846E3
:102FB8000DF0EDFB07F1800318460DF05EFBFA6893
:102FC800FB68A03319461046FEF7A0FBFA68FB68B9
:102FD80003F5AC7319461046FEF798FBFB681846D4
:102FE800C037BD46B0BD00BFE4330108182D010845
:102FF800202D01082C2D0108342D010880B584B03E
:1030080000AFF860B960394681E80C00F8683B46C3
:103018000CCBB968FEF736FCFB6803F5AC731846B1
:10302800FEF7EAFE03461A46024BDA7000BF103775
:10303800BD4680BDAC06002082B080B58CB000AF24
:10304800F860381D80E80600FB637A68FB6BD31ACA
:10305800BB61BA683B6CD31AFB6107F11C0207F12C
:10306800180107F110031846FEF7E3FE7A68FB6BB8
:103078001344BB62BA683B6C1344FB6207F12C0231
:1030880007F1280107F120031846FEF7D2FE07F1E1
:10309800200207F110031946F86801F017FFF868D5
:1030A8003037BD46BDE8804002B0704780B483B079
:1030B80000AF3B4683E803003B68EF2B03DC7B68EB
:1030C800B3F5B47F01DB002308E03B68002B02DB8B
:1030D8007B68002B01DA002300E0012318460C3737
:1030E800BD4680BC70470000B0B58CB002AFF86038
:1030F800B960394681E80C00FC6807F11003B9682B
:1031080018460DF07BFB07F110056B4607F13802F6
:1031180092E8030083E803003B460CCB294620468F
:10312800FEF740FA07F1100318460DF030FB304A5D
:10313800FB681A60FB68A8331846FEF7C3FCFB68F7
:10314800B0331846FEF7BEFCFB68C0331846FEF7DE
:10315800B9FCFB68C8331846FEF7B4FCFB680822C4
:1031680083F8D020FB68A83307F14C0211461846B3
:10317800FFF76DFCFB68B03307F1440211461846AF
:10318800FFF765FCFB6803F11002FB68C8331146C2
:103198001846FFF75CFCFB68C03316491846FFF772
:1031A80056FCBB6BFA6B02FB03F3134A934201D83C
:1031B8005B0001E04FF0FF3318460DF05BFA034661
:1031C8001A46FB68C3F8B820FB68002283F8BC20C5
:1031D8000A4B01221A70FB68002283F8A020FB68C2
:1031E8003A6CC3F8D420FB6818462837BD46B0BDF2
:1031F800BC1E020870060020FCFFFF3FDC00002018
:1032080090B58DB000AF78607B689A697B681B6A5F
:10321800D90F0B445B105B421344BB617B68DA69CE
:103228007B685B6AD90F0B445B105B421344FB61FC
:1032380007F11C0207F1180107F110031846FEF701
:10324800F8FD7B689A697B681B6AD90F0B445B1091
:1032580013443B627B68DA697B685B6AD90F0B446D
:103268005B1013447B6207F1240207F1200107F188
:1032780008031846FEF7DDFD3B69FB622AE07B691F
:10328800BB6220E0FB6A9BB2BA6A92B2114618464A
:1032980003F06AFF034618467B68D3F8B8203B69F9
:1032A800F96ACB1A7968496A03FB01F1BB6A1944C8
:1032B8007B69CB1A5B00D41803F01CFF03462380FC
:1032C800BB6A0133BB62FB68BA6A9A42DADBFB6A03
:1032D8000133FB62BB68FA6A9A42D0DB00BF00BFC9
:1032E8003437BD4690BD90B58DB000AF78607B682F
:1032F8009A697B681B6AD90F0B445B105B421344C5
:10330800BB617B68DA697B685B6AD90F0B445B1029
:103318005B421344FB6107F11C0207F1180107F136
:1033280010031846FEF785FD7B689A697B681B6A5F
:10333800D90F0B445B1013443B627B68DA697B68E6
:103348005B6AD90F0B445B1013447B6207F12402BC
:1033580007F1200107F108031846FEF76AFD3B69EB
:10336800FB6225E07B69BB621BE0FB6A98B2BB6A23
:103378009CB27B68D3F8B8203B69F96ACB1A7968A4
:10338800496A03FB01F1BB6A19447B69CB1A5B00EC
:1033980013441B881A46214604F02EF9BB6A0133F0
:1033A800BB62FB68BA6A9A42DFDBFB6A0133FB62E5
:1033B800BB68FA6A9A42D5DB00BF00BF3437BD4606
:1033C80090BD0000F0B5BDB006AFF860B9603946F1
:1033D80081E80C0007F14000FB685A6900921B69FC
:1033E8003A4606CAFEF72AF8FB68183307F1400286
:1033F80011461846FFF710FB07F13800FB68D3F8B1
:10340800CC200092D3F8C8303A4606CAFEF716F820
:10341800A44B1B6803F00103002B09D1A24AFB68E7
:10342800103393E8030082E803009E4B01221A60E0
:10343800FB689A69FB681B6AD90F0B445B105B42F7
:103448001344BB64FB68DA69FB685B6AD90F0B44F9
:103458005B105B421344FB6407F14C0207F148011F
:1034680007F130031846FEF7E4FCFB689A69FB682D
:103478001B6AD90F0B445B1013443B65FB68DA6980
:10348800FB685B6AD90F0B445B1013447B6507F13B
:10349800540207F1500107F128031846FEF7C9FC4A
:1034A800FB6893F88430002B00F0B2817F4A6B46AA
:1034B80092E8030083E8030007F128030CCB07F127
:1034C800300103C9FDF76EFF0346002B04D0FB68EB
:1034D800012283F8A02003E0FB68002283F8A020E3
:1034E800FB6893F8A030002B08D0714B1B78002B99
:1034F80004D0FB68012283F8BC2007E06D4B1B78E1
:10350800002B03D0FB68002283F8BC203A68BB6814
:103518001B6AD90F0B445B105B421344BB657A6886
:10352800BB685B6AD90F0B445B105B421344FB65B5
:1035380007F15C0207F1580107F120031846FEF76E
:1035480078FC3A68BB681B6AD90F0B445B101344BC
:103558003B667A68BB685B6AD90F0B445B101344FF
:103568007B6607F1640207F1600107F1180318464A
:10357800FEF75FFCFB6893F8BC30002B60D04B4B28
:1035880093E80300FFF792FD0346002B58D0FB6831
:103598001B6ADA0F13445B103B67FB685B6ADA0F40
:1035A80013445B107B6707F1740207F1700107F1A0
:1035B80068031846FEF73DFC07F17800FB6E0093A0
:1035C800BB6E07F1200206CAFDF738FFFB681B6ACD
:1035D800DA0F13445B105B42013BC7F88830FB6885
:1035E8005B6ADA0F13445B105B42013BC7F88C300F
:1035F80007F18C0207F1880107F180031846FEF7EE
:1036080018FC07F19000D7F884300093D7F8803081
:1036180007F1180206CAFDF711FF244A6B4692E823
:10362800030083E8030007F190030CCB07F178014E
:1036380003C9FDF7B7FE0346002B01D0012300E0C4
:103648000023002B00F0E480184B1A683B68D31A5B
:10365800C7F89830154B5A687B68D31AC7F89C305E
:1036680007F19C0207F1980107F110031846FEF7CD
:10367800E0FBFB6803F1100207F11003114618463E
:1036880001F03DFC0346002B16D0074907F1100353
:103698000CCB03C9FDF720FF0346022B0CD90123ED
:1036A8000BE000BFE8000020E000002070060020CA
:1036B800DC000020780600200023002B00F0A88002
:1036C80007F1100319468D48FFF7C1F9F868FFF7AD
:1036D8000AFEFB68103307F1100211461846FFF77F
:1036E800B6F907F1A000FB685A6900921B693A46CF
:1036F80006CAFDF7A3FEFB68183307F1A0021146BE
:103708001846FFF789F9F868FFF77AFDFB689A69A8
:10371800FB681B6AD90F0B445B105B421344C7F864
:10372800B030FB68DA69FB685B6AD90F0B445B1041
:103738005B421344C7F8B43007F1B40207F1B00193
:1037480007F1A8031846FEF774FB07F1A80207F172
:10375800300311461846FFF75FF9FB689A69FB6862
:103768001B6AD90F0B445B101344C7F8C030FB68C1
:10377800DA69FB685B6AD90F0B445B101344C7F81E
:10378800C43007F1C40207F1C00107F1B8031846B5
:10379800FEF74FFB07F1B80207F128031146184658
:1037A800FFF73AF93B6B9DB27B6B9EB2FB68D3F88F
:1037B800B0301FFA83FCFB68D3F8B4301FFA83FEDD
:1037C800FB68D3F8A8309BB2FA68D2F8AC2092B262
:1037D800F968D1F8A81088B2F968096A89B2014471
:1037E80089B2F868D0F8AC0084B2F868406A80B250
:1037F800204480B2FC68D4F8D44004940390029129
:1038080001920093734662463146284604F026FE2C
:10381800FB6893F82830002B40D0FB6893F884307D
:10382800002B3BD0364B00221A80F868FFF7E8FCE3
:103838003B6B9DB27B6B9EB2FB68D3F8B0301FFA2E
:1038480083FCFB68D3F8B4301FFA83FEFB68D3F817
:10385800A8309BB2FA68D2F8AC2092B2F968D1F8D5
:10386800A81088B2F968096A89B2014489B2F8686F
:10387800D0F8AC0084B2F868406A80B2204480B2C4
:10388800FC68D4F8D4400494039002910192009308
:10389800734662463146284604F0E0FD07F1C80346
:1038A800184A19491846FFF79EF8FB68C03307F114
:1038B800C80211461846FFF7AFF8FB6803F110017C
:1038C800FB6803F1140207F1D0031846FFF78BF8E1
:1038D800FB68C83307F1D00211461846FFF79CF879
:1038E8000A4B1A780A4B1A70F8683B460CCBB96831
:1038F800FDF7C8FF00BFDC37BD46F0BDE000002083
:10390800F0000020740600207006002078060020D1
:10391800DC000020B0B5ADF57A7D08AF07F572740C
:10392800A4F56F74206007F57270A0F570700160DF
:1039380007F57271A1F5727181E80C0007F57273D1
:10394800A3F56F731C6807F57273A3F5707307F11D
:103958002402196810460CF051FF07F57273A3F59D
:10396800727307F124056A4607F5767103C982E880
:1039780003000CCB29462046FDF714FE07F124036B
:1039880018460CF004FFE64A07F57273A3F56F7347
:103998001B681A6007F57273A3F56F731B6803F150
:1039A800A00407F1540318460CF066FE07F1540210
:1039B80007F13C03DB491846FEF7C3FF002207F571
:1039C8007273A3F55A731A60002207F57273A3F590
:1039D80059731A6007F1640207F1600107F158038F
:1039E8001846FEF726FAE72207F57273A3F5567311
:1039F8001A60822207F57273A3F555731A6007F1EE
:103A0800740207F1700107F168031846FEF711FA0E
:103A180007F1900318460CF02FFE07F1900207F10A
:103A28007803C1491846FEF78CFF07F57273A3F5B2
:103A38005C7307F13C0507F17802039200220292B9
:103A480007F57272A2F558716A4603C982E8030045
:103A58000CCB29462046FEF70DFD07F178031846E2
:103A68000CF095FE07F1900318460CF006FE07F1DE
:103A78003C0318460CF08BFE07F1540318460CF073
:103A8800FCFD07F57273A3F56F731B6803F5B67435
:103A980007F1AC0318460CF0EFFD07F1AC0207F193
:103AA8009403A2491846FEF74CFF6FF0130207F57E
:103AB8007273A3F544731A60002207F57273A3F5B5
:103AC80043731A6007F1BC0207F1B80107F1B003AC
:103AD8001846FEF7AEF91E2207F57273A3F5407378
:103AE8001A601E2207F57273A3F53F731A6007F177
:103AF800CC0207F1C80107F1C0031846FEF799F98F
:103B0800E72207F57273A3F53C731A60822207F562
:103B18007273A3F53B731A6007F1DC0207F1D80151
:103B280007F1D0031846FEF784F9642207F572738B
:103B3800A3F538731A601E2207F57273A3F537735D
:103B48001A6007F1EC0207F1E80107F1E0031846F3
:103B5800FEF76FF907F57273A3F5467307F194053D
:103B680007F57272A2F53A7105AA03C982E8030043
:103B780007F57272A2F53E7103AA03C982E8030031
:103B88000022029207F57272A2F542716A4603C9D1
:103B980082E803000CCB29462046FFF7A5FA07F177
:103BA800940318460CF0F3FD07F1AC0318460CF02B
:103BB80064FD07F57273A3F56F731B6803F5117441
:103BC80007F5847318460CF057FD07F5847207F162
:103BD800F00357491846FEF7B4FE002207F5727342
:103BE800A3F52D731A60002207F57273A3F52C73E1
:103BF8001A6007F58C7207F58A7107F586731846FF
:103C0800FEF717F91E2207F57273A3F529731A60D8
:103C18001E2207F57273A3F528731A6007F59472CC
:103C280007F5927107F58E731846FEF702F907F546
:103C38007273A3F52F7307F1F0054FF6FF72029226
:103C480007F57272A2F52B716A4603C982E8030070
:103C58000CCB29462046FEF78BFD07F1F0031846EA
:103C68000CF095FD07F5847318460CF006FD07F572
:103C78007273A3F56F731B68072283F8E82207F5B0
:103C88007273A3F56F731B6803F53B73184601F055
:103C980047F907F57273A3F56F731B680422C3F81D
:103CA800FC2207F57273A3F56F731B6803F5407464
:103CB80007F5A27318460CF0DFFC07F5A27207F5AA
:103CC80096731C491846FEF73CFE002207F57273EE
:103CD800A3F51E731A606FF0630207F57273A3F5FC
:103CE8001D731A6007F5AA7207F5A87107F5A47382
:103CF8001846FEF79EF8E72207F57273A3F51A73C4
:103D08001A603C2207F57273A3F519731A6007F558
:103D1800B27207F5B07107F5AC7318460CE000BF36
:103D2800B01E0208682D0108702D0108742D0108C5
:103D38007C2D0108842D0108FEF77BF807F57273C6
:103D4800A3F5207307F5967518220392E34A0292A9
:103D580007F57272A2F51C716A4603C982E803006E
:103D68000CCB29462046FEF787F807F596731846C8
:103D78000CF00DFD07F5A27318460CF07EFC07F554
:103D88007273A3F56F731B6803F56E7407F5C07340
:103D980018460CF071FC07F5C07207F5B473D049EA
:103DA8001846FEF7CEFD002207F57273A3F50F73D0
:103DB8001A60552207F57273A3F50E731A6007F59A
:103DC800C87207F5C67107F5C2731846FEF731F8D1
:103DD800E72207F57273A3F50B731A60182207F52B
:103DE8007273A3F50A731A6007F5D07207F5CE71DE
:103DF80007F5CA731846FEF71CF807F57273A3F5A2
:103E0800117307F5B47510220392B64A029207F5AA
:103E18007272A2F50D716A4603C982E803000CCBE1
:103E280029462046FEF728F807F5B47318460CF023
:103E3800AEFC07F5C07318460CF01FFC07F572734B
:103E4800A3F56F731B6803F58E6407F5DE731846D8
:103E58000CF012FC07F5DE7207F5D273A24918467A
:103E6800FEF76FFD002207F57273A3F500731A6061
:103E7800732207F57273A3F5FE731A6007F5E672ED
:103E880007F5E47107F5E0731846FDF7D2FFE7225E
:103E980007F57273A3F5F8731A60182207F57273A1
:103EA800A3F5F6731A6007F5EE7207F5EC7107F5DE
:103EB800E8731846FDF7BDFF07F57273A3F50273A3
:103EC80007F5D27510220392884A029207F572729A
:103ED800A2F5FC716A4603C982E803000CCB2946A7
:103EE8002046FDF7C9FF07F5D27318460CF04FFCC2
:103EF80007F5DE7318460CF0C0FB07F57273A3F5DF
:103F08006F731B6803F5A56407F5FC7318460CF07E
:103F1800B3FB07F5FC7207F5F07375491846FEF711
:103F280010FD002207F57273A3F5E2731A6055229B
:103F380007F57273A3F5E0731A6007F5027207F5C7
:103F4800017107F5FE731846FDF773FFE72207F5C1
:103F58007273A3F5DA731A60182207F57273A3F562
:103F6800D8731A6007F5067207F5057107F503732C
:103F78001846FDF75EFF07F57273A3F5E67307F5BC
:103F8800F075102203925B4A029207F57272A2F54D
:103F9800DE716A4603C982E803000CCB2946204635
:103FA800FDF76AFF07F5F07318460CF0F0FB07F50C
:103FB800FC7318460CF061FB07F57273A3F56F7379
:103FC8001B6803F5BC6407F50D7318460CF054FB29
:103FD80007F50D7207F5077347491846FEF7B1FC58
:103FE800002207F57273A3F5C4731A60732207F5EC
:103FF8007273A3F5C2731A6007F5117207F5107191
:1040080007F50E731846FDF714FFE72207F57273DC
:10401800A3F5BC731A60182207F57273A3F5BA7377
:104028001A6007F5157207F5147107F5127318462B
:10403800FDF7FFFE07F57273A3F5C87307F507755B
:10404800102203922D4A029207F57272A2F5C071EE
:104058006A4603C982E803000CCB29462046FDF7CF
:104068000BFF07F5077318460CF091FB07F50D7366
:1040780018460CF002FB07F57273A3F56F731B6803
:1040880003F5D36407F51C7318460CF0F5FA07F529
:104098001C7207F516731A491846FEF752FC0022DF
:1040A80007F57273A3F5A6731A60552207F57273A4
:1040B800A3F5A4731A6007F5207207F51F7107F5B9
:1040C8001D731846FDF7B5FEE72207F57273A3F5D1
:1040D8009E731A60182207F5727313E08C2D01087D
:1040E8009C2D0108A42D0108BC2D0108C42D010830
:1040F800E02D0108E82D0108002E0108082E01080E
:10410800182E0108A3F59C731A6007F5247207F5A9
:10411800237107F521731846FDF78BFE07F57273B7
:10412800A3F5AA7307F5167510220392EA4A0292BC
:1041380007F57272A2F5A2716A4603C982E8030004
:104148000CCB29462046FDF797FE07F5167318464F
:104158000CF01DFB07F51C7318460CF08EFA07F5DA
:104168007273A3F56F731B6803F5EA6407F52B7385
:1041780018460CF081FA07F52B7207F52573D74915
:104188001846FEF7DEFB002207F57273A3F5887365
:104198001A60732207F57273A3F586731A6007F520
:1041A8002F7207F52E7107F52C731846FDF741FE9F
:1041B800E72207F57273A3F580731A601823C7F80E
:1041C800CC3207F5337207F5327107F530731846AC
:1041D800FDF72FFE07F57273A3F58C7307F52575A8
:1041E80010220392BE4A029207F57272A2F58471F8
:1041F8006A4603C982E803000CCB29462046FDF72E
:104208003BFE07F5257318460CF0C1FA07F52B732A
:1042180018460CF032FA07F57273A3F56F731B6832
:1042280003F6080407F53A7318460CF025FA07F563
:104238003A7207F53473AB491846FEF782FB002340
:10424800C7F8F4325523C7F8F83207F53E7207F578
:104258003D7107F53B731846FDF7EBFDE723C7F8FB
:1042680004331823C7F8083307F5427207F541717C
:1042780007F53F731846FDF7DCFD07F53475102385
:104288000393994B02936A4607F53F7393E803003B
:1042980082E8030007F53B730CCB29462046FDF75F
:1042A800EBFD07F5347318460CF071FA07F53A730D
:1042B80018460CF0E2F907F57273A3F56F731B68E3
:1042C80003F50C6407F5497318460CF0D5F907F5A2
:1042D800497207F5437385491846FEF732FB0023F8
:1042E800C7F830337323C7F8343307F54D7207F531
:1042F8004C7107F54A731846FDF79BFDE723C7F88D
:1043080040331823C7F8443307F5517207F5507145
:1043180007F54E731846FDF78CFD07F54375102316
:104328000393734B02936A4607F54E7393E80300B1
:1043380082E8030007F54A730CCB29462046FDF7AF
:104348009BFD07F5437318460CF021FA07F54973EE
:1043580018460CF092F907F57273A3F56F731B6892
:1043680003F6781407F5587318460CF085F907F525
:10437800587207F552735F491846FEF7E2FA0023B0
:10438800C7F86C336423C7F8703307F55C7207F518
:104398005B7107F559731846FDF74BFD7823C7F88D
:1043A8007C333C23C7F8803307F5607207F55F71EB
:1043B80007F55D731846FDF73CFD07F5677318466A
:1043C8000CF05AF907F5677207F561734949184601
:1043D800FEF7B7FA07F5527507F5617302936A4657
:1043E80007F55D7393E8030082E8030007F5597346
:1043F8000CCB29462046FDF775FB07F56173184677
:104408000CF0C5F907F5677318460CF036F907F58F
:10441800527318460CF0BBF907F5587318460CF0A0
:104428002CF907F57273A3F56F731B68324AC3F84A
:10443800682107F57273A3F56F731B682E4AC3F8DA
:10444800402207F57273A3F56F731B68D3F8C03069
:10445800DA0F13445B105B421A461E231344C7F855
:10446800A03307F57273A3F56F731B68D3F8C030D8
:10447800DA0F13445B101A461E23D31AC7F8A43365
:1044880007F5697207F5687107F11C031846FDF70F
:10449800D0FC07F57273A3F56F731B68D3F8C430AB
:1044A800DA0F13445B105B421A461E231344C7F805
:1044B800A83307F57273A3F56F731B68D3F8C4307C
:1044C800DA0F13445B101A461E23D31AC7F8AC330D
:1044D80007F56B7212E000BF202E01083C2E010880
:1044E800442E01085C2E0108642E01087C2E010868
:1044F800842E0108942E0108F433010807F56A7127
:1045080007F114031846FDF794FC07F56C7007F5DE
:104518007273A3F56D7307F57272A2F56B72596821
:1045280000911B6806CAFDF701F807F57273A3F539
:104538006F731B6803F5157307F56C7211461846FF
:10454800FEF76AFA07F57273A3F56F731B68D3F861
:10455800541207F57273A3F56F731B68D3F85832BA
:104568001A46B0480DF084FA07F56E70AE4B07F5A1
:104578007272A2F56F721268596800911B6802F591
:10458800157206CAFEF758FD07F57273A3F56F7327
:104598001B6803F53B7307F56E721146184600F069
:1045A800D1FC07F57273A3F56F731A6807F5727378
:1045B800A3F56F731B68A03319461046FDF7A6F8DC
:1045C80007F57273A3F56F731A6807F57273A3F58D
:1045D8006F731B6803F5407319461046FDF796F88C
:1045E80007F57273A3F56F731B6803F1A00207F553
:1045F8007273A3F56F731B6803F5117319461046A0
:10460800FDF784F807F57273A3F56F731B6803F160
:10461800A00207F57273A3F56F731B6803F5B673F1
:1046280019461046FDF772F807F57273A3F56F7314
:104638001A6807F57273A3F56F731B6803F56E7339
:1046480019461046FDF762F807F57273A3F56F7304
:104658001A6807F57273A3F56F731B6803F58E6309
:1046680019461046FDF752F807F57273A3F56F73F4
:104678001A6807F57273A3F56F731B6803F5A563D2
:1046880019461046FDF742F807F57273A3F56F73E4
:104698001A6807F57273A3F56F731B6803F5BC639B
:1046A80019461046FDF732F807F57273A3F56F73D4
:1046B8001A6807F57273A3F56F731B6803F5D36364
:1046C80019461046FDF722F807F57273A3F56F73C4
:1046D8001A6807F57273A3F56F731B6803F5EA632D
:1046E80019461046FDF712F807F57273A3F56F73B4
:1046F8001A6807F57273A3F56F731B6803F608034E
:1047080019461046FDF702F807F57273A3F56F73A3
:104718001A6807F57273A3F56F731B6803F50C63CA
:1047280019461046FCF7F2FF07F57273A3F56F738D
:104738001A6807F57273A3F56F731B6803F678138D
:1047480019461046FCF7E2FF07F57273A3F56F737D
:104758001B6803F56E7300211846FDF727F807F567
:104768007273A3F56F731B6803F58E6300211846F7
:10477800FDF71CF807F57273A3F56F731B6803F553
:10478800A56300211846FDF711F807F57273A3F524
:104798006F731B6803F5BC6300211846FDF706F824
:1047A80007F57273A3F56F731B6803F5D3630021D4
:1047B8001846FCF7FBFF07F57273A3F56F731B68C8
:1047C80003F5EA6300211846FCF7F0FF07F572735A
:1047D800A3F56F731B6803F6080300211846FCF75E
:1047E800E5FF07F57273A3F56F731B6803F50C6398
:1047F80000211846FCF7DAFF07F57273A3F56F730B
:104808001B6803F6781300211846FCF7CFFF07F55D
:104818007273A3F56F731B68184607F57277BD4668
:10482800B0BD00BFA02E0108981E0208B0B5A0B008
:1048380002AFF860B960394681E80C0007F138002A
:10484800FB685A6900921B693A4606CAFCF7F6FDEE
:10485800FB68183307F1380211461846FEF7DCF8F2
:10486800FB68D3F8C030DA0F13445B105B421A467A
:104878001E2313443B64FB68D3F8C030DA0F13449B
:104888005B101A461E23D31A7B6407F1440207F112
:10489800400107F130031846FDF7CBFAFB68D3F85F
:1048A800C430DA0F13445B105B421A461E231344CC
:1048B800BB64FB68D3F8C430DA0F13445B101A46A4
:1048C8001E23D31AFB6407F14C0207F1480107F1D4
:1048D80028031846FDF7ADFAFB68FC68FA686D46D0
:1048E80002F5BE7292E8030085E8030003F53D7304
:1048F8000CCB04F53B7103C9FCF754FD0346002BB0
:1049080005D0BB4B1B78002B01D0012300E000230E
:10491800002B00F0628107F11800B64BFA6859685D
:1049280000911B6802F5157206CAFEF785FBFB6845
:104938006A4603F5BE7393E8030082E8030007F1B3
:1049480020030CCB07F1180103C9FCF72BFD034624
:10495800002B03D0A84B01225A706BE1A74B1B68B0
:10496800B3F57A7F03D8A44B01225A7062E1FB6841
:10497800D3F8FC32002B40F3058107F15000FB6AA5
:104988000093BB6A07F1300206CAFCF7CFFDFB684B
:1049980003F5157307F1500211461846FEF73CF867
:1049A80007F15800964BFA68596800911B6802F5A0
:1049B800157206CAFEF740FBFB6803F53B7307F167
:1049C80058021146184600F0BDFAFB68D3F8C0300B
:1049D800DA0F13445B101946FB68D3F86432DA0F18
:1049E80013445B105B420B44BB66FB68D3F8C430CE
:1049F800DA0F13445B101946FB68D3F86832DA0FF4
:104A080013445B105B420B44FB6607F16C0207F131
:104A1800680107F110031846FDF70BFA07F170005B
:104A2800FA687B6900933B6902F5157206CAFCF7C0
:104A380005FDFB6803F5057307F17002114618467A
:104A4800FDF7EAFFFB68012283F8C820FB68D3F86A
:104A5800FC325A1EFB68C3F8FC22FB68D3F8FC3210
:104A6800032B00F28B8001A252F823F03F4B000881
:104A7800F94A0008B34A0008854A0008FB6803F5AC
:104A88006E7301211846FCF791FEFB6803F58E63EF
:104A980001211846FCF78AFEFB68012283F8E0230F
:104AA800FB68012283F8982468E0FB6803F56E73BD
:104AB8001846FDF7CFFAFB6803F58E631846FDF735
:104AC800C9FAFB6803F5A56301211846FCF76EFED9
:104AD800FB6803F5BC6301211846FCF767FEFB6819
:104AE800012283F85025FB68012283F8082645E057
:104AF800FB6803F5A5631846FDF7ACFAFB6803F5F8
:104B0800BC631846FDF7A6FAFB6803F5D3630121D9
:104B18001846FCF74BFEFB6803F5EA6301211846CB
:104B2800FCF744FEFB68012283F8C026FB680122DB
:104B380083F8782722E0FB6803F5D3631846FDF76E
:104B480089FAFB6803F5EA631846FDF783FAFB6800
:104B580003F6080301211846FCF728FEFB6803F555
:104B68000C6301211846FCF721FEFB68012283F83B
:104B78003028FB68012283F8E82800BF1F4B002279
:104B88001A602AE0FB6803F678131846FCF76EFEF5
:104B9800034683F00103DBB2002B1ED0FB6803F64B
:104BA80008031846FDF756FAFB6803F50C63184628
:104BB800FDF750FAFB68002283F8C822FB68002240
:104BC80083F8F021FB68012283F8C820FB6803F60C
:104BD800781301211846FCF7E9FD074B1B78002BD9
:104BE80010D0F86800F02CF8034B00221A7021E06E
:104BF80078060020A01E0208AC060020CC06002083
:104C0800981E0208FB6803F678131846FDF7F4F8B7
:104C18000346002B08D0094B01221A71FB6803F6E2
:104C280078131846FDF7F4F8F8683B460CCBB968DA
:104C3800FCF728FE7837BD46B0BD00BFAC060020A3
:104C480080B59CB002AF78607B6803F56E73184638
:104C5800FDF700FA7B6803F58E631846FDF7FAF94D
:104C68007B6803F5A5631846FDF7F4F97B6803F53F
:104C7800BC631846FDF7EEF97B6803F5D363184665
:104C8800FDF7E8F97B6803F5EA631846FDF7E2F9F2
:104C98007B6803F608031846FDF7DCF97B6803F523
:104CA8000C631846FDF7D6F97B6803F56E7300218F
:104CB8001846FCF77BFD7B6803F58E6300211846D8
:104CC800FCF774FD7B6803F5A56300211846FCF723
:104CD8006DFD7B6803F5BC6300211846FCF766FD93
:104CE8007B6803F5D36300211846FCF75FFD7B68FA
:104CF80003F5EA6300211846FCF758FD7B6803F6C4
:104D0800080300211846FCF751FD7B6803F50C6386
:104D180000211846FCF74AFD7B6803F6781300214A
:104D28001846FCF743FD7B68012283F8C8227B689C
:104D3800012283F8F0217B680422C3F8FC227B68F7
:104D4800D3F8C030DA0F13445B105B421A461E23B7
:104D580013443B627B68D3F8C030DA0F13445B100E
:104D68001A461E23D31A7B6207F1240207F1200199
:104D780007F118031846FDF75CF87B68D3F8C430D0
:104D8800DA0F13445B105B421A461E231344BB62BE
:104D98007B68D3F8C430DA0F13445B101A461E231D
:104DA800D31AFB6207F12C0207F1280107F110035F
:104DB8001846FDF73EF807F130007B6900933B6920
:104DC80007F1180206CAFCF7B1FB7B6803F51573F7
:104DD80007F1300211461846FDF71EFE07F13800AC
:104DE800384B7A68596800911B6802F5157206CA33
:104DF800FEF722F97B6803F53B7307F13802114689
:104E0800184600F09FF800233B6500237B6507F1F7
:104E1800540207F1500107F148031846FDF709F855
:104E28007B6803F5BE7307F1480211461846FDF783
:104E3800F3FD7B68D3F8C030DA0F13445B101946D2
:104E48007B68D3F86432DA0F13445B105B420B447F
:104E5800BB657B68D3F8C430DA0F13445B1019467E
:104E68007B68D3F86832DA0F13445B105B420B445B
:104E7800FB6507F15C0207F1580107F108031846C2
:104E8800FCF7D7FF07F160007A68FB680093BB68FE
:104E980002F5157206CAFCF7D1FA7B6803F50573AB
:104EA80007F1600211461846FDF7B6FD7B6801223E
:104EB80083F82820044B00221A6000BF6837BD46DB
:104EC80080BD00BF981E0208CC06002080B485B0C3
:104ED80000AFF860B9607A60FB68BA6892E80300CE
:104EE80083E80300FB687A68083392E8030083E8E4
:104EF8000300FB6818461437BD4680BC704780B570
:104F080082B000AF786039603968786800F03AF8A4
:104F1800034683F00103DBB218460837BD4680BD5F
:104F280080B582B000AF78607B681846FCF7CAFD90
:104F38007B6808331846FCF7C5FD7B6818460837B8
:104F4800BD4680BD80B582B000AF786039603B68EF
:104F5800184600F030F802467B6811461846FDF7FF
:104F68005BFD3B680833184600F025F802467B686D
:104F7800083311461846FDF74FFD7B681846083779
:104F8800BD4680BD80B483B000AF786039607B686F
:104F98001A683B681B689A4207D17B685A683B6865
:104FA8005B689A4201D1012300E0002318460C37C0
:104FB800BD4680BC704780B483B000AF78607B6822
:104FC80018460C37BD4680BC704780B58CB000AF22
:104FD800F860B960394681E80C003A68BB68D3F8D4
:104FE800E434D31ABB617A68BB68D3F8E834D31ABF
:104FF800FB6107F11C0207F1180107F110031846BD
:10500800FCF717FF3A68BB68D3F8E4341344BB6273
:105018007A68BB68D3F8E8341344FB6207F12C02C2
:1050280007F1280107F120031846FCF702FF07F1F2
:10503800200207F110031946F868FFF747FFF868E0
:105048003037BD4680BD0000B0B58CB002AFF86007
:10505800B960394681E80C00FC6807F11003B968AB
:1050680018460BF0CBFB07F110056B4607F1380229
:1050780092E8030083E803003B460CCB2946204610
:10508800FCF790FA07F1100318460BF080FB1A4A58
:10509800FB681A60FB680A2283F8B020FB6897F85F
:1050A800402083F8A020FB680C22C3F8A420FB68EA
:1050B8000022A3F8A820FB68002283F88420BB6B99
:1050C800FA6B02FB03F30D4A934201D85B0001E03F
:1050D8004FF0FF3318460BF0CDFA03461A46FB682B
:1050E800C3F8AC20FB68002283F82820FB68184628
:1050F8002837BD46B0BD00BFEC1E0208FCFFFF3FCD
:1051080090B58DB000AF78607B689A697B681B6A40
:10511800D90F0B445B105B421344BB617B68DA69AF
:105128007B685B6AD90F0B445B105B421344FB61DD
:1051380007F11C0207F1180107F110031846FCF7E4
:1051480078FE7B689A697B681B6AD90F0B445B10F1
:1051580013443B627B68DA697B685B6AD90F0B444E
:105168005B1013447B6207F1240207F1200107F169
:1051780008031846FCF75DFE3B69FB622AE07B6981
:10518800BB6220E0FB6A9BB2BA6A92B2114618462B
:1051980001F0EAFF034618467B68D3F8AC203B6968
:1051A800F96ACB1A7968496A03FB01F1BB6A1944A9
:1051B8007B69CB1A5B00D41801F09CFF034623805F
:1051C800BB6A0133BB62FB68BA6A9A42DADBFB6AE4
:1051D8000133FB62BB68FA6A9A42D0DB00BF00BFAA
:1051E8003437BD4690BD90B58DB000AF78607B6810
:1051F8009A697B681B6AD90F0B445B105B421344A6
:10520800BB617B68DA697B685B6AD90F0B445B100A
:105218005B421344FB6107F11C0207F1180107F117
:1052280010031846FCF705FE7B689A697B681B6AC1
:10523800D90F0B445B1013443B627B68DA697B68C7
:105248005B6AD90F0B445B1013447B6207F124029D
:1052580007F1200107F108031846FCF7EAFD3B694E
:10526800FB6225E07B69BB621BE0FB6A98B2BB6A04
:105278009CB27B68D3F8AC203B69F96ACB1A796891
:10528800496A03FB01F1BB6A19447B69CB1A5B00CD
:1052980013441B881A46214602F0AEF9BB6A013353
:1052A800BB62FB68BA6A9A42DFDBFB6A0133FB62C6
:1052B800BB68FA6A9A42D5DB00BF00BF3437BD46E7
:1052C80090BD000080B584B000AFF8603B1D83E856
:1052D8000600FB68883318460BF067FA01467A68BF
:1052E800BB6809480CF0C4FBFB6810333A1D114633
:1052F8001846FDF7ACFBFB6801211846FCF756FA87
:1053080000BF1037BD4680BDD42E010880B582B0DD
:1053180000AF78607868FFF766FF7B68002283F843
:10532800842000BF0837BD4680BD000090B597B007
:1053380002AFF860B960394681E80C0007F128002F
:10534800FB685A6900921B693A4606CAFCF776F868
:10535800FB68183307F1280211461846FDF75CFB75
:10536800FB689A69FB681B6AD90F0B445B105B42A8
:1053780013443B63FB68DA69FB685B6AD90F0B442B
:105388005B105B4213447B6307F1340207F1300181
:1053980007F120031846FCF74CFDFB689A69FB6887
:1053A8001B6AD90F0B445B101344BB63FB68DA69B3
:1053B800FB685B6AD90F0B445B101344FB6307F16E
:1053C8003C0207F1380107F118031846FCF731FDD4
:1053D800FB6893F82830002B64D0FB6893F884307E
:1053E800002B5FD0344B00221A80FB68D3F8A4301E
:1053F8005B429B083B64FB68D3F8A4305B425B08C4
:105408007B6407F1440207F1400107F110031846D5
:1054180001F02EFC07F14800FB68DA6900929B69ED
:1054280007F1100206CAFCF709F807F1480207F16C
:10543800100311461846FDF7EFFAF868FFF760FE0B
:105448003B6A98B27B6A99B2BB699BB2013B9AB23C
:10545800FB699BB2013B9BB247F67C54009402F077
:1054680089FB164B47F67C521A803B6998B27B69D8
:1054780099B2FB6893F8A020FB68D3F8A430DBB29C
:105488000124009402F018FD3B6A98B27B6A99B235
:10549800BB699BB2013B9AB2FB699BB2013B9BB2D1
:1054A80002F042FCF8683B460CCBB968FCF7EAF915
:1054B80000BF5437BD4690BDF00000200400002016
:1054C800F0B58DB002AFF860B960394681E80C00DC
:1054D800FC6807F11003B96818460BF08FF907F15B
:1054E80010056B4607F1400292E8030083E80300C9
:1054F8003B460CCB29462046FCF754F807F110032D
:1055080018460BF044F9294AFB681A60FB68EC332B
:105518001846FCF7D7FAFB68254A03F1F404154648
:105528000FCD0FC40FCD0FC40FCD0FC495E80700E2
:1055380084E80700FB680B2283F8302140200BF039
:1055480099F803461E463546072404E02846FCF72A
:10555800B9FA0835013C002CF8DAFB68C3F8A860F2
:10556800FB681822C3F8A420FB68002283F8A12056
:10557800FB68002283F8A020FB6803F1AC00FB68FD
:10558800F4333C2219460CF0D8FC08200BF072F8D2
:1055980003461A46FB68C3F8E820FB68002283F834
:1055A8008420FB6818462C37BD46F0BDE01E020873
:1055B800EC2E010890B593B002AF78600023FB632E
:1055C80070E07B681B6ADA0F13445B105B420F3391
:1055D800BB617B681B6ADA0F13445B100F3BFB61EE
:1055E80007F11C0207F1180107F110031846FCF730
:1055F80020FC7B685B6ADA0F13445B105B420F3355
:10560800BB627B685B6ADA0F13445B100F3BFB627B
:1056180007F12C0207F1280107F120031846FCF7CF
:1056280008FC07F108007B6A00933B6A07F1100247
:1056380006CAFBF77BFF07F130007B68DA69009246
:105648009B6907F1080206CAFBF7F8FE07F130026A
:1056580007F1080311461846FDF7DEF90CF0FAF8D1
:105668000246144B83FB02131344D913D317C91AE8
:105678000B461B045B1AD11A0B467B87BB6898B292
:10568800FB6899B2BB689BB201339AB2FB689BB2C4
:1056980001339CB27B8F0093234602F06BFAFB6BBD
:1056A8000133FB63FB6B312B8BDD00BF00BF44373D
:1056B800BD4690BD0180008080B5AAB002AF786079
:1056C8000023C7F89C3018E17B681B6ADA0F134483
:1056D8005B105B420F33BB627B681B6ADA0F1344B3
:1056E8005B100F3BFB6207F12C0207F1280107F161
:1056F80020031846FCF79DFB7B685B6ADA0F1344AE
:105708005B105B420F33BB637B685B6ADA0F134441
:105718005B100F3BFB6307F13C0207F1380107F10F
:1057280030031846FCF785FB07F118007B6B0093E4
:105738003B6B07F1200206CAFBF7F8FE07F14000B1
:105748007B68DA6900929B6907F1180206CAFBF7C1
:1057580075FE07F1400207F1180311461846FDF7D8
:105768005BF97B681B6ADA0F13445B105B420F33EB
:105778003B657B681B6ADA0F13445B100F3B7B6544
:1057880007F1540207F1500107F148031846FCF7E6
:1057980050FB7B685B6ADA0F13445B105B420F3384
:1057A8003B667B685B6ADA0F13445B100F3B7B66D2
:1057B80007F1640207F1600107F158031846FCF786
:1057C80038FB07F11000FB6D0093BB6D07F1480231
:1057D80006CAFBF7ABFE07F168007B68DA6900923E
:1057E8009B6907F1100206CAFBF728FE07F1680259
:1057F80007F1100311461846FDF70EF97B681B6A7E
:10580800DA0F13445B105B420F33BB677B681B6A7C
:10581800DA0F13445B100F3BFB6707F17C0207F1BB
:10582800780107F170031846FCF703FB7B685B6A95
:10583800DA0F13445B105B420F33C7F888307B687C
:105848005B6ADA0F13445B100F3BC7F88C3007F123
:105858008C0207F1880107F180031846FCF7E9FA82
:1058680007F10800D7F884300093D7F8803007F1A3
:10587800700206CAFBF75AFE07F190007B68DA69E6
:1058880000929B6907F1080206CAFBF7D7FD07F1EA
:10589800900207F1080311461846FDF7BDF80BF012
:1058A800D9FF02461A4B83FB02131344D913D317AB
:1058B800C91A0B461B045B1AD11A0B46A7F89A3073
:1058C800144AB7F89A301380BB6998B2FB6999B249
:1058D8003B699AB27B699BB202F0A2F93B6998B224
:1058E8007B6999B2BB689AB2FB689BB202F098F9DF
:1058F800D7F89C300133C7F89C30D7F89C30042B7C
:105908007FF7E2AE00BF00BFA037BD4680BD00BF35
:1059180001800080F000002080B590B002AF786070
:105928003E480CF00BF97B6803F1AC027B68AC33A2
:105938003C331946104601F0B6F939480CF0FEF828
:1059480000237B6348E07B681B6ADA0F13445B1013
:105958005B420F33BB617B681B6ADA0F13445B1031
:105968000F3BFB6107F11C0207F1180107F1100357
:105978001846FCF75EFA7B685B6ADA0F13445B1023
:105988005B420F33BB627B685B6ADA0F13445B10C0
:105998000F3BFB6207F12C0207F1280107F12003F6
:1059A8001846FCF746FA07F108007B6A00933B6A41
:1059B80007F1100206CAFBF7B9FD7B68D3F8A820E7
:1059C8007B6BDB00134407F1080211461846FDF70C
:1059D80023F87B6B01337B637B6B052BB3DD1148AD
:1059E8000CF0ACF800233B630DE07B68D3F8E820AB
:1059F8003B6B134479683A6B0A44AC3212781A70DC
:105A08003B6B01333B633B6B052BEEDD06480CF02B
:105A180095F800BF3837BD4680BD00BF282F010864
:105A2800382F01084C2F0108642F010890B5A1B048
:105A380002AFF860B960394681E80C0007F1280028
:105A4800FB685A6900921B693A4606CAFBF7F6FCDE
:105A5800FB68183307F1280211461846FCF7DCFFEB
:105A6800FB689A69FB681B6AD90F0B445B105B42A1
:105A780013443B63FB68DA69FB685B6AD90F0B4424
:105A88005B105B4213447B6307F1340207F130017A
:105A980007F120031846FCF7CCF9FB689A69FB6804
:105AA8001B6AD90F0B445B101344BB63FB68DA69AC
:105AB800FB685B6AD90F0B445B101344FB6307F167
:105AC8003C0207F1380107F118031846FCF7B1F951
