:020000040800F2
:1000000000C000208D50000835500008375000080F
:10001000395000083B5000083D5000080000000027
:100020000000000000000000000000003F50000839
:1000300041500008000000004350000845500008EF
:10004000D5500008D5500008D5500008D5500008FC
:10005000D5500008D5500008D5500008D5500008EC
:10006000D5500008D5500008D5500008D5500008DC
:10007000D5500008D5500008D5500008D5500008CC
:10008000D5500008D5500008D5500008D5500008BC
:10009000D5500008D5500008D5500008D5500008AC
:1000A000D5500008D5500008D5500008D55000089C
:1000B000D5500008D5500008D5500008D55000088C
:1000C000D5500008D5500008D5500008D55000087C
:1000D000D5500008D5500008D5500008D55000086C
:1000E000D5500008D5500008D5500008D55000085C
:1000F000D5500008D5500008D5500008D55000084C
:10010000D5500008D5500008D5500008D55000083B
:10011000D5500008D5500008D5500008D55000082B
:10012000D5500008D5500008D5500008D55000081B
:1001300000000000000000000000000000000000BF
:1001400000000000000000000000000000000000AF
:10015000000000000000000000000000000000009F
:10016000000000000000000000000000000000008F
:10017000000000000000000000000000000000007F
:10018000000000000000000000000000000000006F
:10019000000000000000000000000000000000005F
:1001A000000000000000000000000000000000004F
:1001B000000000000000000000000000000000003F
:1001C000000000000000000000000000000000002F
:1001D000000000000000000000000000000000001F
:0401E0005FF8E0F1F3
:1001E80010B5054C237833B9044B13B10448AFF369
:1001F80000800123237010BD600000200000000073
:100208002862000808B5034B1BB103490348AFF344
:10021800008008BD0000000064000020286200087B
:1002280070B54FF0FF0C4CF4E06C1CEA11541DBF84
:100238001CEA135594EA0C0F95EA0C0F00F0DEF84F
:100248002C4481EA030621EA4C5123EA4C5350EA34
:10025800013518BF52EA033541F4801143F4801385
:1002680038D0A0FB02CE4FF00005E1FB02E506F016
:100278000042E0FB03E54FF00006E1FB03569CF06B
:10028800000F18BF4EF0010EA4F1FF04B6F5007F71
:1002980064F5407404D25FEA4E0E6D4146EB0606E3
:1002A80042EAC62141EA55514FEAC52040EA5E506C
:1002B8004FEACE2EB4F1FD0C88BFBCF5E06F1ED816
:1002C800BEF1004F08BF5FEA500E50F1000041EB4D
:1002D800045170BD06F0004646EA010140EA0200FA
:1002E80081EA0301B4EB5C04C2BFD4EB0C0541EA1C
:1002F800045170BD41F480114FF0000E013C00F331
:10030800AB8014F1360FDEBF002001F0004170BD54
:10031800C4F10004203C35DA0C341BDC04F114046D
:10032800C4F1200500FA05F320FA04F001FA05F2F9
:1003380040EA020001F0004221F0004110EBD370C6
:1003480021FA04F642EB06015EEA430E08BF20EAF2
:10035800D37070BDC4F10C04C4F1200500FA04F395
:1003680020FA05F001FA04F240EA020001F0004127
:1003780010EBD37041F100015EEA430E08BF20EA9A
:10038800D37070BDC4F1200500FA05F24EEA020EE2
:1003980020FA04F301FA05F243EA020321FA04F011
:1003A80001F0004121FA04F220EA020000EBD370C8
:1003B8005EEA430E08BF20EAD37070BD94F0000FC8
:1003C8000FD101F00046400041EB010111F4801FFC
:1003D80008BF013CF7D041EA060195F0000F18BFAD
:1003E800704703F00046520043EB030313F4801FE9
:1003F80008BF013DF7D043EA0603704794EA0C0FA3
:100408000CEA135518BF95EA0C0F0CD050EA4106B8
:1004180018BF52EA4306D1D181EA030101F0004135
:100428004FF0000070BD50EA410606BF104619465D
:1004380052EA430619D094EA0C0F02D150EA013669
:1004480013D195EA0C0F05D152EA03361CBF1046AA
:1004580019460AD181EA030101F0004141F0FE4149
:1004680041F470014FF0000070BD41F0FE4141F4CD
:10047800780170BD81F0004102E000BF83F00043C5
:1004880030B54FEA41044FEA430594EA050F08BF27
:1004980090EA020F1FBF54EA000C55EA020C7FEAEB
:1004A800645C7FEA655C00F0E2804FEA5454D4EB68
:1004B8005555B8BF6D420CDD2C4480EA020281EA32
:1004C800030382EA000083EA010180EA020281EA6A
:1004D8000303362D88BF30BD11F0004F4FEA0131BC
:1004E8004FF4801C4CEA113102D0404261EB4101CB
:1004F80013F0004F4FEA03334CEA133302D0524251
:1005080063EB430394EA050F00F0A780A4F101040C
:10051800D5F1200E0DDB02FA0EFC22FA05F2801846
:1005280041F1000103FA0EF2801843FA05F359412C
:100538000EE0A5F120050EF1200E012A03FA0EFCAB
:1005480028BF4CF0020C43FA05F3C01851EBE371D5
:1005580001F0004507D54FF0000EDCF1000C7EEBF2
:1005680000006EEB0101B1F5801F1BD3B1F5001F30
:100578000CD349085FEA30004FEA3C0C04F101044F
:100588004FEA445212F5800F80F09A80BCF1004F78
:1005980008BF5FEA500C50F1000041EB045141EAFA
:1005A800050130BD5FEA4C0C404141EB0101013CC3
:1005B80028BFB1F5801FE9D291F0000F04BF0146B2
:1005C8000020B1FA81F308BF2033A3F10B03B3F184
:1005D80020020CDA0C3208DD02F1140CC2F10C0214
:1005E80001FA0CF021FA02F10CE002F11402D8BF72
:1005F800C2F1200C01FA02F120FA0CFCDCBF41EA3E
:100608000C019040E41AA2BF01EB0451294330BD0C
:100618006FEA04041F3C1CDA0C340EDC04F11404E9
:10062800C4F1200220FA04F001FA02F340EA0300C0
:1006380021FA04F345EA030130BDC4F10C04C4F106
:10064800200220FA02F001FA04F340EA03002946E6
:1006580030BD21FA04F0294630BD94F0000F83F430
:10066800801306BF81F480110134013D4EE77FEA13
:10067800645C18BF7FEA655C29D094EA050F08BF5F
:1006880090EA020F05D054EA000C04BF1946104640
:1006980030BD91EA030F1EBF0021002030BD5FEA84
:1006A800545C05D14000494128BF41F0004130BDAC
:1006B80014F580043CBF01F5801130BD01F0004500
:1006C80045F0FE4141F470014FF0000030BD7FEA73
:1006D800645C1ABF194610467FEA655C1CBF0B466E
:1006E800024650EA013406BF52EA033591EA030F85
:1006F80041F4002130BD00BF90F0000F04BF00217D
:10070800704730B54FF4806404F132044FF00005AF
:100718004FF0000150E700BF90F0000F04BF002128
:10072800704730B54FF4806404F1320410F000458E
:1007380048BF40424FF000013EE700BF42004FEA89
:10074800E2014FEA31014FEA02701FBF12F07F4306
:1007580093F07F4F81F06051704732F07F4208BFBD
:10076800704793F07F4F04BF41F40021704730B5C4
:100778004FF4607401F0004521F000411CE700BF10
:1007880050EA010208BF704730B54FF000050AE093
:1007980050EA010208BF704730B511F0004502D594
:1007A800404261EB41014FF4806404F132045FEA96
:1007B800915C3FF4D8AE4FF003025FEADC0C18BF3F
:1007C80003325FEADC0C18BF033202EBDC02C2F131
:1007D800200300FA03FC20FA02F001FA03FE40EAC3
:1007E8000E0021FA02F11444BDE600BF4A0011D2FE
:1007F80012F5001211D20DD56FF47873B3EB625273
:100808000ED44FEAC12343F0004343EA505323FA7E
:1008180002F070474FF00000704750EA013002D1F3
:100828004FF0FF3070474FF0000070470A4B82B01E
:100838009A6942F020029A619A6902F020020092B5
:10084800009A9A6942F004029A619B6903F00403D2
:100858000193019B02B07047001002404FF4807270
:10086800054B06495A614FF400725A61C8608021ED
:10087800596119611A61704700100140000C01406C
:1008880038B54FF08833134C134D23606360002351
:10089800E3604FF480732B614FF400736B61402366
:1008A8006B610E4B9A8848F689139A4202D101204F
:1008B80004F056FC4023A0682B614FF400732B61B1
:1008C8004FF03333236063604FF6FF7380B2E36009
:1008D80038BD00BF000C0140001001407E00002020
:1008E80010B50C46FFF7BAFF4FF48072054B064966
:1008F8001A614FF400725A61CC6080215961196104
:100908001A6110BD00100140000C014008B5FFF746
:10091800A5FFBDE80840FFF7B3BF0000014B1889E9
:10092800FFF79CBF7E0000204FF48072054B0649FC
:100938001A614FF400725A61C860802159611961C7
:100948001A61704700100140000C014049F2413221
:100958002DE9F84FDFF83C920546B9F804300E4609
:100968009342B9F80A00B9F80C8003D045F2103266
:1009780093423AD14FF400774FF080094FF4807BCF
:10098800854CDFF818A2FFF769FF2B0AEDB2C4F80F
:1009980010B040466761CAF80C30C4F81490C4F827
:1009A80010902761C4F810B06761CAF80C50C4F8F9
:1009B8001490C4F810902761FFF750FF330AC4F869
:1009C80010B06761CAF80C30C4F81490C4F81090DD
:1009D8002761F6B2C4F810B06761CAF80C60C4F8B1
:1009E8001490C4F81090276169E046F60402934217
:1009F8000AD199F80630012B01BFB9F8003003F18C
:100A0800FF335B1B9DB2B5E741F66312934272D187
:100A1800B9F8007099F806A05F4C013FBAF1000FD1
:100A28004FD1FFF71BFF4FF4007380224FF4807003
:100A38005A497F1BBFB220613D0A6361C1F80CA00F
:100A480062612261236120616361C1F80CA0626167
:100A58002261236120616361FFB2CD60626122611E
:100A68002361206163614046CF6062612261236136
:100A7800FFF7F4FE4FF480754FF400734748320ACD
:100A880025616361C2608022B9F80210F6B20139AB
:100A980062612261236125616361C6600E12C9B279
:100AA80062612261236125616361C66062612261BE
:100AB800236125616361C160626122612361BDE8D0
:100AC800F88FFFF7CBFE4FF400734FF48070334973
:100AD8002A0A20616361CA608022EDB262612261E4
:100AE800236120616361CD6062613D1222612361EF
:100AF80020616361B0E745F21052934237D14FF459
:100B080000774FF080094FF4807B234CDFF88CA0EE
:100B1800FFF7A4FE2B0A0130C4F810B080B2676159
:100B2800CAF80C30C4F81490C4F810902761FFF785
:100B380095FE4046EDB2C4F810B06761CAF80C5093
:100B4800C4F81490C4F810902761FFF787FE330AA1
:100B58000130C4F810B080B26761CAF80C30C4F82C
:100B68001490C4F810902761FFF778FE31E799F8E0
:100B78000630012B01BFB9F8003003F1FF335B1BCE
:100B88009DB22946FFF7ACFE31464046BDE8F84F16
:100B9800FFF7A6BE7E00002000100140000C0140B7
:100BA8002DE9F74FA84D41F66313AA79AE88012ABB
:100BB80025D146F60402964201D09E4222D1013840
:100BC800C0B2062896BFA14B00271F5C45F2105300
:100BD8009E4240F025814FF458503946FFF780FE79
:100BE80041F663118E422B886A88994C00F0C080C8
:100BF800B9062ED593422ED22A806B802BE02AB9D3
:100C08009E4203D107289CBF924B185C49F241339E
:100C18009E42D4D046F604039E42D0D045F210330B
:100C28009E42CCD045F210539E42C8D041F6631381
:100C38009E42C4D0072896BF874B0021195C032029
:100C480041F4805103B0BDE8F04FFFF749BE1F469D
:100C5800F7E09342D0D845F210539E42B5F8009081
:100C68006F88B5F80AA0B5F80C8040F0818009F1CA
:100C7800FF334FF480764FF080094FF0000B01935B
:100C88007B1E4FF40077754D50460093FFF7E6FD45
:100C98000AF10100266180B26761C5F80CB0C4F89A
:100CA8001490C4F810902761FFF7D8FD0AF10200EC
:100CB800266180B26761C5F80CB0C4F81490C4F816
:100CC80010902761FFF7CAFD019B0AF10300191272
:100CD800266180B26761E960C4F81490C4F8109086
:100CE8002761FFF7BBFD9DF8041026614046676148
:100CF800E960C4F81490C4F810902761FFF7AEFDBE
:100D080008F10100266180B26761C5F80CB0C4F82B
:100D18001490C4F810902761FFF7A0FD08F10200B5
:100D2800266180B26761C5F80CB0C4F81490C4F8A5
:100D380010902761FFF792FD009B08F1030019123C
:100D4800266180B26761E960C4F81490C4F8109015
:100D58002761FFF783FD9DF8003026616761EB602E
:100D6800C4F81490C4F81090276103B0BDE8F08F60
:100D78004FF4007680274FF480794FF0000A688995
:100D8800FFF76CFD2B88DFF8D480013B1A12DBB229
:100D9800C4F81090A8896661C8F80CA0676127613B
:100DA8002661C4F810906661C8F80CA067612761D5
:100DB8002661C4F810906661C8F80C206761276145
:100DC8002661C4F810906661C8F80C306761276125
:100DD8002661FFF743FD6B88C4F81090013B1A1297
:100DE800DBB26661C8F80CA0676127612661C4F8A8
:100DF80010906661C8F80CA0676127612661C4F885
:100E080010906661C8F80C20676127612661C4F8F4
:100E180010906661C8F80C30676127612661A4E705
:100E280045F210339E420CD041F663139E4208D01F
:100E380046F60402964247F008037FF408AF47F0ED
:100E48000A073620C9E600BF7E0000204862000875
:100E580000100140406200084F620008000C014089
:100E680008B5FFF773FDFFF759FD4FF48072074B84
:100E780007491A614FF40072088806495A61C86028
:100E88008021596119611A6108BD00BF0010014035
:100E98007C000020000C01402DE9F74F019249F237
:100EA8004132DFF890820546B8F804300E46934286
:100EB800B8F80A00B8F80CB09F4C03D045F21032CD
:100EC800934236D1FFF7CAFC4FF400774FF0800AFF
:100ED8004FF48072DFF86492290AEDB22261584615
:100EE8006761C9F80C10C4F814A0C4F810A02761F1
:100EF80022616761C9F80C50C4F814A0C4F810A0A6
:100F08002761FFF7ABFC4FF48072310AF6B2226119
:100F18006761C9F80C10C4F814A0C4F810A02761C0
:100F280022616761C9F80C60C4F814A0C4F810A065
:100F3800B1E045F21052934257D1FFF78FFC4FF4BE
:100F4800007980274FF48073DFF8F0A12A0A013076
:100F5800236180B2C4F81490CAF80C206761276135
:100F6800C4F81090FFF77AFC4FF480735846EDB23E
:100F78002361C4F81490CAF80C504FF48075676167
:100F88002761C4F81090FFF769FC310A0130256128
:100F980080B2C4F81490F6B2CAF80C1067612761E1
:100FA800C4F81090FFF75AFC2561C4F81490CAF8E9
:100FB8000C6067612761C4F810904FF400734FF418
:100FC8008070B8F808205D4960616361CA6080225A
:100FD800626122612361206101986361C860626176
:100FE8002261236103B0BDE8F08F41F663118B42A3
:100FF80098F8062051D122B9B8F80030013B5B1BA4
:101008009DB2FFF72BFC4FF4007780234FF48072DA
:10101800DFF828A1290AEDB2226158466761CAF8AB
:101028000C1063612361276122616761CAF80C5063
:1010380063612361276122616761CAF80C106361EB
:101048002361276122616761CAF80C5063612361DB
:101058002761FFF703FC80234FF48072310AF6B250
:1010680022616761CAF80C106361236127612261FC
:101078006761CAF80C606361236127612261676157
:10108800CAF80C1063612361276122616761CAF89D
:101098000C606361236127618FE746F604018B4288
:1010A80038D1012A08BFB8F800304FF4007704BFE0
:1010B80003F1FF335B1B4FF0800A08BF9DB2FFF7B7
:1010C800CDFB4FF480721D4B290AEDB222615846C0
:1010D8006761D960C4F814A0C4F810A02761226120
:1010E8006761DD60C4F814A0C4F810A02761FFF799
:1010F800B5FB4FF48072114B310AF6B22261676179
:10110800D960C4F814A0C4F810A0276122616761EF
:10111800DE6009E7012A01BFB8F8003003F1FF33A8
:101128005B1B9DB22946FFF7DBFB31465846FFF7AC
:10113800D7FB42E77E00002000100140000C014070
:101148002DE9F8438146BE20FFF788FB4FF4007570
:1011580080264FF4807805231F4C204FC4F8108058
:1011680048466561FB60666126612561C4F81080A8
:101178006561FFF7D1FA16A3D3E90023FFF750F80A
:10118800FFF734FB0123F860666126612561C4F826
:1011980010806561FB60FF23666126612561C4F8E4
:1011A80010806561FB600023666126612561C4F8D3
:1011B80010806561FB60666126612561C4F8108056
:1011C8006561FB60666126612561BDE8F88300BF43
:1011D800666666666666044000100140000C0140C1
:1011E8004E4B4FF4A0719A8800284AD1598049F291
:1011F80041319871F0208A42188007D046F60401E0
:101208008A4203D045F210318A4213D12C21198128
:101218002A2159812B21998146F604018A4203D05B
:1012280045F210318A4229D14FF4A0721A804FF446
:10123800F07211E045F210518A420FD14FF430524A
:101248001A814FF428525A814FF42C529A814FF444
:10125800F0721A804FF448725A800FE041F6631119
:101268008A4205D12C221A812B225A812A22EDE7A3
:1012780022221A8120225A8121229A810020FFF7F6
:101288008FBC1980F021598049F2413101208A42EE
:10129800987103D045F210318A420FD12C2119815F
:1012A8002A2159812B21998146F604018A4230D19D
:1012B8004FF4F0721A804FF4A072CDE746F604019D
:1012C8008A4206D12C221A812B225A812A229A81FB
:1012D800EEE745F210518A420BD14FF430521A8191
:1012E8004FF428525A814FF42C529A814FF4487285
:1012F8009CE741F663118A4205D12C221A812A22E1
:101308005A812B22F1E722221A8121225A81202296
:10131800B3E745F210318A42CAD0AFE77E00002019
:101328002DE9F8431C4C064623886588A2885D434E
:1013380046F604039A424FF0000121D194F8069032
:10134800B9F1010F1CD12A274FF02B080846A171CB
:101358006781A4F80C80FFF7F9FA84F80690A4F8DE
:101368000A80A781FFF7DAFA4FF4807400224FF45D
:1013780000718020094B0A4FAA4205D1BDE8F883C5
:101388000846FFF7E3FAEDE71C6101325961FE6098
:10139800586118611961EFE77E00002000100140D4
:1013A800000C01404F4B2DE9F04F9A6987B042F08D
:1013B80008029A619A69012402F008020092009AD0
:1013C8009A69494842F010029A619B6902A903F0A0
:1013D80010030193019B4FF4F863CDE90234032312
:1013E8000494059303F024FF4FF6FF7302A93F48C6
:1013F800029303F01DFF322003F0B2FE21460020C5
:10140800FFF76EFA322003F0ABFE0020FFF77EFAFA
:10141800A0F1FF03364C9BB2B3F57F4FA08002D2F8
:10142800B0F5134F7ED1D320FFF718FAFFF728FA4B
:10143800FFF726FAFFF724FA0002A080FFF720FA48
:10144800A388184349F2413380B29842A08069D0FA
:10145800BF20FFF703FAFFF713FAFFF711FAFFF7B8
:101468000FFAFFF70DFA0002A080FFF709FAA38828
:10147800184346F6040380B29842A08052D0D42084
:10148800FFF7ECF9FFF7FCF9FFF7FAF9FFF7F8F9BE
:101498000002A080FFF7F4F9A388184345F210333F
:1014A80080B29842A0803DD04FF45A40FFF7D6F959
:1014B800FFF7E6F94FF45B40FFF7D0F9FFF7E0F9E3
:1014C8000002A0804FF45C40FFF7C8F9FFF7D8F995
:1014D800A388184380B2B0F5004F45F2105309D1E4
:1014E800A3801FE00010024000100140000C0140E2
:1014F8007E0000209842A08014D0A120FFF7AEF90A
:10150800FFF7BEF9A080FFF7BBF90002A080FFF744
:10151800B7F9A388184345F2617380B2984200F086
:101528001381A08049F24132A388934240F00F8191
:10153800CF20FFF793F90020FFF7F6F9C120FFF756
:10154800F3F93020FFF7F0F9ED20FFF787F9642071
:10155800FFF7EAF90320FFF7E7F91220FFF7E4F9AC
:101568008120FFF7E1F9E820FFF778F98520FFF7F8
:10157800DBF91020FFF7D8F97A20FFF7D5F9CB204F
:10158800FFF76CF93920FFF7CFF92C20FFF7CCF9DA
:101598000020FFF7C9F93420FFF7C6F90220FFF74A
:1015A800C3F9F720FFF75AF92020FFF7BDF9EA2021
:1015B800FFF754F90020FFF7B7F9FFF7B5F9C02096
:1015C800FFF74CF91B20FFF7AFF9C120FFF746F9E9
:1015D8000120FFF7A9F9C520FFF740F93020FFF7F0
:1015E800A3F9FFF7A1F9C720FFF738F9B720FFF7EC
:1015F8009BF93620FFF732F94820FFF795F93A2092
:10160800FFF72CF95520FFF78FF9B120FFF726F9DE
:101618000020FFF789F91A20FFF786F9B620FFF7AF
:101628001DF90A20FFF780F9A220FFF77DF9F220C3
:10163800FFF714F90020FFF777F92620FFF70EF9D6
:101648000120FFF771F9E020FFF708F90F20FFF7F5
:101658006BF92A20FFF768F92820FFF765F90820B9
:10166800FFF762F90E20FFF75FF90820FFF75CF932
:101678005420FFF759F9A920FFF756F94320FFF73F
:1016880053F90A20FFF750F90F20FFF74DF9002012
:10169800FFF74AF9FFF748F9FFF746F9FFF744F96A
:1016A800E120FFF7DBF80020FFF73EF91520FFF7F0
:1016B8003BF91720FFF738F90720FFF735F9112014
:1016C800FFF732F90620FFF72FF92B20FFF72CF947
:1016D8005620FFF729F93C20FFF726F90520FFF7E8
:1016E80023F91020FFF720F90F20FFF71DF93F20FD
:1016F800FFF71AF9FFF718F90F20FFF715F92B2054
:10170800FFF7ACF80020FFF70FF9FFF70DF90120FC
:10171800FFF70AF93F20FFF707F92A20FFF79EF89D
:101728000020FFF701F9FFF7FFF8FFF7FDF8EF20BA
:10173800FFF7FAF81120FFF791F8782003F010FD71
:101748002920FFF78BF81EE041F66313C8E646F63A
:101758000402934201F0EB8000F2588744F23552BC
:10176800934202F09D871FD841F66312934203F01B
:10177800428044F23152934202F0DD8641F2055232
:10178800934202F006840020FFF72AFD0122054B50
:101798004FF6FF70C3F8A821FFF7C2FD07B0BDE8F8
:1017A800F08F00BF0000224245F20842934202F047
:1017B8004D8345F21052934201F05B8145F210329D
:1017C8009342E0D1ED20FFF749F80120FFF7ACF88C
:1017D800FE20FFF7A9F8EE20FFF740F8DE20FFF71C
:1017E800A3F82120FFF7A0F8F120FFF737F8012030
:1017F800FFF79AF8DF20FFF731F81020FFF794F889
:10180800C420FFF72BF88F20FFF78EF8C620FFF7CC
:1018180025F80020FFF788F8E220FFF785F8FFF7A2
:1018280083F8FFF781F8BF20FFF718F8AA20FFF721
:101838007BF8B020FFF712F80D20FFF775F80020AD
:10184800FFF772F80D20FFF76FF80020FFF76CF82C
:101858001120FFF769F80020FFF766F81920FFF755
:1018680063F80020FFF760F82120FFF75DF80020FB
:10187800FFF75AF82D20FFF757F80020FFF754F824
:101888003D20FFF751F80020FFF74EF85D20FFF7E5
:101898004BF80020FFF748F85D20FFF745F80020D7
:1018A800FFF742F8B120FEF7D9FF8020FFF73CF898
:1018B8000020FFF739F88B20FFF736F80020FFF7F4
:1018C80033F89620FFF730F80020FFF72DF8B22004
:1018D800FEF7C4FF0020FFF727F8FFF725F80220DE
:1018E800FFF722F80020FFF71FF80320FFF71CF886
:1018F8000020FFF719F8B320FEF7B0FF0020FFF72C
:1019080013F8FFF711F8FFF70FF8FFF70DF8FFF7D7
:101918000BF8FFF709F8FFF707F8FFF705F8FFF7E7
:1019280003F8FFF701F8FEF7FFFFFEF7FDFFFEF7EC
:10193800FBFFFEF7F9FFFEF7F7FFFEF7F5FFFEF7EF
:10194800F3FFFEF7F1FFFEF7EFFFFEF7EDFFFEF7FF
:10195800EBFFFEF7E9FFFEF7E7FFFEF7E5FFB42030
:10196800FEF77CFF8B20FEF7DFFF0020FEF7DCFF91
:101978009620FEF7D9FF0020FEF7D6FFA120FEF73C
:10198800D3FF0020FEF7D0FFB520FEF767FF022047
:10199800FEF7CAFF0020FEF7C7FF0320FEF7C4FFCB
:1019A8000020FEF7C1FF0420FEF7BEFF0020FEF76F
:1019B800BBFFB620FEF752FF0020FEF7B5FFFEF78B
:1019C800B3FFB720FEF74AFF0020FEF7ADFFFEF792
:1019D800ABFF3F20FEF7A8FF0020FEF7A5FF5E2023
:1019E800FEF7A2FF0020FEF79FFF6420FEF79CFF92
:1019F8000020FEF799FF8C20FEF796FF0020FEF7E7
:101A080093FFAC20FEF790FF0020FEF78DFFDC204F
:101A1800FEF78AFF0020FEF787FF7020FEF784FF9D
:101A28000020FEF781FF9020FEF77EFF0020FEF7E2
:101A38007BFFEB20FEF778FF0020FEF775FFDC2028
:101A4800FEF772FF0020FEF76FFFB820FEF706FFD3
:101A58000020FEF769FFFEF767FFFEF765FFFEF758
:101A680063FFFEF761FFFEF75FFFFEF75DFFFEF71E
:101A78005BFFBA20FEF7F2FE2420FEF755FF002098
:101A8800FEF752FFFEF750FFFEF74EFFC120FEF7AC
:101A9800E5FE2020FEF748FF0020FEF745FF542012
:101AA800FEF742FF0020FEF73FFFFF20FEF73CFF56
:101AB8000020FEF739FFC220FEF7D0FE0A20FEF70D
:101AC80033FF0020FEF730FF0420FEF72DFF002033
:101AD800FEF72AFFC320FEF7C1FE3C20FEF724FFD5
:101AE8000020FEF721FF3A20FEF71EFF0020FEF738
:101AF8001BFF3920FEF718FF0020FEF715FF3720DF
:101B0800FEF712FF0020FEF70FFF3C20FEF70CFF48
:101B18000020FEF709FF3620FEF706FF0020FEF73B
:101B280003FF3220FEF700FF0020FEF7FDFE2F2006
:101B3800FEF7FAFE0020FEF7F7FE2C20FEF7F4FE73
:101B48000020FEF7F1FE2920FEF7EEFE0020FEF74A
:101B5800EBFE2620FEF7E8FE0020FEF7E5FE242037
:101B6800FEF7E2FE0020FEF7DFFE2420FEF7DCFE93
:101B78000020FEF7D9FE2320FEF7D6FE0020FEF750
:101B8800D3FE3C20FEF7D0FE0020FEF7CDFE362027
:101B9800FEF7CAFE0020FEF7C7FE3220FEF7C4FE9D
:101BA8000020FEF7C1FE2F20FEF7BEFE0020FEF744
:101BB800BBFE2C20FEF7B8FE0020FEF7B5FE29205C
:101BC800FEF7B2FE0020FEF7AFFE2620FEF7ACFEC1
:101BD8000020FEF7A9FE2420FEF7A6FE0020FEF74F
:101BE800A3FE2420FEF7A0FE0020FEF79DFE232082
:101BF800FEF79AFE0020FEF797FEC420FEF72EFEA1
:101C08006220FEF791FE0020FEF78EFE0520FEF70B
:101C18008BFE0020FEF788FE8420FEF785FE00205C
:101C2800FEF782FEF020FEF77FFE0020FEF77CFE26
:101C38001820FEF779FE0020FEF776FEA420FEF7B6
:101C480073FE0020FEF770FE1820FEF76DFE0020E0
:101C5800FEF76AFE5020FEF767FE0020FEF764FEDE
:101C68000C20FEF761FE0020FEF75EFE1720FEF74F
:101C78005BFE0020FEF758FE9520FEF755FE00207B
:101C8800FEF752FEF320FEF74FFE0020FEF74CFE53
:101C9800E620FEF749FE0020FEF746FEC520FEF7C7
:101CA800DDFD3220FEF740FE0020FEF73DFE442019
:101CB800FEF73AFE0020FEF737FE6520FEF734FEF9
:101CC8000020FEF731FE7620FEF72EFE0020FEF7FC
:101CD8002BFE8820FEF728FE0020FEF725FEC620F2
:101CE800FEF7BCFD2020FEF71FFE0020FEF71CFEBD
:101CF8001720FEF719FE0020FEF716FE0120FEF75A
:101D080013FE0020FEF710FEC720FEF7A7FD0020F7
:101D1800FEF70AFEFEF708FEFEF706FEFEF704FED3
:101D2800C820FEF79BFD0020FEF7FEFDFEF7FCFD38
:101D3800FEF7FAFDFEF7F8FDC920FEF78FFD00203B
:101D4800FEF7F2FDFEF7F0FDFEF7EEFDFEF7ECFD07
:101D5800FEF7EAFDFEF7E8FDFEF7E6FDFEF7E4FD17
:101D6800FEF7E2FDFEF7E0FDFEF7DEFDFEF7DCFD27
:101D7800FEF7DAFDFEF7D8FDFEF7D6FDFEF7D4FD37
:101D8800E020FEF76BFD1620FEF7CEFD0020FEF7E3
:101D9800CBFD1C20FEF7C8FD0020FEF7C5FD212065
:101DA800FEF7C2FD0020FEF7BFFD3620FEF7BCFDA2
:101DB8000020FEF7B9FD4620FEF7B6FD0020FEF72D
:101DC800B3FD5220FEF7B0FD0020FEF7ADFD642004
:101DD800FEF7AAFD0020FEF7A7FD7A20FEF7A4FD76
:101DE8000020FEF7A1FD8B20FEF79EFD0020FEF7E8
:101DF8009BFD9920FEF798FD0020FEF795FDA82091
:101E0800FEF792FD0020FEF78FFDB920FEF78CFD4E
:101E18000020FEF789FDC420FEF786FD0020FEF7AE
:101E280083FDCA20FEF780FD0020FEF77DFDD2204D
:101E3800FEF77AFD0020FEF777FDD920FEF774FD46
:101E48000020FEF771FDE020FEF76EFD0020FEF792
:101E58006BFDF320FEF768FD0020FEF765FDE1202D
:101E6800FEF7FCFC1620FEF75FFD0020FEF75CFD88
:101E78001C20FEF759FD0020FEF756FD2220FEF734
:101E880053FD0020FEF750FD3620FEF74DFD0020E3
:101E9800FEF74AFD4520FEF747FD0020FEF744FD0A
:101EA8005220FEF741FD0020FEF73EFD6420FEF7BC
:101EB8003BFD0020FEF738FD7A20FEF735FD0020B7
:101EC800FEF732FD8B20FEF72FFD0020FEF72CFDDC
:101ED8009920FEF729FD0020FEF726FDA820FEF731
:101EE80023FD0020FEF720FDB920FEF71DFD002090
:101EF800FEF71AFDC420FEF717FD0020FEF714FDBB
:101F0800CA20FEF711FD0020FEF70EFDD220FEF7D5
:101F18000BFD0020FEF708FDD820FEF705FD002088
:101F2800FEF702FDE020FEF7FFFC0020FEF7FCFCB8
:101F3800F320FEF7F9FC0020FEF7F6FCE220FEF79E
:101F48008DFC0520FEF7F0FC0020FEF7EDFC0B20D1
:101F5800FEF7EAFC0020FEF7E7FC1B20FEF7E4FC96
:101F68000020FEF7E1FC3420FEF7DEFC0020FEF73F
:101F7800DBFC4420FEF7D8FC0020FEF7D5FC4F2000
:101F8800FEF7D2FC0020FEF7CFFC6120FEF7CCFC68
:101F98000020FEF7C9FC7920FEF7C6FC0020FEF7FA
:101FA800C3FC8820FEF7C0FC0020FEF7BDFC97208C
:101FB800FEF7BAFC0020FEF7B7FCA620FEF7B4FC3B
:101FC8000020FEF7B1FCB720FEF7AEFC0020FEF7BC
:101FD800ABFCC220FEF7A8FC0020FEF7A5FCC7203A
:101FE800FEF7A2FC0020FEF79FFCD120FEF79CFC28
:101FF8000020FEF799FCD620FEF796FC0020FEF79D
:1020080093FCDD20FEF790FC0020FEF78DFCF3200A
:10201800FEF78AFC0020FEF787FCE320FEF71EFC93
:102028000520FEF781FC0020FEF77EFC0A20FEF763
:102038007BFC0020FEF778FC1C20FEF775FC0020D6
:10204800FEF772FC3320FEF76FFC0020FEF76CFCF5
:102058004420FEF769FC0020FEF766FC5020FEF7DE
:1020680063FC0020FEF760FC6220FEF75DFC0020A8
:10207800FEF75AFC7820FEF757FC0020FEF754FCC8
:102088008820FEF751FC0020FEF74EFC9720FEF753
:102098004BFC0020FEF748FCA620FEF745FC00207C
:1020A800FEF742FCB720FEF73FFC0020FEF73CFCA1
:1020B800C220FEF739FC0020FEF736FCC720FEF7E9
:1020C80033FC0020FEF730FCD120FEF72DFC002069
:1020D800FEF72AFCD520FEF727FC0020FEF724FC9B
:1020E800DD20FEF721FC0020FEF71EFCF320FEF7A2
:1020F8001BFC0020FEF718FCE420FEF7AFFB0120D4
:10210800FEF712FC0020FEF70FFC0120FEF70CFC86
:102118000020FEF709FC0220FEF706FC0020FEF76F
:1021280003FC2A20FEF700FC0020FEF7FDFB3C2004
:10213800FEF7FAFB0020FEF7F7FB4B20FEF7F4FB57
:102148000020FEF7F1FB5D20FEF7EEFB0020FEF716
:10215800EBFB7420FEF7E8FB0020FEF7E5FB84208C
:10216800FEF7E2FB0020FEF7DFFB9320FEF7DCFB27
:102178000020FEF7D9FBA220FEF7D6FB0020FEF7D1
:10218800D3FBB320FEF7D0FB0020FEF7CDFBBE202B
:10219800FEF7CAFB0020FEF7C7FBC420FEF7C4FB0E
:1021A8000020FEF7C1FBCD20FEF7BEFB0020FEF7A6
:1021B800BBFBD320FEF7B8FB0020FEF7B5FBDD2004
:1021C800FEF7B2FB0020FEF7AFFBF320FEF7ACFBF7
:1021D8000020FEF7A9FBE520FEF740FB0020FEF7F4
:1021E800A3FBFEF7A1FBFEF79FFBFEF79DFB02207A
:1021F800FEF79AFB0020FEF797FB2920FEF794FBD9
:102208000020FEF791FB3C20FEF78EFB0020FEF736
:102218008BFB4B20FEF788FB0020FEF785FB5D203B
:10222800FEF782FB0020FEF77FFB7420FEF77CFBA5
:102238000020FEF779FB8420FEF776FB0020FEF7EE
:1022480073FB9320FEF770FB0020FEF76DFBA220C6
:10225800FEF76AFB0020FEF767FBB320FEF764FB7E
:102268000020FEF761FBBE20FEF75EFB0020FEF7B4
:102278005BFBC420FEF758FB0020FEF755FBCD2082
:10228800FEF752FB0020FEF74FFBD320FEF74CFB76
:102298000020FEF749FBDC20FEF746FB0020FEF796
:1022A80043FBF320FEF740FB0020FEF73DFBE62052
:1022B800FEF7D4FA1120FEF737FB0020FEF734FBB7
:1022C8003420FEF731FB0020FEF72EFB5620FEF7E8
:1022D8002BFB0020FEF728FB7620FEF725FB0020CD
:1022E800FEF722FB7720FEF71FFB0020FEF71CFB02
:1022F8006620FEF719FB0020FEF716FB8820FEF784
:1023080013FB0020FEF710FB9920FEF70DFB0020C1
:10231800FEF70AFBBB20FEF707FB0020FEF704FBD5
:102328009920FEF701FB0020FEF7FEFA6620FEF773
:10233800FBFA0020FEF7F8FA5520FEF7F5FA002020
:10234800FEF7F2FA5520FEF7EFFA0020FEF7ECFA56
:102358004520FEF7E9FA0020FEF7E6FA4320FEF7EB
:10236800E3FA0020FEF7E0FA4420FEF7DDFA002049
:10237800FEF7DAFAE720FEF771FA3220FEF7D4FA10
:102388000020FEF7D1FA5520FEF7CEFA0020FEF71E
:10239800CBFA7620FEF7C8FA0020FEF7C5FA6620C9
:1023A800FEF7C2FA0020FEF7BFFA6720FEF7BCFA74
:1023B8000020FEF7B9FA6720FEF7B6FA0020FEF70C
:1023C800B3FA8720FEF7B0FA0020FEF7ADFA99209D
:1023D800FEF7AAFA0020FEF7A7FABB20FEF7A4FA38
:1023E8000020FEF7A1FA9920FEF79EFA0020FEF7DA
:1023F8009BFA7720FEF798FA0020FEF795FA44201A
:10240800FEF792FA0020FEF78FFA5620FEF78CFAB4
:102418000020FEF789FA2320FEF786FA0020FEF74F
:1024280083FA3320FEF780FA0020FEF77DFA452074
:10243800FEF77AFA0020FEF777FAE820FEF70EFAA0
:102448000020FEF771FAFEF76FFA9920FEF76CFA92
:102458000020FEF769FA8720FEF766FA0020FEF7EB
:1024680063FA8820FEF760FA0020FEF75DFA77200D
:10247800FEF75AFA0020FEF757FA6620FEF754FADC
:102488000020FEF751FA8820FEF74EFA0020FEF7EA
:102498004BFAAA20FEF748FA0020FEF745FABB20BF
:1024A800FEF742FA0020FEF73FFA9920FEF73CFAC1
:1024B8000020FEF739FA6620FEF736FA0020FEF70C
:1024C80033FA5520FEF730FA0020FEF72DFA552092
:1024D800FEF72AFA0020FEF727FA4420FEF724FA2E
:1024E8000020FEF721FA4420FEF71EFA0020FEF72E
:1024F8001BFA5520FEF718FA0020FEF715FAE92016
:10250800FEF7ACF9AA20FEF70FFA0020FEF70CFA46
:10251800FEF70AFAFEF708FAFEF7A0F9AA20FEF776
:1025280003FACF20FEF79AF90020FEF7FDF9FEF72F
:10253800FBF9FEF7F9F9FEF7F7F9FEF7F5F9FEF7FB
:10254800F3F9FEF7F1F9FEF7EFF9FEF7EDF9FEF70B
:10255800EBF9FEF7E9F9FEF7E7F9FEF7E5F9FEF71B
:10256800E3F9FEF7E1F9FEF7DFF9FEF7DDF9F02010
:10257800FEF774F90020FEF7D7F95020FEF7D4F9DA
:102588000020FEF7D1F9FEF7CFF9FEF7CDF9F320D9
:10259800FEF764F90020FEF7C7F9F920FEF75EF9A7
:1025A8000620FEF7C1F91020FEF7BEF92920FEF734
:1025B800BBF90020FEF7B8F93A20FEF74FF955208D
:1025C800FEF7B2F91120FEF749F9642002F0C8FDC0
:1025D8002920FEF743F93520FEF740F90020FEF7E1
:1025E800A3F95120FEF73AF9FF20FEF79DF9532091
:1025F800FEF734F92C20FEF797F95520FEF72EF94F
:102608008220FEF791F92C20FFF79BB849F2283277
:10261800934201F07E8200F2C98049F2203293424F
:1026280001F0678349F22532934201F09E8148F612
:10263800891293427FF4A7A801210020FEF750F9E0
:102648004AF6A4010320FEF74BF900210C20FEF7FF
:1026580047F940F60C010D20FEF742F94FF42C51D2
:102668000E20FEF73DF9B0211E20FEF739F942F69B
:102678003F310120FEF734F94FF4C0610220FEF724
:102688002FF900211020FEF72BF946F278011120CE
:10269800FEF726F900210520FEF722F90021062081
:1026A800FEF71EF94EF61C711620FEF719F90321E4
:1026B8001720FEF715F940F233210720FEF710F92D
:1026C80000210B20FEF70CF900210F20FEF708F976
:1026D80000214120FEF704F900214220FEF700F90D
:1026E80000214820FEF7FCF840F23F114920FEF790
:1026F800F7F800214A20FEF7F3F800214B20FEF7F7
:10270800EFF84FF46F414420FEF7EAF80021452026
:10271800FEF7E6F840F23F114620FEF7E1F840F2F6
:1027280007713020FEF7DCF84FF401713120FEF715
:10273800D7F84FF401713220FEF7D2F840F2025177
:102748003320FEF7CDF840F207513420FEF7C8F8E1
:102758004FF401713520FEF7C3F84FF401713620AC
:10276800FEF7BEF840F202513720FEF7B9F840F202
:1027780002313A20FEF7B4F840F202313B20FEF76E
:10278800AFF800212320FEF7ABF800212420FEF744
:10279800A7F84FF400412520FEF7A2F800214F20AA
:1027A800FEF79EF800214E2001F04CBB4BF205527B
:1027B800934201F0FF844CF20552934201F0F385F5
:1027C80049F2313293427EF4DEAF41F21401E72040
:1027D800FEF786F84FF480710120FEF781F84FF478
:1027E80000710220FEF77CF841F238010320FEF761
:1027F80077F840F202210820FEF772F8002109203C
:10280800FEF76EF800210A20FEF76AF800210C2076
:10281800FEF766F800210D20FEF762F800210F2070
:10282800FEF75EF800211020FEF75AF80721112064
:10283800FEF756F800211220FEF752F80021132067
:10284800FEF74EF8C82002F08BFC41F29061102090
:10285800FEF746F840F227211120FEF741F8322012
:1028680002F07EFC0C211220FEF73AF8322002F02A
:1028780077FC4FF400611320FEF732F8112129206C
:10288800FEF72EF80B212B20FEF72AF8322002F053
:1028980067FC00212020FEF723F840F23F11212099
:1028A800FEF71EF800213020FEF71AF84FF4837166
:1028B8003120FEF715F800213220FEF711F84FF409
:1028C80001713520FEF70CF841F20A613620FEF757
:1028D80007F840F207713720FEF702F84FF48371CA
:1028E8003820FDF7FDFF40F207713920FDF7F8FFAA
:1028F80040F202413C20FDF7F3FF40F60F413D2036
:10290800FDF7EEFF00215020FDF7EAFFEF215120EF
:10291800FDF7E6FF00215220FDF7E2FF40F23F11EC
:102928005320FDF7DDFF4FF41C5101F0B3B911201E
:10293800FDF794FF142002F013FCD020FDF78EFF62
:102948000720FDF7F1FF4220FDF7EEFF1D20FDF700
:10295800EBFFD120FDF782FF0020FDF7E5FF1A20ED
:10296800FDF7E2FF0920FDF7DFFFD220FDF776FF34
:102978000120FDF7D9FF2220FDF7D6FFC020FDF783
:102988006DFF1020FDF7D0FF3B20FDF7CDFF0020A5
:10299800FDF7CAFF0220FDF7C7FF1120FDF7C4FFAE
:1029A800C520FDF75BFF0320FDF7BEFFC820FDF73C
:1029B80055FF0020FDF7B8FF2520FDF7B5FF2120C2
:1029C800FDF7B2FF0520FDF7AFFF0020FDF7ACFFD4
:1029D8000A20FDF7A9FF6520FDF7A6FF2520FDF7D2
:1029E800A3FF7720FDF7A0FF5020FDF79DFF0F20E4
:1029F800FDF79AFF0020FDF797FFF820FDF72EFF5F
:102A08000120FDF791FFFE20FDF728FF0020FDF7CC
:102A18008BFF0220FDF788FF2020FDF71FFF3620DF
:102A2800FDF71CFF0820FDF77FFF3A20FDF716FF92
:102A38005520FDF779FF2B20FDF710FF0020FDF74B
:102A480073FFFDF771FF0120FDF76EFF3F20FDF7D3
:102A58006BFF2A20FDF702FF0020FDF765FFFDF759
:102A680063FF0120FDF760FFDF20FDF75DFFFEF744
:102A780064BE55214FF47040FDF732FFAA214FF292
:102A88000100FDF72DFF52214FF20200FDF728FF4C
:102A980008214FF20300FDF723FF01214FF2040044
:102AA800FDF71EFF0D214FF43040FDF719FF0D21F2
:102AB8004BF20100FDF714FF0D214BF20200FDF768
:102AC8000FFF34214FF43640FDF70AFF34214BF253
:102AD8000160FDF705FF34214BF20260FDF700FFAE
:102AE8000D214FF43140FDF7FBFE0D214BF2011093
:102AF800FDF7F6FE0D214BF20210FDF7F1FE342131
:102B08004FF43740FDF7ECFE34214BF20170FDF72E
:102B1800E7FE34214BF20270FDF7E2FE00214FF48C
:102B28003240FDF7DDFE00214BF20120FDF7D8FE13
:102B380000214BF20220FDF7D3FE24214FF4384048
:102B4800FDF7CEFE24214BF60100FDF7C9FE242136
:102B58004BF60200FDF7C4FE01214FF43F40FDF79C
:102B6800BFFE0F214FF43340FDF7BAFE0F214BF2A1
:102B78000130FDF7B5FE0F214BF20230FDF7B0FE34
:102B880034214FF43940FDF7ABFE34214BF60110E8
:102B9800FDF7A6FE34214BF60210FDF7A1FE082131
:102BA8004FF43540FDF79CFE08214BF20150FDF72C
:102BB80097FE08214BF20250FDF792FE03214FF4D5
:102BC8004240FDF78DFE24214FF43A40FDF788FE80
:102BD80024214BF60120FDF783FE24214BF6022029
:102BE800FDF77EFE00214FF43C40FDF779FE782189
:102BF8004BF60140FDF774FE00214BF60240FDF74D
:102C08006FFE00214FF43D40FDF76AFE78214BF638
:102C18000150FDF765FE00214BF60250FDF760FEFE
:102C280000214FF43E40FDF75BFE64214BF6016046
:102C3800FDF756FE00214FF45140FDF751FE3321B8
:102C48004DF20110FDF74CFE00214DF20210FDF788
:102C580047FE34214DF20310FDF742FE00214DF2EC
:102C68000410FDF73DFE3A214DF20510FDF738FE40
:102C780000214DF20610FDF733FE4A214DF20710F0
:102C8800FDF72EFE00214DF20810FDF729FE5C210C
:102C98004DF20910FDF724FE00214DF20A10FDF750
:102CA8001FFE81214DF20B10FDF71AFE00214DF297
:102CB8000C10FDF715FEA6214DF20D10FDF710FEC4
:102CC80000214DF20E10FDF70BFEE5214DF20F101D
:102CD800FDF706FE01214DF21010FDF701FE13214C
:102CE8004DF21110FDF7FCFD01214DF21210FDF718
:102CF800F7FD54214DF21310FDF7F2FD01214DF2BD
:102D08001410FDF7EDFD82214DF21510FDF7E8FDD9
:102D180001214DF21610FDF7E3FDCA214DF21710FF
:102D2800FDF7DEFD02214DF21810FDF7D9FD002157
:102D38004DF21910FDF7D4FD02214DF21A10FDF7DE
:102D4800CFFD01214DF21B10FDF7CAFD02214DF206
:102D58001C10FDF7C5FD34214DF21D10FDF7C0FD17
:102D680002214DF21E10FDF7BBFD67214DF21F1029
:102D7800FDF7B6FD02214DF22010FDF7B1FD8421CB
:102D88004DF22110FDF7ACFD02214DF22210FDF7A6
:102D9800A7FDA4214DF22310FDF7A2FD02214DF25B
:102DA8002410FDF79DFDB7214DF22510FDF798FD84
:102DB80002214DF22610FDF793FDCF214DF2271089
:102DC800FDF78EFD02214DF22810FDF789FDDE2169
:102DD8004DF22910FDF784FD02214DF22A10FDF76E
:102DE8007FFDF2214DF22B10FDF77AFD02214DF205
:102DF8002C10FDF775FDFE214DF22D10FDF770FD2D
:102E080003214DF22E10FDF76BFD10214DF22F100E
:102E1800FDF766FD03214DF23010FDF761FD33210A
:102E28004DF23110FDF75CFD03214DF23210FDF734
:102E380057FD6D214DF23310FDF752FD00214FF47F
:102E48005240FDF74DFD33214DF20120FDF748FDBD
:102E580000214DF20220FDF743FD34214DF20320FD
:102E6800FDF73EFD00214DF20420FDF739FD3A2122
:102E78004DF20520FDF734FD00214DF20620FDF747
:102E88002FFD4A214DF20720FDF72AFD00214DF2C2
:102E98000820FDF725FD5C214DF20920FDF720FDF6
:102EA80000214DF20A20FDF71BFD81214DF20B2078
:102EB800FDF716FD00214DF20C20FDF711FDA621AE
:102EC8004DF20D20FDF70CFD00214DF20E20FDF70F
:102ED80007FDE5214DF20F20FDF702FD01214DF21E
:102EE8001020FDF7FDFC13214DF21120FDF7F8FC31
:102EF80001214DF21220FDF7F3FC54214DF213206D
:102F0800FDF7EEFC01214DF21420FDF7E9FC8221CA
:102F18004DF21520FDF7E4FC01214DF21620FDF7D6
:102F2800DFFCCA214DF21720FDF7DAFC02214DF231
:102F38001820FDF7D5FC00214DF21920FDF7D0FC33
:102F480002214DF21A20FDF7CBFC01214DF21B2086
:102F5800FDF7C6FC02214DF21C20FDF7C1FC34210F
:102F68004DF21D20FDF7BCFC02214DF21E20FDF79D
:102F7800B7FC67214DF21F20FDF7B2FC02214DF28C
:102F88002020FDF7ADFC84214DF22120FDF7A8FC9F
:102F980002214DF22220FDF7A3FCA4214DF22320AB
:102FA800FDF79EFC02214DF22420FDF799FCB72184
:102FB8004DF22520FDF794FC02214DF22620FDF765
:102FC8008FFCCF214DF22720FDF78AFC02214DF21C
:102FD8002820FDF785FCDE214DF22920FDF780FC35
:102FE80002214DF22A20FDF77BFCF2214DF22B2025
:102FF800FDF776FC02214DF22C20FDF771FCFE2135
:103008004DF22D20FDF76CFC03214DF22E20FDF72B
:1030180067FC10214DF22F20FDF762FC03214DF2D1
:103028003020FDF75DFC33214DF23120FDF758FCCF
:1030380003214DF23220FDF753FC6D214DF2332070
:10304800FDF74EFC00214FF45340FDF749FC3321B6
:103058004DF20130FDF744FC00214DF20230FDF73E
:103068003FFC34214DF20330FDF73AFC00214DF2CC
:103078000430FDF735FC3A214DF20530FDF730FC00
:1030880000214DF20630FDF72BFC4A214DF20730A6
:10309800FDF726FC00214DF20830FDF721FC5C21EC
:1030A8004DF20930FDF71CFC00214DF20A30FDF706
:1030B80017FC81214DF20B30FDF712FC00214DF277
:1030C8000C30FDF70DFCA6214DF20D30FDF708FC84
:1030D80000214DF20E30FDF703FCE5214DF20F30D3
:1030E800FDF7FEFB01214DF21030FDF7F9FB13212E
:1030F8004DF21130FDF7F4FB01214DF21230FDF7CE
:10310800EFFB54214DF21330FDF7EAFB01214DF29C
:103118001430FDF7E5FB82214DF21530FDF7E0FB99
:1031280001214DF21630FDF7DBFBCA214DF21730B5
:10313800FDF7D6FB02214DF21830FDF7D1FB002137
:103148004DF21930FDF7CCFB02214DF21A30FDF794
:10315800C7FB01214DF21B30FDF7C2FB02214DF2E6
:103168001C30FDF7BDFB34214DF21D30FDF7B8FBD7
:1031780002214DF21E30FDF7B3FB67214DF21F30DF
:10318800FDF7AEFB02214DF22030FDF7A9FB8421AB
:103198004DF22130FDF7A4FB02214DF22230FDF75C
:1031A8009FFBA4214DF22330FDF79AFB02214DF23B
:1031B8002430FDF795FBB7214DF22530FDF790FB44
:1031C80002214DF22630FDF78BFBCF214DF227303F
:1031D800FDF786FB02214DF22830FDF781FBDE2149
:1031E8004DF22930FDF77CFB02214DF22A30FDF724
:1031F80077FBF2214DF22B30FDF772FB02214DF2E5
:103208002C30FDF76DFBFE214DF22D30FDF768FBEC
:1032180003214DF22E30FDF763FB10214DF22F30C4
:10322800FDF75EFB03214DF23030FDF759FB3321EA
:103238004DF23130FDF754FB03214DF23230FDF7EA
:103248004FFB6D214DF23330FDF74AFB00214FF45F
:103258005440FDF745FB33214DF20140FDF740FB9B
:1032680000214DF20240FDF73BFB34214DF20340B3
:10327800FDF736FB00214DF20440FDF731FB3A2102
:103288004DF20540FDF72CFB00214DF20640FDF7FD
:1032980027FB4A214DF20740FDF722FB00214DF2A2
:1032A8000840FDF71DFB5C214DF20940FDF718FBB6
:1032B80000214DF20A40FDF713FB81214DF20B402E
:1032C800FDF70EFB00214DF20C40FDF709FBA6218E
:1032D8004DF20D40FDF704FB00214DF20E40FDF7C5
:1032E800FFFAE5214DF20F40FDF7FAFA01214DF200
:1032F8001040FDF7F5FA13214DF21140FDF7F0FAF1
:1033080001214DF21240FDF7EBFA54214DF2134022
:10331800FDF7E6FA01214DF21440FDF7E1FA8221AA
:103328004DF21540FDF7DCFA01214DF21640FDF78C
:10333800D7FACA214DF21740FDF7D2FA02214DF211
:103348001840FDF7CDFA00214DF21940FDF7C8FAF3
:1033580002214DF21A40FDF7C3FA01214DF21B403C
:10336800FDF7BEFA02214DF21C40FDF7B9FA3421EF
:103378004DF21D40FDF7B4FA02214DF21E40FDF753
:10338800AFFA67214DF21F40FDF7AAFA02214DF26C
:103398002040FDF7A5FA84214DF22140FDF7A0FA5F
:1033A80002214DF22240FDF79BFAA4214DF2234061
:1033B800FDF796FA02214DF22440FDF791FAB72164
:1033C8004DF22540FDF78CFA02214DF22640FDF71B
:1033D80087FACF214DF22740FDF782FA02214DF2FC
:1033E8002840FDF77DFADE214DF22940FDF778FAF5
:1033F80002214DF22A40FDF773FAF2214DF22B40DB
:10340800FDF76EFA02214DF22C40FDF769FAFE2114
:103418004DF22D40FDF764FA03214DF22E40FDF7E1
:103428005FFA10214DF22F40FDF75AFA03214DF2B1
:103438003040FDF755FA33214DF23140FDF750FA8F
:1034480003214DF23240FDF74BFA6D214DF2334026
:10345800FDF746FA00214FF45540FDF741FA3321B4
:103468004DF20150FDF73CFA00214DF20250FDF7F4
:1034780037FA34214DF20350FDF732FA00214DF2AC
:103488000450FDF72DFA3A214DF20550FDF728FAC0
:1034980000214DF20650FDF723FA4A214DF207505C
:1034A800FDF71EFA00214DF20850FDF719FA5C21CC
:1034B8004DF20950FDF714FA00214DF20A50FDF7BC
:1034C8000FFA81214DF20B50FDF70AFA00214DF257
:1034D8000C50FDF705FAA6214DF20D50FDF700FA44
:1034E80000214DF20E50FDF7FBF9E5214DF20F508A
:1034F800FDF7F6F901214DF21050FDF7F1F913210E
:103508004DF21150FDF7ECF901214DF21250FDF783
:10351800E7F954214DF21350FDF7E2F901214DF27C
:103528001450FDF7DDF982214DF21550FDF7D8F959
:1035380001214DF21650FDF7D3F9CA214DF217506B
:10354800FDF7CEF902214DF21850FDF7C9F9002117
:103558004DF21950FDF7C4F902214DF21A50FDF74A
:10356800BFF901214DF21B50FDF7BAF902214DF2C6
:103578001C50FDF7B5F934214DF21D50FDF7B0F997
:1035880002214DF21E50FDF7ABF967214DF21F5095
:10359800FDF7A6F902214DF22050FDF7A1F984218B
:1035A8004DF22150FDF79CF902214DF22250FDF712
:1035B80097F9A4214DF22350FDF792F902214DF21B
:1035C8002450FDF78DF9B7214DF22550FDF788F904
:1035D80002214DF22650FDF783F9CF214DF22750F5
:1035E800FDF77EF902214DF22850FDF779F9DE2129
:1035F8004DF22950FDF774F902214DF22A50FDF7DA
:103608006FF9F2214DF22B50FDF76AF902214DF2C4
:103618002C50FDF765F9FE214DF22D50FDF760F9AC
:1036280003214DF22E50FDF75BF910214DF22F507A
:10363800FDF756F903214DF23050FDF751F93321CA
:103648004DF23150FDF74CF903214DF23250FDF7A0
:1036580047F96D214DF23350FDF742F900214FF43F
:103668005640FDF73DF933214DF20160FDF738F979
:1036780000214DF20260FDF733F934214DF2036069
:10368800FDF72EF900214DF20460FDF729F93A21E2
:103698004DF20560FDF724F900214DF20660FDF7B3
:1036A8001FF94A214DF20760FDF71AF900214DF282
:1036B8000860FDF715F95C214DF20960FDF710F976
:1036C80000214DF20A60FDF70BF981214DF20B60E4
:1036D800FDF706F900214DF20C60FDF701F9A6216E
:1036E8004DF20D60FDF7FCF800214DF20E60FDF77C
:1036F800F7F8E5214DF20F60FDF7F2F801214DF2E0
:103708001060FDF7EDF813214DF21160FDF7E8F8B0
:1037180001214DF21260FDF7E3F854214DF21360D8
:10372800FDF7DEF801214DF21460FDF7D9F882218A
:103738004DF21560FDF7D4F801214DF21660FDF742
:10374800CFF8CA214DF21760FDF7CAF802214DF2F1
:103758001860FDF7C5F800214DF21960FDF7C0F8B3
:1037680002214DF21A60FDF7BBF801214DF21B60F2
:10377800FDF7B6F802214DF21C60FDF7B1F83421CF
:103788004DF21D60FDF7ACF802214DF21E60FDF709
:10379800A7F867214DF21F60FDF7A2F802214DF24C
:1037A8002060FDF79DF884214DF22160FDF798F81F
:1037B80002214DF22260FDF793F8A4214DF2236017
:1037C800FDF78EF802214DF22460FDF789F8B72144
:1037D8004DF22560FDF784F802214DF22660FDF7D1
:1037E8007FF8CF214DF22760FDF77AF802214DF2DC
:1037F8002860FDF775F8DE214DF22960FDF770F8B5
:1038080002214DF22A60FDF76BF8F2214DF22B6090
:10381800FDF766F802214DF22C60FDF761F8FE21F4
:103828004DF22D60FDF75CF803214DF22E60FDF797
:1038380057F810214DF22F60FDF752F803214DF291
:103848003060FDF74DF833214DF23160FDF748F84F
:1038580003214DF23260FDF743F86D214DF23360DC
:10386800FDF73EF855214FF47040FDF739F8AA21CD
:103878004FF20100FDF734F852214FF20200FDF734
:103888002FF808214FF20300FDF72AF800214FF224
:103898000400FDF725F8CC214FF43140FDF720F85E
:1038A80000214BF20110FDF71BF805214FF43640BB
:1038B800FDF716F870214FF43740FDF711F8702125
:1038C8004BF20170FDF70CF801214FF43840FDF779
:1038D80007F803214BF60100FDF702F803214BF628
:1038E8000200FCF7FDFF03214BF60300FCF7F8FF8D
:1038F80002214FF43C40FCF7F3FF00214BF6014056
:10390800FCF7EEFF00214BF60240FCF7E9FFD0215F
:103918004FF44940FCF7E4FF02214CF60110FCF794
:10392800DFFF50214CF60210FCF7DAFF50214CF66D
:103938000310FCF7D5FF50214CF60410FCF7D0FF1C
:1039480000214FF45450FCF7CBFF55214FF4685039
:10395800FCF7C6FF4FF48850FCF780FF012001F008
:10396800FFFB4FF42450FDF7ECBE47F6F001E520CD
:10397800FCF7B6FF4FF480710120FCF7B1FF4FF45C
:10398800E0610220FCF7ACFF41F230010320FCF7B4
:10399800A7FF00210420FCF7A3FF40F20221082022
:1039A800FCF79EFF00210920FCF79AFF00210A205E
:1039B800FCF796FF00210C20FCF792FF00210D2058
:1039C800FCF78EFF00210F20FCF78AFF0021102052
:1039D800FCF786FF07211120FCF782FF0021122047
:1039E800FCF77EFF00211320FCF77AFF0021072057
:1039F800FCF776FF41F290611020FCF771FF40F26E
:103A080027211120FCF76CFF9D211220FCF768FF8D
:103A18004FF4C8511320FCF763FF25212920FCF738
:103A28005FFF0D212B20FCF75BFF07213020FCF7FF
:103A380057FF40F203313120FCF752FF03213220B7
:103A4800FCF74EFF40F206213520FCF749FF08211C
:103A58003620FCF745FF40F206413720FCF740FFCF
:103A68004FF441713820FCF73BFF07213920FCF760
:103A780037FF40F202613C20FCF732FF08213D206D
:103A8800FCF72EFF00215020FCF72AFFEF215120E0
:103A9800FCF726FF00215220FCF722FF40F23F11DD
:103AA8005320FCF71DFF4FF427416020FCF718FF57
:103AB80001216120FCF714FF00216A20FCF710FFA8
:103AC80000218020FCF70CFF00218120FCF708FF73
:103AD80000218220FCF704FF00218320FCF700FF6F
:103AE80000218420FCF7FCFE00218520FCF7F8FE6D
:103AF80010219020FCF7F4FE4FF4C0619220FCF7EF
:103B0800EFFE40F233110720FCF7EAFE22210020E5
:103B180098E141F28F01EC20FCF7E2FE41F23421FA
:103B2800EF20FCF7DDFE4FF480710120FCF7D8FE92
:103B38004FF4E0610220FCF7D3FE41F2300103208C
:103B4800FCF7CEFE00210420FCF7CAFE40F2022159
:103B58000820FCF7C5FE00210920FCF7C1FE002162
:103B68000A20FCF7BDFE01210C20FCF7B9FE00215C
:103B78000D20FCF7B5FE00210F20FCF7B1FE002157
:103B88001020FCF7ADFE07211120FCF7A9FE00214B
:103B98001220FCF7A5FE00211320FCF7A1FE01214D
:103BA8000720FCF79DFE322001F0DAFA41F290413D
:103BB8001020FCF795FE40F227211120FCF790FE1B
:103BC800322001F0CDFA8A211220FCF789FE32203A
:103BD80001F0C6FA4FF4D0511320FCF781FE0621FC
:103BE8002920FCF77DFE0D212B20FCF779FE3220E1
:103BF80001F0B6FA00212020FCF772FE00212120F6
:103C0800FCF76EFE322001F0ABFA00213020FCF701
:103C180067FE40F204613120FCF762FE40F2053194
:103C28003220FCF75DFE00213520FCF759FE40F6F6
:103C380009413620FCF754FE4FF401713720FCF798
:103C48004FFE40F201313820FCF74AFE40F207717E
:103C58003920FCF745FE00213C20FCF741FE40F6E8
:103C68000A213D20FCF73CFE322001F079FA0021C0
:103C78005020FCF735FEEF215120FCF731FE0021E2
:103C88005220FCF72DFE40F23F115320FCF728FE8E
:103C98004FF427416020FCF723FE01216120FCF747
:103CA8001FFE00216A20FCF71BFE00218020FCF784
:103CB80017FE00218120FCF713FE00218220FCF76B
:103CC8000FFE00218320FCF70BFE00218420FCF767
:103CD80007FE00218520FCF703FE10219020FCF749
:103CE800FFFD4FF4C0619220FCF7FAFD40F233115A
:103CF800A7E000210846FCF7F3FD4FF4807101208E
:103D0800FCF7EEFD4FF4E0610220FCF7E9FD41F21B
:103D180030010320FCF7E4FD00210420FCF7E0FD5E
:103D280040F202210820FCF7DBFD00210920FCF706
:103D3800D7FD00210A20FCF7D3FD01210C20FCF758
:103D4800CFFD00210D20FCF7CBFD00210F20FCF753
:103D5800C7FD322001F004FA40F201110720FCF7F8
:103D6800BFFD322001F0FCF94FF486511020FCF71A
:103D7800B7FD07211120FCF7B3FD4FF4887112201D
:103D8800FCF7AEFD4FF430611320FCF7A9FD0021CC
:103D98002920FCF7A5FD44F210012B20FCF7A0FD1B
:103DA80000215020FCF79CFDEF215120FCF798FDE5
:103DB80000215220FCF794FD40F23F115320FCF7FC
:103DC8008FFD4FF41C516020FCF78AFD0121612012
:103DD800FCF786FD00216A20FCF782FD0021802087
:103DE800FCF77EFD00218120FCF77AFD002182206E
:103DF800FCF776FD00218320FCF772FD002184206A
:103E0800FCF76EFD00218520FCF76AFD102190204B
:103E1800FCF766FD00219220FCF762FD012193204A
:103E2800FCF75EFD4FF488719520FCF759FD0021E1
:103E38009720FCF755FD00219820FCF751FD40F232
:103E480073110720FCF74CFDFDF79DBC4FF4807102
:103E58000120FCF745FD4FF4E0610220FCF740FD2E
:103E680041F230010320FCF73BFD00210420FCF760
:103E780037FD40F207210820FCF732FD0021092018
:103E8800FCF72EFD00210A20FCF72AFD00210C205A
:103E9800FCF726FD00210D20FCF722FD00210F2054
:103EA800FCF71EFD142001F05BF941F2B06110200F
:103EB800FCF716FD01211120FCF712FD0121172046
:103EC800FCF70EFD4FF49C711220FCF709FD4FF42E
:103ED80000611320FCF704FD09212920FCF700FDEF
:103EE80009212A20FCF7FCFC0021A420FCF7F8FC9F
:103EF80000215020FCF7F4FCEF215120FCF7F0FCE6
:103F080000215220FCF7ECFC40F23F115320FCF753
:103F1800E7FC4FF41C516020FCF7E2FC0121612012
:103F2800FCF7DEFC00216A20FCF7DAFC0021802087
:103F3800FCF7D6FC00218120FCF7D2FC002182206E
:103F4800FCF7CEFC00218320FCF7CAFC002184206A
:103F5800FCF7C6FC00218520FCF7C2FC1321902049
:103F6800FCF7BEFC00219220FCF7BAFC0321932049
:103F7800FCF7B6FC4FF488719520FCF7B1FC0720DC
:103F880040F27311FCF7ACFC322001F0E9F8FDF7C0
:103F9800FABB00210720FCF7A3FC322001F0E0F86F
:103FA8004FF48E711220FCF79BFC0121A420FCF732
:103FB80097FC08200F21FCF793FC01460A20FCF728
:103FC8008FFC08210D20FCF78BFC40F20771302094
:103FD800FCF786FC07213120FCF782FC40F20361E4
:103FE8003220FCF77DFC4FF4E0613320FCF778FCCD
:103FF80040F202213420FCF773FC02213520FCF743
:104008006FFC41F60F713620FCF76AFC40F207712D
:104018003720FCF765FC00213820FCF761FC002103
:104028003920FCF75DFC40F207713A20FCF758FC98
:1040380000213B20FCF754FC07213C20FCF750FCF6
:1040480000213D20FCF74CFC322001F089F80121C9
:104058000720FCF745FC01211720FCF741FC322022
:1040680001F07EF84FF4BD511020FCF739FC40F206
:1040780017211120FCF734FC4FF48F711220FCF744
:104088002FFC4FF470611320FCF72AFC00212A2032
:10409800FCF726FC0A212920FCF722FC4FF49F712B
:1040A8001220FCF71DFC00215020FCF719FCEF2121
:1040B8005120FCF715FC00215220FCF711FC40F2BE
:1040C8003F115320FCF70CFC4FF41C516020FCF707
:1040D80007FC01216120FCF703FC00216A20FCF7A2
:1040E800FFFB00218020FCF7FBFB00218120FCF76F
:1040F800F7FB00218220FCF7F3FB00218320FCF76B
:10410800EFFB00218420FCF7EBFB00218520FCF766
:10411800E7FB13219020FCF7E3FB4FF4407192205A
:10412800FCF7DEFB05219320FCF7DAFB0021952044
:10413800FCF7D6FB00219720FCF7D2FB0021982042
:10414800FCF7CEFB4FF480710120FCF7C9FB4FF45C
:10415800E0610220FCF7C4FB41F238010320FCF7C0
:10416800BFFB00210420FCF7BBFB00210C20FCF75F
:10417800B7FB00210F20FCF7B3FB00212020FCF740
:10418800AFFB21200021FCF7ABFB01460720FCF721
:10419800A7FB142000F0E4FF61210720FCF7A0FB37
:1041A800142000F0DDFF072040F27311FCF798FBA4
:1041B8001420EAE600210846FCF792FB0146FCF7CA
:1041C8008FFB0146FCF78CFB0146FCF789FB0121BC
:1041D800A420FCF785FB142000F0C2FF4FF41C510B
:1041E8006020FCF77DFB40F202210820FCF778FBF9
:1041F8004FF405713020FCF773FB43F21571312041
:10420800FCF76EFB40F204613220FCF769FB40F6D4
:1042180016613320FCF764FB42F211213420FCF7CD
:104228005FFB4FF4A8513520FCF75AFB48F20751C1
:104238003620FCF755FB41F207413720FCF750FBCD
:1042480041F203413820FCF74BFB20213920FCF7D1
:1042580047FB1A219020FCF743FB00211020FCF7B4
:104268003FFB07211120FCF73BFB00211220FCF744
:1042780037FB00211320FCF733FB142000F070FFFC
:104288004FF4E6611020FCF72BFB40F237111120A8
:10429800FCF726FB142000F063FF4FF4DC711220BA
:1042A800FCF71EFB142000F05BFF4FF47061132035
:1042B800FCF716FB80212A20FCF712FB4821292055
:1042C800FCF70EFB142000F04BFF4FF48071012027
:1042D800FCF706FB4FF4E0610220FCF701FB41F21A
:1042E80038010320FCF7FCFA40F202210820FCF711
:1042F800F7FA00210A20FCF7F3FA00210C20FCF75A
:10430800EFFA00210D20FCF7EBFA30210E20FCF724
:10431800E7FA00215020FCF7E3FAEF215120FCF7DF
:10432800DFFA00215220FCF7DBFA40F23F1153205C
:10433800FCF7D6FA4FF41C516020FCF7D1FA0121A2
:104348006120FCF7CDFA00216A20FCF7C9FA112197
:104358009020FCF7C5FA4FF4C0619220FCF7C0FA30
:1043680040F202419320FCF7BBFA02219420FCF7AB
:10437800B7FA142000F0F4FE01210720FCF7B0FA88
:10438800142000F0EDFE07206121FCF7A9FA40F2A5
:104398007311FCF7A5FA00212020FCF7A1FA0021EF
:1043A8002120FFF7B1BB00210846FCF799FA014626
:1043B800FCF796FA142000F0D3FE00210846FCF71B
:1043C8008FFA0146FCF78CFA0146FCF789FA014698
:1043D800FCF786FA0121A420FCF782FA142000F0E9
:1043E800BFFE4FF41C516020FCF77AFA40F6060134
:1043F8000820FCF775FA40F203713020FCF770FAD8
:1044080001213120FCF76CFA04213220FCF768FA0C
:104418004FF481713320FCF763FA4FF44071342074
:10442800FCF75EFA40F203113520FCF759FA1F2118
:104438003620FCF755FA40F203713720FCF750FAA2
:1044480001213820FCF74CFA04213920FCF748FAFE
:1044580015219020FCF744FA4FF482611020FCF7F4
:104468003FFA40F247211120FCF73AFA4FF4DE7187
:104478001220FCF735FA4FF460611320FCF730FA8C
:10448800782000F06DFE4FF480710120FCF728FAC7
:104498004FF400710220FCF723FA41F230010320A7
:1044A800FCF71EFA08210A20FCF71AFA00210C2052
:1044B800FCF716FA20210E20FCF712FA00210F2033
:1044C800FCF70EFA00212020FCF70AFA002121202F
:1044D800FCF706FA3D212A20FCF702FA142000F026
:1044E8003FFE2D212920FCF7FBF900215020FCF785
:1044F800F7F94DF2EF015120FCF7F2F900215220B3
:10450800FCF7EEF940F23F115320FCF7E9F90021DE
:104518006120FCF7E5F900216A20FCF7E1F94FF486
:1045280040719220FCF7DCF905219320FCF7D8F9BB
:104538004FF4807185E401210020FCF7D1F90A20AD
:1045480000F00EFE41F228611020FCF7C9F90E2197
:104558001220FCF7C5F940F639211320FCF7C0F901
:104568000A2000F0FDFD40211120FCF7B9F9502187
:104578001520FCF7B5F90A2000F0F2FD1E211220E3
:10458800FCF7AEF90A2000F0EBFD4FF4B151102012
:10459800FCF7A6F942F639211320FCF7A1F90A2005
:1045A80000F0DEFD4FF480710120FCF799F94FF41B
:1045B80040710220FCF794F941F238010320FCF71E
:1045C8008FF9082040F20221FCF78AF901460A20F7
:1045D800FCF786F900213020FCF782F940F202410D
:1045E8003120FCF77DF94FF483713220FCF778F91C
:1045F80040F203513320FCF773F94FF482713420F1
:10460800FCF76EF940F201313520FCF769F940F208
:1046180007713620FCF764F940F205313720FCF7C2
:104628005FF94FF402713820FCF75AF940F60B7124
:104638003920FCF755F902214120FCF751F94FF4D4
:104648001C516020FCF74CF901216120FCF748F966
:104658004FF404719020FCF743F94FF485719220D0
:10466800FCF73EF904219320FCF73AF94FF48071E6
:10467800A020FCF735F907200121FCF731F92121A9
:10468800FCF72EF92321FCF72BF93321FCF728F945
:1046980040F23311FCF724F90021A020FFF7D2BB28
:1046A80030211520FCF71CF910219A20FCF718F985
:1046B80020211120FCF714F943F228411020FCF7BF
:1046C8000FF902211220FCF70BF941F238011320EF
:1046D800FCF706F9282000F043FD12210846FCF7F4
:1046E800FFF8282000F03CFD43F220411020FCF7A1
:1046F800F7F843F238011320FCF7F2F8462000F0EF
:104708002FFD00213020FCF7EBF840F20241312068
:10471800FCF7E6F840F207313220FCF7E1F84FF4F5
:1047280041713320FCF7DCF804213420FCF7D8F879
:1047380040F201413520FCF7D3F840F207713620EA
:10474800FCF7CEF840F205313720FCF7C9F84FF4F2
:10475800C2613820FCF7C4F84FF4C2613920FCF775
:10476800BFF84FF480710120FCF7BAF84FF440719C
:104778000220FCF7B5F841F230010320FCF7B0F84D
:10478800082040F60801FCF7ABF801460A20FCF7C0
:10479800A7F84FF41C516020FCF7A2F80121612012
:1047A800FCF79EF84FF49F719020FCF799F84FF4AE
:1047B80080719220FCF794F84FF480719320FCF7F5
:1047C8008FF84FF44051A020FCF78AF81021A3205D
:1047D800FCF786F807200121FCF782F82121FCF775
:1047E8007FF82321FCF77CF83321FCF779F840F2B5
:1047F8003311FFF727BBE2204FF400754FF48078A0
:10480800FCF72CF81D23AC4CAC4F8026C4F8108064
:1048180004226561FB6002234FF0010A4FF0030B8D
:104828006661012026612561C4F810806561FB601E
:10483800666126612561C4F810806561FA60666169
:104848002661256100F08CFCE020FCF707F8C4F82D
:1048580010800A206561C7F80CA066612661256191
:1048680000F07EFCE020FBF7F9FFC4F810800C2074
:104878006561C7F80CB066612661256100F070FCBF
:104888005046FBF7EBFF0A2000F06AFCE620FBF736
:10489800E5FF2F21C4F810806561F960FF2166618A
:1048A800B02026612561C4F810806561F9606661F1
:1048B80026612561C4F810806561F960666126612A
:1048C8002561FBF7CBFF2021C4F810804FF00009C9
:1048D8006561F96040F21F31666126612561C4F89F
:1048E80010806561C7F80C90666126612561C4F87F
:1048F80010806561C7F80CB0666126612561C4F84F
:1049080010806561F96040F2DF116661B4202661AC
:104918002561C4F810806561C7F80CA0666126613E
:104928002561C4F810806561F960666126612561BA
:10493800C4F810806561C7F80C906661266125612E
:10494800FBF78CFF0422C4F810806561FA6040F21E
:104958001F42666126612561C4F810806561FA60AE
:104968002E226661B62026612561C4F81080656133
:10497800C7F80C90666126612561C4F810806561EE
:10498800FA60666126612561C4F810806561C7F820
:104998000C90666126612561C4F810806561C7F8CE
:1049A8000C90666126612561C4F810806561C7F8BE
:1049B8000C90666126612561C4F810806561C7F8AE
:1049C8000C90666126612561FBF748FF0223C4F855
:1049D80010806561FB604FF4037366612661256191
:1049E800C4F810806561FB60172366612661256144
:1049F800C4F810806561C7F80C906661266125616E
:104A0800C4F810806561FB6015236661F02026619B
:104A18002561C4F810806561FB60666126612561C7
:104A2800C4F810806561C7F80C906661266125613D
:104A3800C4F810806561C7F80C906661266125612D
:104A4800FBF70CFFC4F8108029206561C7F80CB08B
:104A5800666126612561FBF701FFD020FBF7FEFEAA
:104A6800C4F81080BE206561C7F80C9066612661A5
:104A78002561FBF7F3FE0523C4F810806561FB6030
:104A8800FE236661B82026612561C4F8108065613F
:104A9800FB60666126612561C4F810806561C7F80E
:104AA8000CA0666126612561C4F810806561C7F8AD
:104AB8000C906661266103E000100140000C014083
:104AC8002561C4F810806561C7F80C90666126619D
:104AD8002561C4F810806561C7F80C90666126618D
:104AE8002561FBF7BBFEC4F81080BA206561C7F8E2
:104AF8000CB0666126612561C4F810806561C7F84D
:104B08000CA0666126612561FBF7A8FEC4F8108039
:104B180064206561C7F80CA0666126612561FCF711
:104B28000FFBFCF730BE00BF2DE9F04F984646F664
:104B380004032A4E0D46B18885B0994214460746AB
:104B4800BDF8382023D196F806B0BBF1010F1ED16D
:104B580000234FF02A094FF02B0A3188B37101392D
:104B680089B20B1A091BA6F80A90A6F80CA02846C9
:104B780000929BB2424689B2FFF7D6FF86F806B08C
:104B8800A6F80AA0A6F80C9005B0BDE8F08F01348D
:104B9800E41B134EDFF84C90A4B24545F4D82946DF
:104BA80038460392FBF7D2FEFBF7B8FE00234FF41A
:104BB800807E4FF400718020039A1FFA83FC6445BD
:104BC80002D80135ADB2E8E7C6F810E001337161EB
:104BD800C9F80C20706130613161EEE77E00002079
:104BE80000100140000C01402DE9F04F1D46A2EBDA
:104BF8000008B8F1000F04460B4685B0A5EB010983
:104C08001DDC1ED0A0EB02084FF0FF32B9F1000FF7
:104C180019DC1BD04FF0FF3BA1EB05090025C84567
:104C2800C246B8BFCA462F462E460AF10101019175
:104C38000198A9B281420BDD05B0BDE8F08F0122D1
:104C4800E4E74246E2E74FF0010BE7E7CB46E5E74A
:104C580099B2A0B24644039202934F44FCF700F97C
:104C6800DDE90232B245BCBFA6EB0A06A418BA4574
:104C7800BCBFA7EB0A075B440135D9E72DE9F04132
:104C88001C4606460D4617460B46FFF7ADFF234662
:104C9800324629463046FFF7A7FF23463A462146C3
:104CA8003046FFF7A1FF23463A4629463846BDE875
:104CB800F041FFF799BF00002DE9F04F1C4687B07F
:104CC8009DF840300F46059314F0070318BF0123E1
:104CD800610803EBD4034B432421DBB20293203A4F
:104CE800294BD2B201FB02330C218146BB46002678
:104CF8000493264B03EB02130193254B01FB02336C
:104D08000393029AF3B29A4202D807B0BDE8F08F33
:104D18000C2C29D1039B9D5DDFF878800BF10803EB
:104D28001FFA83FA2B0627D51B4B594648461A8883
:104D3800FCF7B2F8B8F802200BF101011FFA81FB69
:104D48006D005A45EDB2E0D9ABEB0702A24218D18B
:104D5800B8F8003009F101001FFA80F94B45D4D9A1
:104D6800BA46D3460136CCE7102C01D1019BD2E7D5
:104D7800182CCAD1049BCEE7059B002BDAD1074B30
:104D8800D3E7DA45CED1ECE7BB6C0008CB66000868
:104D9800576200087E0000207C00002000000020F0
:104DA8002DE9F04F1F4604460D464FF0000B85B025
:104DB80002449DF8383096B20F9A0F44BFB24FEABA
:104DC800530902F1FF385FFA80FA18F8012FA2F1AF
:104DD80020015E2902D905B0BDE8F08FB44222BF98
:104DE800ED18ADB25446BD42F5D220462946CDF85D
:104DF80000B04C440393A4B2FFF75EFF039BE4E7C3
:104E080010B590B01422002108A800F077FD1422F4
:104E1800002101A800F072FD02244FF48033012222
:104E2800CDE90D43CDE906234FF4E01306A80A9215
:104E38000F9300F0E5FA08B172B6FEE70F23CDE94B
:104E480001344FF480630390CDE90430214601A872
:104E580000F098FC08B172B6FEE710B010BD000073
:104E68002DE9F0418CB000F057F90024FFF7C8FF96
:104E7800FCF798FAFBF7DAFCDFF854810B2C0FD813
:104E8800DFE804F00652585E666E767E868E969E41
:104E98004FF6FF70FCF744FA4FF6FF724D4B1A803D
:104EA8004FF478434C4E102533804C4BC822019365
:104EB8001823282100931E20FFF772FF484BC822B1
:104EC800019346212B461E200095FFF769FF0DEB45
:104ED8000507D8F8003003AA38464249039300F082
:104EE800EDFC2B46C8225A211E20CDE90057FFF7BA
:104EF80057FF0023D22233809621BE231E20FFF7BE
:104F0800BDFE4FF6E07301340093E4B2BD23D12215
:104F180097211F20FFF708FE0C2C4FF4FA6008BFFA
:104F2800002400F01DF9A9E70020FCF7F9F9002298
:104F3800284BB4E71F20FCF7F3F91F22254BAEE7F7
:104F48004FF47840FCF7ECF94FF47842214BA6E790
:104F58004FF61F00FCF7E4F94FF61F021D4B9EE7C2
:104F68004FF4FC60FCF7DCF94FF4FC62194B96E750
:104F780047F6FF70FCF7D4F947F6FF72154B8EE73A
:104F88004FF6E070FCF7CCF94FF6E072114B86E76C
:104F98004FF60740FCF7C4F94FF607420D4B7EE782
:104FA80048F23040FCF7BCF948F23042094B76E74A
:104FB8004CF21860FCF7B4F94CF21862054B6EE736
:104FC8004BF64040FCF7ACF94BF64042014B66E724
:104FD80000080140000000207C000020177A00082B
:104FE800267A0008327A00080E4B82B09A6942F09D
:104FF80001029A619A6902F001020092009ADA6944
:1050080042F08052DA61DB69074A03F0805301936A
:10501800019B536823F0E06343F00073536002B0D0
:10502800704700BF0010024000000140FEE7FEE7A5
:10503800FEE7FEE7FEE770477047704700F07EB86E
:105048000B4A0346116810B509B90A49116010687E
:1050580009490A4C0344091B8B4206D900F056FC47
:105068000C2303604FF0FF3010BD1360FCE700BF56
:105078008C000020E001002000C000200004000097
:1050880070470000FFF7FCFF0B480C490C4A00234F
:1050980002E0D458C4500433C4188C42F9D3094AE6
:1050A800094C002301E013600432A242FBD300F054
:1050B80033FCFFF7D5FE7047000000206000002099
:1050C800947A000860000020DC010020FEE7000060
:1050D80038B50E4B05461A784FF47A73B3FBF2F3E2
:1050E8000B4A1068B0FBF3F000F08EF8044658B98C
:1050F8000F2D09D8024629464FF0FF3000F054F82A
:105108002046044B1D6038BD0120FCE70800002044
:10511800040000200C000020074A08B5136803208B
:1051280043F01003136000F02DF80F20FFF7D0FFB5
:10513800FFF75AFF002008BD00200240034A044B35
:1051480011681B780B441360704700BF9000002063
:1051580008000020014B1868704700BF900000202D
:1051680038B50446FFF7F6FF0546631C1EBF044B1F
:105178001B78E418FFF7EEFF431BA342FAD338BDB0
:105188000800002007490302CA6803F4E06322F418
:10519800E0621204120C134343F0BF6343F400337C
:1051A800CB60704700ED00E0154B30B5DC68C4F308
:1051B8000224C4F10703251D042B28BF0423062D50
:1051C8004FF0FF3594BF0024033C05FA03F321EAAE
:1051D8000303A54022EA0502A340002843EA02038C
:1051E800ACBF00F16040074A4FEA0313DBB2ABBF24
:1051F80000F5614000F00F0080F80033135430BD13
:1052080000ED00E014ED00E00138B0F1807F0BD232
:105218004FF0E023F021054A586182F8231000205E
:10522800072298611A6170470120704700ED00E07D
:105238002DE9F74F002216466A4F6B4BDFF8ACC1D9
:10524800DFF8ACE10C6834FA06F502D103B0BDE82A
:10525800F08F4FF0010808FA06F804EA080538EA62
:10526800040440F081804C68032C07D8013C022CD0
:1052780000F28C80DFE804F09DA2A800122C00F058
:10528800A08073D8112C00F09680FF2D98BF82461D
:105298004FF00F0988BF00F1040A4FEA8604DAF8D4
:1052A800008088BF203C09FA04FB28EA0B0802FAB0
:1052B80004F448EA0404CAF80040D1F804A01AF03B
:1052C800805F51D0BC6926F0030844F00104BC613A
:1052D800BC6908F1804804F00104019408F580389D
:1052E80006F0030B019C4FEA8B0BD8F8084009FA2B
:1052F8000BF924EA09093F4CA04269D004F58064FF
:10530800A04267D004F58064A04265D004F58064AB
:10531800A04263D004F58064A04261D060450CBF10
:105328000524062404FA0BF444EA0904C8F80840E2
:105338009C681AF4801F14BF2C43AC439C60DC6843
:105348001AF4001F14BF2C43AC43DC605C681AF4E9
:10535800003F14BF2C43AC435C601C681AF4803FC8
:1053680014BF2C43AC431C6001366BE774450DD069
:1053780018D8DFF884904C4508D009F570294C45B9
:1053880004D0A9F580194C457FF47FAF8A68EAB14B
:10539800012A08BFC0F810804FF0080218BFC0F8F3
:1053A800148072E7DFF854904C45EFD009F5803946
:1053B800E9E7CA6869E7CA68043266E7CA68083272
:1053C80063E7CA680C3260E700225EE704225CE704
:1053D8000024A7E70124A5E70224A3E70324A1E703
:1053E80004249FE70010024000040140001C014013
:1053F80000002210000801400000121000003110C7
:105408002DE9F341054638B30368DB0710D42B6850
:105418009F075ED42B68190700F195802B685A07FF
:1054280000F1C180E869002840F02C81002029E0C3
:10543800904C636803F00C03042B07D0636803F0F7
:105448000C03082B0AD16368DE0307D523689C0385
:10545800DDD56B68002BDAD1012013E06B68B3F55A
:10546800803F12D1236843F480332360FFF772FE34
:10547800064623689803CAD4FFF76CFE801B64288D
:10548800F7D9032002B0BDE8F0819BB9236823F463
:1054980080332360236823F480232360FFF75AFEB8
:1054A800064623689903B2D5FFF754FE801B64288B
:1054B800F7D9E6E7B3F5A02F236803D143F4802397
:1054C8002360CFE723F480332360236823F4802309
:1054D800CBE7684C636813F00C0F07D0636803F0E0
:1054E8000C03082B10D16368DA030DD423689B07DB
:1054F80002D52B69012BAFD123686A6923F0F80321
:1055080043EAC203236085E72A695B4B6AB101223B
:105518001A60FFF71FFE064623689F07ECD4FFF7C3
:1055280019FE801B0228F7D9ABE71A60FFF712FEB5
:105538000646236898077FF56DAFFFF70BFE801BC3
:105548000228F6D99DE7AA694A4E4B4BE2B10122DF
:10555800C3F88024FFF7FEFD0446736A9B070DD548
:105568004FF4FA52454B1B68B3FBF2F3019300BFAB
:10557800019B5A1E0192002BF9D14FE7FFF7EAFD74
:10558800001B0228E9D97CE7C3F88024FFF7E2FD75
:105598000446736A9F077FF541AFFFF7DBFD001BE9
:1055A8000228F6D96DE7334CE369D80024D40127E3
:1055B800E36943F08053E361E36903F080530093A8
:1055C800009B2F4E3368D90518D5EB68012B26D1DF
:1055D800236A43F001032362FFF7BCFD41F28838D8
:1055E8000646236A9B073FD5002F3FF41BAFE369AC
:1055F80023F08053E36115E70027E2E7336843F4BB
:1056080080733360FFF7A6FD80463368DA05DCD483
:10561800FFF7A0FDA0EB08006428F6D931E7ABB985
:10562800236A41F2883823F001032362236A23F0B6
:1056380004032362FFF78EFD0646236A9807D3D535
:10564800FFF788FD801B4045F7D91AE7052B236A29
:1056580003D143F004032362BAE723F00103236272
:10566800236A23F00403B6E7FFF774FD801B404567
:10567800B7D906E7001002400000424204000020AB
:10568800007000402A4C636803F00C03082B3ED0DE
:105698000022284B02281A662CD1FFF75BFD06462C
:1056A8002368990120D42B6AB3F5803F05D162683D
:1056B800A96822F400320A436260696A62680B438F
:1056C80022F474121343012263601A4B1A66FFF71F
:1056D80041FD054623689A013FF5A8AEFFF73AFD5C
:1056E800401B0228F6D9CCE6FFF734FD801B0228C0
:1056F800D6D9C6E6FFF72EFD054623689B017FF540
:1057080095AEFFF727FD401B0228F6D9B9E6012818
:105718003FF4B8AE63682A6A03F4803191427FF49B
:105728009BAE6A6A03F4701393423FF47FAE93E62C
:1057380000100240000042420D4A536803F00C0179
:10574800082912D10B48C3F38341DB03405C09D518
:105758005368094AC3F340435043084AD35CB0FB3B
:10576800F3F07047064B584370470348704700BF33
:1057780000100240477A000800127A00577A0008A1
:1057880000093D002DE9F0410D46044610B90120FD
:10579800BDE8F081444A136803F007038B4228D31D
:1057A80021688E0730D4CA0743D43F4A136803F0F0
:1057B8000703AB4265D822683C4D12F0040F6CD148
:1057C800130706D56B68226923F4605343EAC203C2
:1057D8006B60FFF7B1FF6B68354AC3F30313D35C03
:1057E800D840344B1860344B1868FFF771FC002020
:1057F800CEE7136823F007030B431360136803F025
:1058080007038B42C3D1CBE7284B11F0040F1EBF0F
:105818005A6842F4E0625A60080742BF5A6842F484
:1058280060525A605A68A06822F0F00202435A6037
:10583800B9E762681D4E012A33681AD113F4003F94
:10584800A5D0736841F2883823F0030313437360CB
:10585800FFF780FC07467368626803F00C03B3EB3C
:10586800820FA2D0FFF776FCC01B4045F3D9032076
:105878008EE7022A02D113F0007FE1E713F0020F4E
:10588800DEE7136823F007032B431360136803F064
:105898000703AB427FF47BAF8DE76B68E16823F4C5
:1058A800E0630B436B608BE700200240001002406E
:1058B800377A0008040000200C0000200EB46FF0B6
:1058C800004100B59CB01DAB029006900791049171
:1058D8000848094953F8042B0591006802A9019367
:1058E80000F08EF90022029B1A701CB05DF804EBE0
:1058F80003B070475C0000200802FFFF0346024423
:10590800934200D1704703F8011BF9E7014B18686F
:10591800704700BF5C00002070B500260C4D0D4C90
:10592800641BA410A64209D100F07AFC00260A4D97
:105938000A4C641BA410A64205D170BD55F8043B5F
:1059480098470136EEE755F8043B98470136F2E7E9
:105958008C7A00088C7A00088C7A0008907A000803
:105968007047704738B50546002940D051F8043CC7
:105978000C1F002BB8BFE41800F0DCF81C4A1368B1
:1059880033B9636014602846BDE8384000F0D8B8E1
:10599800A34208D9206821188B4201BF19685B68A7
:1059A80009182160EDE71A465B680BB1A342FAD9E2
:1059B80011685018A0420BD1206801445018834246
:1059C8001160E0D118685B68084410605360DAE73A
:1059D80002D90C232B60D6E7206821188B4201BF1F
:1059E80019685B680918216063605460CBE738BDAB
:1059F800D401002070B50E4E0C463168054611B929
:105A080000F0AAFB30602146284600F0A5FB431CA5
:105A18000AD0C41C24F00304A04207D0211A284647
:105A280000F09AFB013001D14FF0FF34204670BDE1
:105A3800D80100202DE9F843CD1C25F003050835D1
:105A48000C2D38BF0C25002D074601DBA94205D9CE
:105A58000C2300263B603046BDE8F883DFF8D08091
:105A680000F068F8D8F800301C465CBB2946384678
:105A7800FFF7C0FF431C044655D1D8F8004026461E
:105A8800002E45D1002C48D023683146384604EB17
:105A9800030900F061FB81453FD1216838466D1A42
:105AA8002946FFF7A7FF013037D023682B4423602E
:105AB800D8F80030002B38D05A68A2422BD10022E7
:105AC8005A600FE02268521B1FD40B2A17D961199C
